{
  "contractName": "Bank",
  "abi": [
    {
      "constant": true,
      "inputs": [],
      "name": "loanCount",
      "outputs": [
        {
          "name": "",
          "type": "uint256"
        }
      ],
      "payable": false,
      "stateMutability": "view",
      "type": "function",
      "signature": "0xce63094d"
    },
    {
      "constant": true,
      "inputs": [],
      "name": "bankCount",
      "outputs": [
        {
          "name": "",
          "type": "uint256"
        }
      ],
      "payable": false,
      "stateMutability": "view",
      "type": "function",
      "signature": "0xf879eb57"
    },
    {
      "anonymous": false,
      "inputs": [
        {
          "indexed": false,
          "name": "bankId",
          "type": "uint256"
        },
        {
          "indexed": false,
          "name": "bankName",
          "type": "string"
        }
      ],
      "name": "bankAdded",
      "type": "event",
      "signature": "0x915977f39e0e347b2b3e84b0ea98f8e09ed5c6e0f41b47064fd98b4581fcda90"
    },
    {
      "constant": false,
      "inputs": [
        {
          "name": "_bankName",
          "type": "string"
        }
      ],
      "name": "addBank",
      "outputs": [],
      "payable": false,
      "stateMutability": "nonpayable",
      "type": "function",
      "signature": "0x96ed5d86"
    },
    {
      "constant": true,
      "inputs": [],
      "name": "getAllBanks",
      "outputs": [
        {
          "name": "",
          "type": "address[]"
        },
        {
          "name": "",
          "type": "uint256"
        }
      ],
      "payable": false,
      "stateMutability": "view",
      "type": "function",
      "signature": "0x951c8a07"
    },
    {
      "constant": true,
      "inputs": [
        {
          "name": "addr",
          "type": "address"
        }
      ],
      "name": "getBalance",
      "outputs": [
        {
          "name": "",
          "type": "uint256"
        }
      ],
      "payable": false,
      "stateMutability": "view",
      "type": "function",
      "signature": "0xf8b2cb4f"
    },
    {
      "constant": false,
      "inputs": [
        {
          "name": "_value",
          "type": "uint256"
        }
      ],
      "name": "transferLoan",
      "outputs": [],
      "payable": true,
      "stateMutability": "payable",
      "type": "function",
      "signature": "0xebb55734"
    }
  ],
  "bytecode": "0x608060405260008055600060015534801561001957600080fd5b506106be806100296000396000f3fe608060405260043610610078576000357c0100000000000000000000000000000000000000000000000000000000900463ffffffff168063951c8a071461007d57806396ed5d86146100f0578063ce63094d146101b8578063ebb55734146101e3578063f879eb5714610211578063f8b2cb4f1461023c575b600080fd5b34801561008957600080fd5b506100926102a1565b6040518080602001838152602001828103825284818151815260200191508051906020019060200280838360005b838110156100db5780820151818401526020810190506100c0565b50505050905001935050505060405180910390f35b3480156100fc57600080fd5b506101b66004803603602081101561011357600080fd5b810190808035906020019064010000000081111561013057600080fd5b82018360208201111561014257600080fd5b8035906020019184600183028401116401000000008311171561016457600080fd5b91908080601f016020809104026020016040519081016040528093929190818152602001838380828437600081840152601f19601f820116905080830192505050505050509192919290505050610369565b005b3480156101c457600080fd5b506101cd61052f565b6040518082815260200191505060405180910390f35b61020f600480360360208110156101f957600080fd5b8101908080359060200190929190505050610535565b005b34801561021d57600080fd5b506102266105c6565b6040518082815260200191505060405180910390f35b34801561024857600080fd5b5061028b6004803603602081101561025f57600080fd5b81019080803573ffffffffffffffffffffffffffffffffffffffff1690602001909291905050506105cc565b6040518082815260200191505060405180910390f35b6060600080600090506000600190505b600480549050811115156102d457818060010192505080806001019150506102b1565b506004818180548060200260200160405190810160405280929190818152602001828054801561035957602002820191906000526020600020905b8160009054906101000a900473ffffffffffffffffffffffffffffffffffffffff1673ffffffffffffffffffffffffffffffffffffffff168152602001906001019080831161030f575b5050505050915092509250509091565b600080815480929190600101919050555060408051908101604052808281526020013373ffffffffffffffffffffffffffffffffffffffff16815250600260008054815260200190815260200160002060008201518160000190805190602001906103d59291906105ed565b5060208201518160010160006101000a81548173ffffffffffffffffffffffffffffffffffffffff021916908373ffffffffffffffffffffffffffffffffffffffff16021790555090505060043390806001815401808255809150509060018203906000526020600020016000909192909190916101000a81548173ffffffffffffffffffffffffffffffffffffffff021916908373ffffffffffffffffffffffffffffffffffffffff160217905550507f915977f39e0e347b2b3e84b0ea98f8e09ed5c6e0f41b47064fd98b4581fcda90600054826040518083815260200180602001828103825283818151815260200191508051906020019080838360005b838110156104f15780820151818401526020810190506104d6565b50505050905090810190601f16801561051e5780820380516001836020036101000a031916815260200191505b50935050505060405180910390a150565b60015481565b8061053f336105cc565b1015151561054c57600080fd5b803414151561055a57600080fd5b6001600081548092919060010191905055508060036000600154815260200190815260200160002060003373ffffffffffffffffffffffffffffffffffffffff1673ffffffffffffffffffffffffffffffffffffffff1681526020019081526020016000208190555050565b60005481565b60008173ffffffffffffffffffffffffffffffffffffffff16319050919050565b828054600181600116156101000203166002900490600052602060002090601f016020900481019282601f1061062e57805160ff191683800117855561065c565b8280016001018555821561065c579182015b8281111561065b578251825591602001919060010190610640565b5b509050610669919061066d565b5090565b61068f91905b8082111561068b576000816000905550600101610673565b5090565b9056fea165627a7a72305820e90f75f161bad82d04679881a7ce7afa02ded135b57244ede89907ad7969bd570029",
  "source": "pragma solidity >=0.4.21 <0.6.0;\r\n\r\ncontract Bank {\r\n\tuint256 public bankCount = 0;\r\n\tuint256 public loanCount = 0;\r\n\r\n\tstruct bank {\r\n\t \tstring bankName;\r\n\t \taddress bankAddr;\r\n\t}\r\n\r\n\tmapping (uint256 => bank) banks;\r\n\tmapping (uint256 => mapping (address => uint256)) loanAmount; //bank address to loan amount\r\n\r\n\taddress[] allBanks;\r\n\r\n\tevent bankAdded(\r\n\t\tuint256 bankId,\r\n\t\tstring bankName\r\n\t);\r\n\r\n\t/*constructor () public {\r\n\t\tadmin = msg.sender;\r\n\t\t//addBank('State Bank of India');\r\n\t}*/\r\n\r\n\tfunction addBank (string memory _bankName) public {\r\n\t\tbankCount++;\r\n\t\tbanks[bankCount] = bank(_bankName, msg.sender);\r\n\t\tallBanks.push(msg.sender);\r\n\t\temit bankAdded(bankCount, _bankName);\r\n\t}\r\n\r\n\tfunction getAllBanks () public view returns (address[] memory, uint256) { //user count and all user addresses\r\n\t\tuint256 count = 0;\r\n\t\tfor(uint256 i = 1; i <= allBanks.length; i++) {\r\n\t\t\tcount++;\r\n\t\t}\r\n\t\treturn (allBanks, count);\r\n\t}\r\n\r\n\tfunction getBalance(address addr) public view returns(uint256) {\r\n        return addr.balance;\r\n    }\r\n\r\n\tfunction transferLoan (uint256 _value) public payable {\r\n\t\trequire (getBalance(msg.sender) >= _value);\r\n\t\trequire (msg.value == _value);\r\n\t\tloanCount++;\r\n\t\tloanAmount[loanCount][msg.sender] = _value;\r\n\t}\r\n\r\n}",
  "sourcePath": "F:\\Blockchain\\Projects\\FinalYearProject\\LandRegistry\\contracts\\Bank.sol",
  "compiler": {
    "name": "solc",
    "version": "0.5.0+commit.1d4f565a.Emscripten.clang"
  },
  "schemaVersion": "3.0.6",
  "updatedAt": "2019-05-13T04:08:27.268Z",
  "devdoc": {
    "methods": {}
  },
  "userdoc": {
    "methods": {}
  }
}