{
  "contractName": "Property",
  "abi": [
    {
      "constant": true,
      "inputs": [],
      "name": "bankContract",
      "outputs": [
        {
          "name": "",
          "type": "address"
        }
      ],
      "payable": false,
      "stateMutability": "view",
      "type": "function",
      "signature": "0x07c2e449"
    },
    {
      "constant": true,
      "inputs": [
        {
          "name": "",
          "type": "address"
        },
        {
          "name": "",
          "type": "uint256"
        }
      ],
      "name": "loan",
      "outputs": [
        {
          "name": "",
          "type": "uint256"
        }
      ],
      "payable": false,
      "stateMutability": "view",
      "type": "function",
      "signature": "0x185cc751"
    },
    {
      "constant": true,
      "inputs": [
        {
          "name": "",
          "type": "uint256"
        }
      ],
      "name": "userAcc",
      "outputs": [
        {
          "name": "",
          "type": "address"
        }
      ],
      "payable": false,
      "stateMutability": "view",
      "type": "function",
      "signature": "0x66b82655"
    },
    {
      "constant": true,
      "inputs": [
        {
          "name": "",
          "type": "uint256"
        }
      ],
      "name": "landOwnerHistory",
      "outputs": [
        {
          "name": "",
          "type": "address"
        }
      ],
      "payable": false,
      "stateMutability": "view",
      "type": "function",
      "signature": "0x67ea02d1"
    },
    {
      "constant": true,
      "inputs": [
        {
          "name": "",
          "type": "uint256"
        }
      ],
      "name": "userLands",
      "outputs": [
        {
          "name": "Owner",
          "type": "address"
        },
        {
          "name": "ReraRegisteredNo",
          "type": "string"
        },
        {
          "name": "LandOnRoad",
          "type": "bool"
        },
        {
          "name": "District",
          "type": "string"
        },
        {
          "name": "State",
          "type": "string"
        },
        {
          "name": "Price",
          "type": "uint256"
        }
      ],
      "payable": false,
      "stateMutability": "view",
      "type": "function",
      "signature": "0x9ac4c30a"
    },
    {
      "constant": true,
      "inputs": [
        {
          "name": "",
          "type": "address"
        }
      ],
      "name": "users",
      "outputs": [
        {
          "name": "Name",
          "type": "string"
        },
        {
          "name": "AdharNo",
          "type": "string"
        },
        {
          "name": "PanNo",
          "type": "string"
        },
        {
          "name": "email",
          "type": "string"
        },
        {
          "name": "PhoneNo",
          "type": "string"
        }
      ],
      "payable": false,
      "stateMutability": "view",
      "type": "function",
      "signature": "0xa87430ba"
    },
    {
      "constant": true,
      "inputs": [],
      "name": "landCount",
      "outputs": [
        {
          "name": "",
          "type": "uint256"
        }
      ],
      "payable": false,
      "stateMutability": "view",
      "type": "function",
      "signature": "0xd7bce658"
    },
    {
      "constant": true,
      "inputs": [
        {
          "name": "",
          "type": "uint256"
        }
      ],
      "name": "lands",
      "outputs": [
        {
          "name": "",
          "type": "uint256"
        }
      ],
      "payable": false,
      "stateMutability": "view",
      "type": "function",
      "signature": "0xe261f1e5"
    },
    {
      "constant": true,
      "inputs": [
        {
          "name": "",
          "type": "uint256"
        }
      ],
      "name": "landOwnerChangeRequest",
      "outputs": [
        {
          "name": "",
          "type": "address"
        }
      ],
      "payable": false,
      "stateMutability": "view",
      "type": "function",
      "signature": "0xf3557b16"
    },
    {
      "inputs": [],
      "payable": false,
      "stateMutability": "nonpayable",
      "type": "constructor",
      "signature": "constructor"
    },
    {
      "anonymous": false,
      "inputs": [
        {
          "indexed": false,
          "name": "newUser",
          "type": "address"
        }
      ],
      "name": "addUsers",
      "type": "event",
      "signature": "0x0434372237c7c6e1607b43e83694a9d949c4f83a878fe2091bac214e317b9abd"
    },
    {
      "anonymous": false,
      "inputs": [
        {
          "indexed": false,
          "name": "_landId",
          "type": "uint256"
        },
        {
          "indexed": false,
          "name": "district",
          "type": "string"
        },
        {
          "indexed": false,
          "name": "price",
          "type": "uint256"
        }
      ],
      "name": "addLands",
      "type": "event",
      "signature": "0xac61cc0d5b5a5da3a9e7da87fa1536f1a31f07a3afb675afd20420815737bb06"
    },
    {
      "anonymous": false,
      "inputs": [
        {
          "indexed": false,
          "name": "_reraRegisteredNo",
          "type": "string"
        },
        {
          "indexed": false,
          "name": "_oldOwner",
          "type": "address"
        },
        {
          "indexed": false,
          "name": "_newOwner",
          "type": "address"
        }
      ],
      "name": "changeOwnership",
      "type": "event",
      "signature": "0x14deccef269db3c4bb1759282d98867dd363f941240dcb0dfbe4ab2ac0ef5e89"
    },
    {
      "anonymous": false,
      "inputs": [
        {
          "indexed": false,
          "name": "sender",
          "type": "address"
        },
        {
          "indexed": false,
          "name": "receiver",
          "type": "address"
        },
        {
          "indexed": false,
          "name": "value",
          "type": "uint256"
        }
      ],
      "name": "Transaction",
      "type": "event",
      "signature": "0x7db7852b30fc413c4a90995f03d9f21e64c45d0ddc8324a8ce4c730a051cbf82"
    },
    {
      "constant": false,
      "inputs": [
        {
          "name": "_name",
          "type": "string"
        },
        {
          "name": "_adharNo",
          "type": "string"
        },
        {
          "name": "_panNo",
          "type": "string"
        },
        {
          "name": "_email",
          "type": "string"
        },
        {
          "name": "_phoneNo",
          "type": "string"
        }
      ],
      "name": "addUser",
      "outputs": [
        {
          "name": "",
          "type": "bool"
        }
      ],
      "payable": false,
      "stateMutability": "nonpayable",
      "type": "function",
      "signature": "0xb37a3d82"
    },
    {
      "constant": true,
      "inputs": [
        {
          "name": "_address",
          "type": "address"
        }
      ],
      "name": "getUserDetails",
      "outputs": [
        {
          "name": "",
          "type": "string"
        },
        {
          "name": "",
          "type": "string"
        },
        {
          "name": "",
          "type": "string"
        }
      ],
      "payable": false,
      "stateMutability": "view",
      "type": "function",
      "signature": "0xcc3d967b"
    },
    {
      "constant": true,
      "inputs": [],
      "name": "getAllUsers",
      "outputs": [
        {
          "name": "",
          "type": "address[]"
        },
        {
          "name": "",
          "type": "uint256"
        }
      ],
      "payable": false,
      "stateMutability": "view",
      "type": "function",
      "signature": "0xe2842d79"
    },
    {
      "constant": false,
      "inputs": [
        {
          "name": "_reraRegisteredNo",
          "type": "string"
        },
        {
          "name": "_landOnRoad",
          "type": "bool"
        },
        {
          "name": "_district",
          "type": "string"
        },
        {
          "name": "_state",
          "type": "string"
        },
        {
          "name": "_price",
          "type": "uint256"
        }
      ],
      "name": "addLand",
      "outputs": [
        {
          "name": "",
          "type": "bool"
        }
      ],
      "payable": false,
      "stateMutability": "nonpayable",
      "type": "function",
      "signature": "0x5f09f003"
    },
    {
      "constant": true,
      "inputs": [],
      "name": "getAllLands",
      "outputs": [
        {
          "name": "",
          "type": "uint256[]"
        },
        {
          "name": "",
          "type": "uint256"
        }
      ],
      "payable": false,
      "stateMutability": "view",
      "type": "function",
      "signature": "0xb7b6e543"
    },
    {
      "constant": true,
      "inputs": [
        {
          "name": "_landId",
          "type": "uint256"
        },
        {
          "name": "_reraRegisteredNo",
          "type": "uint256"
        }
      ],
      "name": "getLandDetailsById",
      "outputs": [
        {
          "name": "",
          "type": "address"
        },
        {
          "name": "",
          "type": "string"
        },
        {
          "name": "",
          "type": "bool"
        },
        {
          "name": "",
          "type": "string"
        },
        {
          "name": "",
          "type": "string"
        },
        {
          "name": "",
          "type": "uint256"
        }
      ],
      "payable": false,
      "stateMutability": "view",
      "type": "function",
      "signature": "0xba069417"
    },
    {
      "constant": true,
      "inputs": [],
      "name": "getLandDetails",
      "outputs": [
        {
          "name": "",
          "type": "uint256"
        },
        {
          "name": "",
          "type": "uint256[]"
        }
      ],
      "payable": false,
      "stateMutability": "view",
      "type": "function",
      "signature": "0xce8422b4"
    },
    {
      "constant": true,
      "inputs": [
        {
          "name": "addr",
          "type": "address"
        }
      ],
      "name": "getBalance",
      "outputs": [
        {
          "name": "",
          "type": "uint256"
        }
      ],
      "payable": false,
      "stateMutability": "view",
      "type": "function",
      "signature": "0xf8b2cb4f"
    },
    {
      "constant": false,
      "inputs": [
        {
          "name": "_landId",
          "type": "uint256"
        },
        {
          "name": "_bankLoan",
          "type": "bool"
        }
      ],
      "name": "buyLand",
      "outputs": [],
      "payable": true,
      "stateMutability": "payable",
      "type": "function",
      "signature": "0xc95c3e1f"
    },
    {
      "constant": true,
      "inputs": [
        {
          "name": "_reraRegisteredNo",
          "type": "string"
        }
      ],
      "name": "displayBuyers",
      "outputs": [
        {
          "name": "",
          "type": "uint256"
        },
        {
          "name": "",
          "type": "address[]"
        }
      ],
      "payable": false,
      "stateMutability": "view",
      "type": "function",
      "signature": "0x072c91b5"
    },
    {
      "constant": false,
      "inputs": [
        {
          "name": "_landId",
          "type": "uint256"
        },
        {
          "name": "_newOwner",
          "type": "address"
        }
      ],
      "name": "changeLandOwner",
      "outputs": [],
      "payable": false,
      "stateMutability": "nonpayable",
      "type": "function",
      "signature": "0x6f31f6ad"
    },
    {
      "constant": false,
      "inputs": [
        {
          "name": "_reraRegisteredNo",
          "type": "string"
        },
        {
          "name": "_landId",
          "type": "uint256"
        }
      ],
      "name": "landOwnershipHistory",
      "outputs": [
        {
          "name": "",
          "type": "uint256"
        },
        {
          "name": "",
          "type": "address[]"
        }
      ],
      "payable": false,
      "stateMutability": "nonpayable",
      "type": "function",
      "signature": "0x86880f24"
    },
    {
      "constant": false,
      "inputs": [
        {
          "name": "_landId",
          "type": "uint256"
        },
        {
          "name": "_newPrice",
          "type": "uint256"
        }
      ],
      "name": "changeLandPrice",
      "outputs": [
        {
          "name": "",
          "type": "bool"
        }
      ],
      "payable": false,
      "stateMutability": "nonpayable",
      "type": "function",
      "signature": "0xd9bc25e0"
    },
    {
      "constant": true,
      "inputs": [
        {
          "name": "_priceA",
          "type": "uint256"
        },
        {
          "name": "_priceB",
          "type": "uint256"
        }
      ],
      "name": "getLandByPriceRange",
      "outputs": [
        {
          "name": "",
          "type": "uint256"
        },
        {
          "name": "",
          "type": "uint256[]"
        }
      ],
      "payable": false,
      "stateMutability": "view",
      "type": "function",
      "signature": "0xd1535406"
    }
  ],
  "bytecode": "0x608060405260006002556000600a60006101000a81548160ff0219169083151502179055506000600a60016101000a81548160ff02191690831515021790555034801561004b57600080fd5b50336000806101000a81548173ffffffffffffffffffffffffffffffffffffffff021916908373ffffffffffffffffffffffffffffffffffffffff16021790555061448f8061009b6000396000f3fe608060405260043610610133576000357c0100000000000000000000000000000000000000000000000000000000900463ffffffff168063072c91b51461013857806307c2e4491461025c578063185cc751146102b35780635f09f0031461032257806366b826551461054657806367ea02d1146105c15780636f31f6ad1461063c57806386880f24146106975780639ac4c30a146107c5578063a87430ba14610996578063b37a3d8214610c10578063b7b6e54314610f4c578063ba06941714610fbf578063c95c3e1f1461119a578063cc3d967b146111d4578063ce8422b414611376578063d1535406146113e9578063d7bce6581461148a578063d9bc25e0146114b5578063e261f1e514611512578063e2842d7914611561578063f3557b16146115d4578063f8b2cb4f1461164f575b600080fd5b34801561014457600080fd5b506101fe6004803603602081101561015b57600080fd5b810190808035906020019064010000000081111561017857600080fd5b82018360208201111561018a57600080fd5b803590602001918460018302840111640100000000831117156101ac57600080fd5b91908080601f016020809104026020016040519081016040528093929190818152602001838380828437600081840152601f19601f8201169050808301925050505050505091929192905050506116b4565b6040518083815260200180602001828103825283818151815260200191508051906020019060200280838360005b8381101561024757808201518184015260208101905061022c565b50505050905001935050505060405180910390f35b34801561026857600080fd5b506102716118a2565b604051808273ffffffffffffffffffffffffffffffffffffffff1673ffffffffffffffffffffffffffffffffffffffff16815260200191505060405180910390f35b3480156102bf57600080fd5b5061030c600480360360408110156102d657600080fd5b81019080803573ffffffffffffffffffffffffffffffffffffffff169060200190929190803590602001909291905050506118c8565b6040518082815260200191505060405180910390f35b34801561032e57600080fd5b5061052c600480360360a081101561034557600080fd5b810190808035906020019064010000000081111561036257600080fd5b82018360208201111561037457600080fd5b8035906020019184600183028401116401000000008311171561039657600080fd5b91908080601f016020809104026020016040519081016040528093929190818152602001838380828437600081840152601f19601f8201169050808301925050505050505091929192908035151590602001909291908035906020019064010000000081111561040557600080fd5b82018360208201111561041757600080fd5b8035906020019184600183028401116401000000008311171561043957600080fd5b91908080601f016020809104026020016040519081016040528093929190818152602001838380828437600081840152601f19601f8201169050808301925050505050505091929192908035906020019064010000000081111561049c57600080fd5b8201836020820111156104ae57600080fd5b803590602001918460018302840111640100000000831117156104d057600080fd5b91908080601f016020809104026020016040519081016040528093929190818152602001838380828437600081840152601f19601f820116905080830192505050505050509192919290803590602001909291905050506118ed565b604051808215151515815260200191505060405180910390f35b34801561055257600080fd5b5061057f6004803603602081101561056957600080fd5b8101908080359060200190929190505050611c79565b604051808273ffffffffffffffffffffffffffffffffffffffff1673ffffffffffffffffffffffffffffffffffffffff16815260200191505060405180910390f35b3480156105cd57600080fd5b506105fa600480360360208110156105e457600080fd5b8101908080359060200190929190505050611cb7565b604051808273ffffffffffffffffffffffffffffffffffffffff1673ffffffffffffffffffffffffffffffffffffffff16815260200191505060405180910390f35b34801561064857600080fd5b506106956004803603604081101561065f57600080fd5b8101908080359060200190929190803573ffffffffffffffffffffffffffffffffffffffff169060200190929190505050611cea565b005b3480156106a357600080fd5b50610767600480360360408110156106ba57600080fd5b81019080803590602001906401000000008111156106d757600080fd5b8201836020820111156106e957600080fd5b8035906020019184600183028401116401000000008311171561070b57600080fd5b91908080601f016020809104026020016040519081016040528093929190818152602001838380828437600081840152601f19601f8201169050808301925050505050505091929192908035906020019092919050505061228b565b6040518083815260200180602001828103825283818151815260200191508051906020019060200280838360005b838110156107b0578082015181840152602081019050610795565b50505050905001935050505060405180910390f35b3480156107d157600080fd5b506107fe600480360360208110156107e857600080fd5b8101908080359060200190929190505050612461565b604051808773ffffffffffffffffffffffffffffffffffffffff1673ffffffffffffffffffffffffffffffffffffffff16815260200180602001861515151581526020018060200180602001858152602001848103845289818151815260200191508051906020019080838360005b8381101561088857808201518184015260208101905061086d565b50505050905090810190601f1680156108b55780820380516001836020036101000a031916815260200191505b50848103835287818151815260200191508051906020019080838360005b838110156108ee5780820151818401526020810190506108d3565b50505050905090810190601f16801561091b5780820380516001836020036101000a031916815260200191505b50848103825286818151815260200191508051906020019080838360005b83811015610954578082015181840152602081019050610939565b50505050905090810190601f1680156109815780820380516001836020036101000a031916815260200191505b50995050505050505050505060405180910390f35b3480156109a257600080fd5b506109e5600480360360208110156109b957600080fd5b81019080803573ffffffffffffffffffffffffffffffffffffffff169060200190929190505050612692565b60405180806020018060200180602001806020018060200186810386528b818151815260200191508051906020019080838360005b83811015610a35578082015181840152602081019050610a1a565b50505050905090810190601f168015610a625780820380516001836020036101000a031916815260200191505b5086810385528a818151815260200191508051906020019080838360005b83811015610a9b578082015181840152602081019050610a80565b50505050905090810190601f168015610ac85780820380516001836020036101000a031916815260200191505b50868103845289818151815260200191508051906020019080838360005b83811015610b01578082015181840152602081019050610ae6565b50505050905090810190601f168015610b2e5780820380516001836020036101000a031916815260200191505b50868103835288818151815260200191508051906020019080838360005b83811015610b67578082015181840152602081019050610b4c565b50505050905090810190601f168015610b945780820380516001836020036101000a031916815260200191505b50868103825287818151815260200191508051906020019080838360005b83811015610bcd578082015181840152602081019050610bb2565b50505050905090810190601f168015610bfa5780820380516001836020036101000a031916815260200191505b509a505050505050505050505060405180910390f35b348015610c1c57600080fd5b50610f32600480360360a0811015610c3357600080fd5b8101908080359060200190640100000000811115610c5057600080fd5b820183602082011115610c6257600080fd5b80359060200191846001830284011164010000000083111715610c8457600080fd5b91908080601f016020809104026020016040519081016040528093929190818152602001838380828437600081840152601f19601f82011690508083019250505050505050919291929080359060200190640100000000811115610ce757600080fd5b820183602082011115610cf957600080fd5b80359060200191846001830284011164010000000083111715610d1b57600080fd5b91908080601f016020809104026020016040519081016040528093929190818152602001838380828437600081840152601f19601f82011690508083019250505050505050919291929080359060200190640100000000811115610d7e57600080fd5b820183602082011115610d9057600080fd5b80359060200191846001830284011164010000000083111715610db257600080fd5b91908080601f016020809104026020016040519081016040528093929190818152602001838380828437600081840152601f19601f82011690508083019250505050505050919291929080359060200190640100000000811115610e1557600080fd5b820183602082011115610e2757600080fd5b80359060200191846001830284011164010000000083111715610e4957600080fd5b91908080601f016020809104026020016040519081016040528093929190818152602001838380828437600081840152601f19601f82011690508083019250505050505050919291929080359060200190640100000000811115610eac57600080fd5b820183602082011115610ebe57600080fd5b80359060200191846001830284011164010000000083111715610ee057600080fd5b91908080601f016020809104026020016040519081016040528093929190818152602001838380828437600081840152601f19601f8201169050808301925050505050505091929192905050506129c0565b604051808215151515815260200191505060405180910390f35b348015610f5857600080fd5b50610f61612bc3565b6040518080602001838152602001828103825284818151815260200191508051906020019060200280838360005b83811015610faa578082015181840152602081019050610f8f565b50505050905001935050505060405180910390f35b348015610fcb57600080fd5b5061100260048036036040811015610fe257600080fd5b810190808035906020019092919080359060200190929190505050612c28565b604051808773ffffffffffffffffffffffffffffffffffffffff1673ffffffffffffffffffffffffffffffffffffffff16815260200180602001861515151581526020018060200180602001858152602001848103845289818151815260200191508051906020019080838360005b8381101561108c578082015181840152602081019050611071565b50505050905090810190601f1680156110b95780820380516001836020036101000a031916815260200191505b50848103835287818151815260200191508051906020019080838360005b838110156110f25780820151818401526020810190506110d7565b50505050905090810190601f16801561111f5780820380516001836020036101000a031916815260200191505b50848103825286818151815260200191508051906020019080838360005b8381101561115857808201518184015260208101905061113d565b50505050905090810190601f1680156111855780820380516001836020036101000a031916815260200191505b50995050505050505050505060405180910390f35b6111d2600480360360408110156111b057600080fd5b8101908080359060200190929190803515159060200190929190505050612ed1565b005b3480156111e057600080fd5b50611223600480360360208110156111f757600080fd5b81019080803573ffffffffffffffffffffffffffffffffffffffff169060200190929190505050613418565b60405180806020018060200180602001848103845287818151815260200191508051906020019080838360005b8381101561126b578082015181840152602081019050611250565b50505050905090810190601f1680156112985780820380516001836020036101000a031916815260200191505b50848103835286818151815260200191508051906020019080838360005b838110156112d15780820151818401526020810190506112b6565b50505050905090810190601f1680156112fe5780820380516001836020036101000a031916815260200191505b50848103825285818151815260200191508051906020019080838360005b8381101561133757808201518184015260208101905061131c565b50505050905090810190601f1680156113645780820380516001836020036101000a031916815260200191505b50965050505050505060405180910390f35b34801561138257600080fd5b5061138b6136c4565b6040518083815260200180602001828103825283818151815260200191508051906020019060200280838360005b838110156113d45780820151818401526020810190506113b9565b50505050905001935050505060405180910390f35b3480156113f557600080fd5b5061142c6004803603604081101561140c57600080fd5b810190808035906020019092919080359060200190929190505050613814565b6040518083815260200180602001828103825283818151815260200191508051906020019060200280838360005b8381101561147557808201518184015260208101905061145a565b50505050905001935050505060405180910390f35b34801561149657600080fd5b5061149f61394c565b6040518082815260200191505060405180910390f35b3480156114c157600080fd5b506114f8600480360360408110156114d857600080fd5b810190808035906020019092919080359060200190929190505050613952565b604051808215151515815260200191505060405180910390f35b34801561151e57600080fd5b5061154b6004803603602081101561153557600080fd5b8101908080359060200190929190505050613aeb565b6040518082815260200191505060405180910390f35b34801561156d57600080fd5b50611576613b0e565b6040518080602001838152602001828103825284818151815260200191508051906020019060200280838360005b838110156115bf5780820151818401526020810190506115a4565b50505050905001935050505060405180910390f35b3480156115e057600080fd5b5061160d600480360360208110156115f757600080fd5b8101908080359060200190929190505050613ba9565b604051808273ffffffffffffffffffffffffffffffffffffffff1673ffffffffffffffffffffffffffffffffffffffff16815260200191505060405180910390f35b34801561165b57600080fd5b5061169e6004803603602081101561167257600080fd5b81019080803573ffffffffffffffffffffffffffffffffffffffff169060200190929190505050613bdc565b6040518082815260200191505060405180910390f35b600060608060008090505b6004805490508111151561189457600860006005600060018501815260200190815260200160002060010160405160200180828054600181600116156101000203166002900480156117485780601f10611726576101008083540402835291820191611748565b820191906000526020600020905b815481529060010190602001808311611734575b50509150506040516020818303038152906040528051906020012060019004815260200190815260200160002060009054906101000a900473ffffffffffffffffffffffffffffffffffffffff1673ffffffffffffffffffffffffffffffffffffffff166004828154811015156117bb57fe5b9060005260206000200160009054906101000a900473ffffffffffffffffffffffffffffffffffffffff1673ffffffffffffffffffffffffffffffffffffffff1614156118875760048181548110151561181157fe5b9060005260206000200160009054906101000a900473ffffffffffffffffffffffffffffffffffffffff16828281518110151561184a57fe5b9060200190602002019073ffffffffffffffffffffffffffffffffffffffff16908173ffffffffffffffffffffffffffffffffffffffff16815250505b80806001019150506116bf565b508051819250925050915091565b600160009054906101000a900473ffffffffffffffffffffffffffffffffffffffff1681565b6009602052816000526040600020602052806000526040600020600091509150505481565b600060026000815480929190600101919050555061190a86613bfd565b60001515600a60019054906101000a900460ff16151514151561192c57600080fd5b60c0604051908101604052803373ffffffffffffffffffffffffffffffffffffffff16815260200187815260200186151581526020018581526020018481526020018381525060056000600254815260200190815260200160002060008201518160000160006101000a81548173ffffffffffffffffffffffffffffffffffffffff021916908373ffffffffffffffffffffffffffffffffffffffff16021790555060208201518160010190805190602001906119ea9291906143be565b5060408201518160020160006101000a81548160ff0219169083151502179055506060820151816003019080519060200190611a279291906143be565b506080820151816004019080519060200190611a449291906143be565b5060a082015181600501559050506006866040516020018082805190602001908083835b602083101515611a8d5780518252602082019150602081019050602083039250611a68565b6001836020036101000a038019825116818451168082178552505050505050905001915050604051602081830303815290604052805190602001206001900490806001815401808255809150509060018203906000526020600020016000909192909190915055507fac61cc0d5b5a5da3a9e7da87fa1536f1a31f07a3afb675afd20420815737bb0660025485846040518084815260200180602001838152602001828103825284818151815260200191508051906020019080838360005b83811015611b67578082015181840152602081019050611b4c565b50505050905090810190601f168015611b945780820380516001836020036101000a031916815260200191505b5094505050505060405180910390a13360076000886040516020018082805190602001908083835b602083101515611be15780518252602082019150602081019050602083039250611bbc565b6001836020036101000a0380198251168184511680821785525050505050509050019150506040516020818303038152906040528051906020012060019004815260200190815260200160002060006101000a81548173ffffffffffffffffffffffffffffffffffffffff021916908373ffffffffffffffffffffffffffffffffffffffff1602179055506001905095945050505050565b600481815481101515611c8857fe5b906000526020600020016000915054906101000a900473ffffffffffffffffffffffffffffffffffffffff1681565b60076020528060005260406000206000915054906101000a900473ffffffffffffffffffffffffffffffffffffffff1681565b813373ffffffffffffffffffffffffffffffffffffffff166005600083815260200190815260200160002060000160009054906101000a900473ffffffffffffffffffffffffffffffffffffffff1673ffffffffffffffffffffffffffffffffffffffff16141515611d5b57600080fd5b600073ffffffffffffffffffffffffffffffffffffffff1660086000600560008781526020019081526020016000206001016040516020018082805460018160011615610100020316600290048015611deb5780601f10611dc9576101008083540402835291820191611deb565b820191906000526020600020905b815481529060010190602001808311611dd7575b50509150506040516020818303038152906040528051906020012060019004815260200190815260200160002060009054906101000a900473ffffffffffffffffffffffffffffffffffffffff1673ffffffffffffffffffffffffffffffffffffffff1614151515611e5c57600080fd5b3373ffffffffffffffffffffffffffffffffffffffff166108fc60056000868152602001908152602001600020600501549081150290604051600060405180830381858888f19350505050158015611eb8573d6000803e3d6000fd5b507f7db7852b30fc413c4a90995f03d9f21e64c45d0ddc8324a8ce4c730a051cbf826000809054906101000a900473ffffffffffffffffffffffffffffffffffffffff16336005600087815260200190815260200160002060050154604051808473ffffffffffffffffffffffffffffffffffffffff1673ffffffffffffffffffffffffffffffffffffffff1681526020018373ffffffffffffffffffffffffffffffffffffffff1673ffffffffffffffffffffffffffffffffffffffff168152602001828152602001935050505060405180910390a161207e600560008581526020019081526020016000206001018054600181600116156101000203166002900480601f01602080910402602001604051908101604052809291908181526020018280546001816001161561010002031660029004801561203c5780601f106120115761010080835404028352916020019161203c565b820191906000526020600020905b81548152906001019060200180831161201f57829003601f168201915b50505050506005600086815260200190815260200160002060000160009054906101000a900473ffffffffffffffffffffffffffffffffffffffff1684613d84565b600860006005600086815260200190815260200160002060010160405160200180828054600181600116156101000203166002900480156120f65780601f106120d45761010080835404028352918201916120f6565b820191906000526020600020905b8154815290600101906020018083116120e2575b50509150506040516020818303038152906040528051906020012060019004815260200190815260200160002060009054906101000a900473ffffffffffffffffffffffffffffffffffffffff166005600085815260200190815260200160002060000160006101000a81548173ffffffffffffffffffffffffffffffffffffffff021916908373ffffffffffffffffffffffffffffffffffffffff1602179055506121a183613f56565b60006008600060056000878152602001908152602001600020600101604051602001808280546001816001161561010002031660029004801561221b5780601f106121f957610100808354040283529182019161221b565b820191906000526020600020905b815481529060010190602001808311612207575b50509150506040516020818303038152906040528051906020012060019004815260200190815260200160002060006101000a81548173ffffffffffffffffffffffffffffffffffffffff021916908373ffffffffffffffffffffffffffffffffffffffff160217905550505050565b6000606080600080905060008090505b600680549050811115156124515760056000878152602001908152602001600020600101604051602001808280546001816001161561010002031660029004801561231d5780601f106122fb57610100808354040283529182019161231d565b820191906000526020600020905b815481529060010190602001808311612309575b50509150506040516020818303038152906040528051906020012060019004876040516020018082805190602001908083835b6020831015156123755780518252602082019150602081019050602083039250612350565b6001836020036101000a038019825116818451168082178552505050505050905001915050604051602081830303815290604052805190602001206001900414156124445781806001019250506005600087815260200190815260200160002060000160009054906101000a900473ffffffffffffffffffffffffffffffffffffffff16838281518110151561240757fe5b9060200190602002019073ffffffffffffffffffffffffffffffffffffffff16908173ffffffffffffffffffffffffffffffffffffffff16815250505b808060010191505061229b565b5080829350935050509250929050565b60056020528060005260406000206000915090508060000160009054906101000a900473ffffffffffffffffffffffffffffffffffffffff1690806001018054600181600116156101000203166002900480601f0160208091040260200160405190810160405280929190818152602001828054600181600116156101000203166002900480156125335780601f1061250857610100808354040283529160200191612533565b820191906000526020600020905b81548152906001019060200180831161251657829003601f168201915b5050505050908060020160009054906101000a900460ff1690806003018054600181600116156101000203166002900480601f0160208091040260200160405190810160405280929190818152602001828054600181600116156101000203166002900480156125e45780601f106125b9576101008083540402835291602001916125e4565b820191906000526020600020905b8154815290600101906020018083116125c757829003601f168201915b505050505090806004018054600181600116156101000203166002900480601f0160208091040260200160405190810160405280929190818152602001828054600181600116156101000203166002900480156126825780601f1061265757610100808354040283529160200191612682565b820191906000526020600020905b81548152906001019060200180831161266557829003601f168201915b5050505050908060050154905086565b6003602052806000526040600020600091509050806000018054600181600116156101000203166002900480601f01602080910402602001604051908101604052809291908181526020018280546001816001161561010002031660029004801561273e5780601f106127135761010080835404028352916020019161273e565b820191906000526020600020905b81548152906001019060200180831161272157829003601f168201915b505050505090806001018054600181600116156101000203166002900480601f0160208091040260200160405190810160405280929190818152602001828054600181600116156101000203166002900480156127dc5780601f106127b1576101008083540402835291602001916127dc565b820191906000526020600020905b8154815290600101906020018083116127bf57829003601f168201915b505050505090806002018054600181600116156101000203166002900480601f01602080910402602001604051908101604052809291908181526020018280546001816001161561010002031660029004801561287a5780601f1061284f5761010080835404028352916020019161287a565b820191906000526020600020905b81548152906001019060200180831161285d57829003601f168201915b505050505090806003018054600181600116156101000203166002900480601f0160208091040260200160405190810160405280929190818152602001828054600181600116156101000203166002900480156129185780601f106128ed57610100808354040283529160200191612918565b820191906000526020600020905b8154815290600101906020018083116128fb57829003601f168201915b505050505090806004018054600181600116156101000203166002900480601f0160208091040260200160405190810160405280929190818152602001828054600181600116156101000203166002900480156129b65780601f1061298b576101008083540402835291602001916129b6565b820191906000526020600020905b81548152906001019060200180831161299957829003601f168201915b5050505050905085565b6000803390506129cf866141eb565b60001515600a60009054906101000a900460ff1615151415156129f157600080fd5b60a06040519081016040528088815260200187815260200186815260200185815260200184815250600360008373ffffffffffffffffffffffffffffffffffffffff1673ffffffffffffffffffffffffffffffffffffffff1681526020019081526020016000206000820151816000019080519060200190612a749291906143be565b506020820151816001019080519060200190612a919291906143be565b506040820151816002019080519060200190612aae9291906143be565b506060820151816003019080519060200190612acb9291906143be565b506080820151816004019080519060200190612ae89291906143be565b5090505060043390806001815401808255809150509060018203906000526020600020016000909192909190916101000a81548173ffffffffffffffffffffffffffffffffffffffff021916908373ffffffffffffffffffffffffffffffffffffffff160217905550507f0434372237c7c6e1607b43e83694a9d949c4f83a878fe2091bac214e317b9abd33604051808273ffffffffffffffffffffffffffffffffffffffff1673ffffffffffffffffffffffffffffffffffffffff16815260200191505060405180910390a1600191505095945050505050565b606060006006808054905081805480602002602001604051908101604052809291908181526020018280548015612c1957602002820191906000526020600020905b815481526020019060010190808311612c05575b50505050509150915091509091565b60006060600060608060006005600089815260200190815260200160002060000160009054906101000a900473ffffffffffffffffffffffffffffffffffffffff16600560008a8152602001908152602001600020600101600560008b815260200190815260200160002060020160009054906101000a900460ff16600560008c8152602001908152602001600020600301600560008d8152602001908152602001600020600401600560008e815260200190815260200160002060050154848054600181600116156101000203166002900480601f016020809104026020016040519081016040528092919081815260200182805460018160011615610100020316600290048015612d7c5780601f10612d5157610100808354040283529160200191612d7c565b820191906000526020600020905b815481529060010190602001808311612d5f57829003601f168201915b50505050509450828054600181600116156101000203166002900480601f016020809104026020016040519081016040528092919081815260200182805460018160011615610100020316600290048015612e185780601f10612ded57610100808354040283529160200191612e18565b820191906000526020600020905b815481529060010190602001808311612dfb57829003601f168201915b50505050509250818054600181600116156101000203166002900480601f016020809104026020016040519081016040528092919081815260200182805460018160011615610100020316600290048015612eb45780601f10612e8957610100808354040283529160200191612eb4565b820191906000526020600020905b815481529060010190602001808311612e9757829003601f168201915b505050505091509550955095509550955095509295509295509295565b3373ffffffffffffffffffffffffffffffffffffffff166005600084815260200190815260200160002060000160009054906101000a900473ffffffffffffffffffffffffffffffffffffffff1673ffffffffffffffffffffffffffffffffffffffff1614151515612f4257600080fd5b60011515811515141561320857600160009054906101000a900473ffffffffffffffffffffffffffffffffffffffff1673ffffffffffffffffffffffffffffffffffffffff1663ebb5573460056000858152602001908152602001600020600501546040518263ffffffff167c010000000000000000000000000000000000000000000000000000000002815260040180828152602001915050600060405180830381600087803b158015612ff657600080fd5b505af115801561300a573d6000803e3d6000fd5b505050506005600083815260200190815260200160002060050154600960003373ffffffffffffffffffffffffffffffffffffffff1673ffffffffffffffffffffffffffffffffffffffff16815260200190815260200160002060006005600086815260200190815260200160002060010160405160200180828054600181600116156101000203166002900480156130da5780601f106130b85761010080835404028352918201916130da565b820191906000526020600020905b8154815290600101906020018083116130c6575b505091505060405160208183030381529060405280519060200120600190048152602001908152602001600020819055507f7db7852b30fc413c4a90995f03d9f21e64c45d0ddc8324a8ce4c730a051cbf82600160009054906101000a900473ffffffffffffffffffffffffffffffffffffffff166000809054906101000a900473ffffffffffffffffffffffffffffffffffffffff166005600086815260200190815260200160002060050154604051808473ffffffffffffffffffffffffffffffffffffffff1673ffffffffffffffffffffffffffffffffffffffff1681526020018373ffffffffffffffffffffffffffffffffffffffff1673ffffffffffffffffffffffffffffffffffffffff168152602001828152602001935050505060405180910390a1613330565b61321133613bdc565b60056000848152602001908152602001600020600501541115151561323557600080fd5b60056000838152602001908152602001600020600501543414151561325957600080fd5b7f7db7852b30fc413c4a90995f03d9f21e64c45d0ddc8324a8ce4c730a051cbf82336000809054906101000a900473ffffffffffffffffffffffffffffffffffffffff166005600086815260200190815260200160002060050154604051808473ffffffffffffffffffffffffffffffffffffffff1673ffffffffffffffffffffffffffffffffffffffff1681526020018373ffffffffffffffffffffffffffffffffffffffff1673ffffffffffffffffffffffffffffffffffffffff168152602001828152602001935050505060405180910390a15b33600860006005600086815260200190815260200160002060010160405160200180828054600181600116156101000203166002900480156133a95780601f106133875761010080835404028352918201916133a9565b820191906000526020600020905b815481529060010190602001808311613395575b50509150506040516020818303038152906040528051906020012060019004815260200190815260200160002060006101000a81548173ffffffffffffffffffffffffffffffffffffffff021916908373ffffffffffffffffffffffffffffffffffffffff1602179055505050565b6060806060600360008573ffffffffffffffffffffffffffffffffffffffff1673ffffffffffffffffffffffffffffffffffffffff168152602001908152602001600020600001600360008673ffffffffffffffffffffffffffffffffffffffff1673ffffffffffffffffffffffffffffffffffffffff168152602001908152602001600020600301600360008773ffffffffffffffffffffffffffffffffffffffff1673ffffffffffffffffffffffffffffffffffffffff168152602001908152602001600020600401828054600181600116156101000203166002900480601f0160208091040260200160405190810160405280929190818152602001828054600181600116156101000203166002900480156135785780601f1061354d57610100808354040283529160200191613578565b820191906000526020600020905b81548152906001019060200180831161355b57829003601f168201915b50505050509250818054600181600116156101000203166002900480601f0160208091040260200160405190810160405280929190818152602001828054600181600116156101000203166002900480156136145780601f106135e957610100808354040283529160200191613614565b820191906000526020600020905b8154815290600101906020018083116135f757829003601f168201915b50505050509150808054600181600116156101000203166002900480601f0160208091040260200160405190810160405280929190818152602001828054600181600116156101000203166002900480156136b05780601f10613685576101008083540402835291602001916136b0565b820191906000526020600020905b81548152906001019060200180831161369357829003601f168201915b505050505090509250925092509193909250565b600060608060008090505b60068054905081111515613807573373ffffffffffffffffffffffffffffffffffffffff166005600083815260200190815260200160002060000160009054906101000a900473ffffffffffffffffffffffffffffffffffffffff1673ffffffffffffffffffffffffffffffffffffffff1614156137fa576005600060018301815260200190815260200160002060010160405160200180828054600181600116156101000203166002900480156137be5780601f1061379c5761010080835404028352918201916137be565b820191906000526020600020905b8154815290600101906020018083116137aa575b5050915050604051602081830303815290604052805190602001206001900482828151811015156137eb57fe5b90602001906020020181815250505b80806001019150506136cf565b5080518192509250509091565b600060606000809050606060008090505b6006805490508111151561393c578660056000838152602001908152602001600020600501541015801561386f575085600560008381526020019081526020016000206005015411155b1561392f5782806001019350506005600060018301815260200190815260200160002060010160405160200180828054600181600116156101000203166002900480156138f35780601f106138d15761010080835404028352918201916138f3565b820191906000526020600020905b8154815290600101906020018083116138df575b50509150506040516020818303038152906040528051906020012060019004828281518110151561392057fe5b90602001906020020181815250505b8080600101915050613825565b5081819350935050509250929050565b60025481565b6000823373ffffffffffffffffffffffffffffffffffffffff166005600083815260200190815260200160002060000160009054906101000a900473ffffffffffffffffffffffffffffffffffffffff1673ffffffffffffffffffffffffffffffffffffffff161415156139c557600080fd5b600073ffffffffffffffffffffffffffffffffffffffff1660086000600560008881526020019081526020016000206001016040516020018082805460018160011615610100020316600290048015613a555780601f10613a33576101008083540402835291820191613a55565b820191906000526020600020905b815481529060010190602001808311613a41575b50509150506040516020818303038152906040528051906020012060019004815260200190815260200160002060009054906101000a900473ffffffffffffffffffffffffffffffffffffffff1673ffffffffffffffffffffffffffffffffffffffff16141515613ac557600080fd5b826005600086815260200190815260200160002060050181905550600191505092915050565b600681815481101515613afa57fe5b906000526020600020016000915090505481565b606060006004808054905081805480602002602001604051908101604052809291908181526020018280548015613b9a57602002820191906000526020600020905b8160009054906101000a900473ffffffffffffffffffffffffffffffffffffffff1673ffffffffffffffffffffffffffffffffffffffff1681526020019060010190808311613b50575b50505050509150915091509091565b60086020528060005260406000206000915054906101000a900473ffffffffffffffffffffffffffffffffffffffff1681565b60008173ffffffffffffffffffffffffffffffffffffffff16319050919050565b6000600190505b60068054905081111515613d8057816040516020018082805190602001908083835b602083101515613c4b5780518252602082019150602081019050602083039250613c26565b6001836020036101000a038019825116818451168082178552505050505050905001915050604051602081830303815290604052805190602001206001900460056000600684815481101515613c9d57fe5b906000526020600020015481526020019081526020016000206001016040516020018082805460018160011615610100020316600290048015613d175780601f10613cf5576101008083540402835291820191613d17565b820191906000526020600020905b815481529060010190602001808311613d03575b505091505060405160208183030381529060405280519060200120600190041415613d58576001600a60016101000a81548160ff0219169083151502179055505b6000600a60016101000a81548160ff0219169083151502179055508080600101915050613c04565b5050565b7f14deccef269db3c4bb1759282d98867dd363f941240dcb0dfbe4ab2ac0ef5e8983838360405180806020018473ffffffffffffffffffffffffffffffffffffffff1673ffffffffffffffffffffffffffffffffffffffff1681526020018373ffffffffffffffffffffffffffffffffffffffff1673ffffffffffffffffffffffffffffffffffffffff168152602001828103825285818151815260200191508051906020019080838360005b83811015613e4c578082015181840152602081019050613e31565b50505050905090810190601f168015613e795780820380516001836020036101000a031916815260200191505b5094505050505060405180910390a18060076000856040516020018082805190602001908083835b602083101515613ec65780518252602082019150602081019050602083039250613ea1565b6001836020036101000a0380198251168184511680821785525050505050509050019150506040516020818303038152906040528051906020012060019004815260200190815260200160002060006101000a81548173ffffffffffffffffffffffffffffffffffffffff021916908373ffffffffffffffffffffffffffffffffffffffff160217905550505050565b60008090505b600480549050811115156141e75760086000600560008581526020019081526020016000206001016040516020018082805460018160011615610100020316600290048015613fe25780601f10613fc0576101008083540402835291820191613fe2565b820191906000526020600020905b815481529060010190602001808311613fce575b50509150506040516020818303038152906040528051906020012060019004815260200190815260200160002060009054906101000a900473ffffffffffffffffffffffffffffffffffffffff1673ffffffffffffffffffffffffffffffffffffffff1660048281548110151561405557fe5b9060005260206000200160009054906101000a900473ffffffffffffffffffffffffffffffffffffffff1673ffffffffffffffffffffffffffffffffffffffff1614801561413e57506005600083815260200190815260200160002060000160009054906101000a900473ffffffffffffffffffffffffffffffffffffffff1673ffffffffffffffffffffffffffffffffffffffff166004828154811015156140fa57fe5b9060005260206000200160009054906101000a900473ffffffffffffffffffffffffffffffffffffffff1673ffffffffffffffffffffffffffffffffffffffff1614155b156141da5760048181548110151561415257fe5b9060005260206000200160009054906101000a900473ffffffffffffffffffffffffffffffffffffffff1673ffffffffffffffffffffffffffffffffffffffff166108fc60056000858152602001908152602001600020600501549081150290604051600060405180830381858888f193505050501580156141d8573d6000803e3d6000fd5b505b8080600101915050613f5c565b5050565b6000600190505b600480549050811115156143ba57816040516020018082805190602001908083835b6020831015156142395780518252602082019150602081019050602083039250614214565b6001836020036101000a03801982511681845116808217855250505050505090500191505060405160208183030381529060405280519060200120600190046003600060048481548110151561428b57fe5b9060005260206000200160009054906101000a900473ffffffffffffffffffffffffffffffffffffffff1673ffffffffffffffffffffffffffffffffffffffff1673ffffffffffffffffffffffffffffffffffffffff16815260200190815260200160002060010160405160200180828054600181600116156101000203166002900480156143515780601f1061432f576101008083540402835291820191614351565b820191906000526020600020905b81548152906001019060200180831161433d575b505091505060405160208183030381529060405280519060200120600190041415614392576001600a60006101000a81548160ff0219169083151502179055505b6000600a60006101000a81548160ff02191690831515021790555080806001019150506141f2565b5050565b828054600181600116156101000203166002900490600052602060002090601f016020900481019282601f106143ff57805160ff191683800117855561442d565b8280016001018555821561442d579182015b8281111561442c578251825591602001919060010190614411565b5b50905061443a919061443e565b5090565b61446091905b8082111561445c576000816000905550600101614444565b5090565b9056fea165627a7a72305820441022fda94d8b91ccadca4dc175feaf14db9174fc7f6f6369bb0d24581f02a60029",
  "source": "pragma solidity >=0.4.21 <0.6.0;\n\nimport \"./Bank.sol\";\n\ncontract Property {\n\taddress payable admin;\n\tBank public bankContract;\n\t\n\tstruct User {\n\t\tstring Name;\n\t\tstring AdharNo;\n\t\tstring PanNo;\n\t\tstring email;\n\t\tstring PhoneNo;\n\t}\n\n\tstruct Land {\n\t\taddress Owner;\n\t\tstring ReraRegisteredNo;\n\t\tbool LandOnRoad;\n\t\t//string LandArea;\n\t\tstring District;\n\t\tstring State;\n\t\tuint256 Price;\n\t}\n\n\tuint256 public landCount = 0;\n\n\tmapping (address => User) public users; //user address => User struct\n\taddress[] public userAcc; //stores address of every user added\n\n\tmapping (uint256 => Land) public userLands; //landId(i.e., landCount++) => Land struct\n\tuint256[] public lands; //stores rera registered number of every land added\n\n\t//rera registered number (its hash) => address of the owner requesting to buy the land\n\tmapping (uint256 => address) public landOwnerHistory;\n\n\t//rera registered number (its hash) => address of the owners\n\tmapping (uint256 => address) public landOwnerChangeRequest;\n\n\t//buyer address => loan amount\n\tmapping (address => mapping (uint256 => uint256)) public loan;\n\n\tevent addUsers (address newUser);\n\n\tevent addLands (\n\t\tuint256 _landId,\n\t\tstring district,\n\t\tuint256 price\n\t);\n\n\tevent changeOwnership (\n\t\tstring _reraRegisteredNo, \n\t\taddress _oldOwner,\n\t\taddress _newOwner\n\t);\n\n\tevent Transaction (\n\t\taddress sender,\n\t\taddress receiver,\n\t\tuint256 value\n\t);\n\n\tmodifier onlyOwner(uint256 _landId) { \n\t \trequire (userLands[_landId].Owner == msg.sender); \n\t\t_; \n\t}\n\n\tmodifier verifiedByAdmin() { \n\t\trequire (msg.sender == admin); \n\t\t_; \n\t}\n\t\n\tconstructor () public {\n\t\tadmin = msg.sender;\n\t}\n\n\tbool duplicateUser = false;\n\n\t//adds msg.sender as the new user\n\tfunction addUser (string memory _name, string memory _adharNo, string memory _panNo, string memory _email, string memory _phoneNo) public returns(bool) {\n\t\taddress _address = msg.sender;\n\t\t//checks for double registration\n\t\tcheckForDuplicateUser (_adharNo);\n\t\t//procced only if the requested adahr number is not registered earlier\n\t\trequire (duplicateUser == false);\n\t\t//data is mapped in the users mapping\n\t\tusers[_address] = User(_name, _adharNo, _panNo, _email, _phoneNo);\n\t\t//address is stored in the user addresses array, userAcc\n\t\tuserAcc.push(msg.sender);\n\t\t//shout out the address of the new user added\n\t\temit addUsers(msg.sender);\n\t\treturn true;\n\t}\n\n\t//checks the requested adhar number to avoid double registration of a single user\n\tfunction checkForDuplicateUser (string memory _adharNo) private {\n\t\tfor(uint256 i=1; i<=userAcc.length; i++) {\n\t\t\t//checks if the aadhar number of the new requesting user is similar to any already registered user\n\t\t\t//eliminates double registration of the same individual\n\t\t\tif(uint(keccak256(abi.encodePacked(users[userAcc[i]].AdharNo))) == uint(keccak256(abi.encodePacked(_adharNo)))) {\n\t\t\t\t\"User ID Already Exists!\";\n\t\t\t\tduplicateUser = true;\n\t\t\t}\n\t\t\tduplicateUser = false;\n\t\t}\n\t}\n\t\n\t//users can be searched via their addresses\n\t//one user returned at a time\n\tfunction getUserDetails (address _address) public view returns(string memory, string memory, string memory) {\n\t\treturn (users[_address].Name, users[_address].email, users[_address].PhoneNo);\n\t}\n\n\t//returns the user count and all the addresses of the users there in the platform\n\tfunction getAllUsers () public view returns (address[] memory, uint256) {\n\t\treturn (userAcc, userAcc.length);\n\t}\n\n\tbool duplicateLand = false;\n\n\t//user can add new lands by calling this function, becoming the owner of the land\n\tfunction addLand (string memory _reraRegisteredNo, bool _landOnRoad, string memory _district, string memory _state, uint256 _price) public returns (bool) {\n\t\tlandCount++;\n\t\tcheckForDuplicateLand (_reraRegisteredNo);\n\t\trequire (duplicateLand == false);\n\t\t//data is mapped to the userLands mapping, landId/landCount being the key\n\t\tuserLands[landCount] = Land(msg.sender, _reraRegisteredNo, _landOnRoad, _district, _state, _price);\n\t\t//store the hash of the rera registered number in the lands array\n\t\tlands.push(uint(keccak256(abi.encodePacked(_reraRegisteredNo))));\n\t\t//shout out for every new land added\n\t\temit addLands(landCount, _district, _price);\n\t\t//address of the owner mapped with the hash of the rera registered number (key)\n\t\t//this mapping has the history of the owners of a land\n\t\tlandOwnerHistory[uint(keccak256(abi.encodePacked(_reraRegisteredNo)))] = msg.sender;\n\t\treturn true;\n\t}\n\n\tfunction checkForDuplicateLand (string memory _reraRegisteredNo) private {\n\t\tfor(uint256 i = 1; i <= lands.length; i++) {\n\t\t\t//checks if rera registered number of the new land requested is similar to any of the previous lands\n\t\t\tif(uint(keccak256(abi.encodePacked(userLands[lands[i]].ReraRegisteredNo))) == uint(keccak256(abi.encodePacked(_reraRegisteredNo)))) {\n\t\t\t\t\"Land Already Exists!\";\n\t\t\t\tduplicateLand = true;\n\t\t\t}\n\t\t\tduplicateLand = false;\n\t\t}\n\t}\n\n\t//returns the total land count and the array 'lands' giving the hash of all the rera registered numbers\n\tfunction getAllLands () public view returns (uint256[] memory, uint256) {\n\t\treturn (lands, lands.length);\n\t}\n\n\t//any land can be searched using the landId and rera registered number of the land\n\tfunction getLandDetailsById (uint256 _landId, uint256 _reraRegisteredNo) public view returns(address, string memory, bool, string memory, string memory, uint256) {\n\t\treturn (userLands[_landId].Owner, userLands[_landId].ReraRegisteredNo, userLands[_landId].LandOnRoad, userLands[_landId].District, userLands[_landId].State, userLands[_landId].Price);\n\t}\n\n\t//returns all the lands (number of lands and hash of the rera registered number) owned by the msg.sender\n\tfunction getLandDetails () public view returns(uint256, uint[] memory) {\n\t\tuint[] memory landIds;\n\t\tfor(uint i = 0; i <= lands.length; i++){\n\t\t\tif(userLands[i].Owner == msg.sender){\n\t\t\t\tlandIds[i] = uint(keccak256(abi.encodePacked(userLands[i+1].ReraRegisteredNo)));\n\t\t\t}\n\t\t}\n\t\treturn (landIds.length, landIds);\n\t}\n\n\t//gets the balance of an address\n\tfunction getBalance(address addr) public view returns(uint256) {\n        return addr.balance;\n    }\n\n\t//address(0) = 0x0 => is used to check if the address is empty \n\tfunction buyLand (uint256 _landId, bool _bankLoan) public payable {\n\t\t//new owner should not be the same old owner\n\t\trequire (userLands[_landId].Owner != msg.sender);\n\t\t//no ownership change request must exist\n\t\t//require (landOwnerChangeRequest[uint(keccak256(abi.encodePacked(userLands[_landId].ReraRegisteredNo)))] == address(0));\n\t\tif (_bankLoan == true) { \n\t\t\t\"Tell the bank to pay\";\n\t\t\t//calls for the transferLoan function in the Bank contract which transfers the amount\n\t\t\tbankContract.transferLoan(userLands[_landId].Price); \n\t\t\tloan[msg.sender][uint(keccak256(abi.encodePacked(userLands[_landId].ReraRegisteredNo)))] = userLands[_landId].Price;\n\t\t\temit Transaction (address(bankContract), admin, userLands[_landId].Price);\n\t\t}\n\t\telse {\n\t\t\t//buyer must have enuf balance to pay to the seller\n\t\t\t//msg.value will be send to the contract address\n\t\t\trequire (userLands[_landId].Price  <= getBalance(msg.sender));\n\t\t\trequire (msg.value == userLands[_landId].Price);\n\t\t\temit Transaction (msg.sender, admin, userLands[_landId].Price);\n\t\t}\n\t\t//ownership change is requested in the mapping\n\t\tlandOwnerChangeRequest[uint(keccak256(abi.encodePacked(userLands[_landId].ReraRegisteredNo)))] = msg.sender;\n\t}\n\n\t//returns the addresses of all the buyers interested in buying a particular land\n\tfunction displayBuyers (string memory _reraRegisteredNo) public view returns (uint256, address[] memory) {\n\t\taddress[] memory buyers;\n\t\tfor (uint i = 0; i <= userAcc.length; i++) {\n\t\t\t//checks for the user address requested for buying that particular land\n\t\t\tif (userAcc[i] == landOwnerChangeRequest[uint(keccak256(abi.encodePacked(userLands[i+1].ReraRegisteredNo)))]) {\n\t\t\t\tbuyers[i] = userAcc[i];\n\t\t\t} \n\t\t}\n\t\treturn (buyers.length, buyers);\n\t}\n\n\tfunction changeLandOwner (uint256 _landId, address _newOwner) onlyOwner(_landId) public {\n\t\t//ownership change request must exist\n\t\trequire (landOwnerChangeRequest[uint(keccak256(abi.encodePacked(userLands[_landId].ReraRegisteredNo)))] != address(0));\n\t\t//transfer coins from contract to seller\n\t\t//uint160 is used to explicitly convert the address as payable\n\t\taddress(uint160(msg.sender)).transfer(userLands[_landId].Price);\n\t\temit Transaction (admin, msg.sender, userLands[_landId].Price);\n\t\t//admin, i.e., the government approves the change of ownership;\n\t\tgovSignOwnership(userLands[_landId].ReraRegisteredNo, userLands[_landId].Owner, _newOwner);\n\t\t//transfers the ownership to the buyer\n\t\tuserLands[_landId].Owner = landOwnerChangeRequest[uint(keccak256(abi.encodePacked(userLands[_landId].ReraRegisteredNo)))];\n\t\trefund(_landId);\n\t\t//empty the owner change request\n\t\tlandOwnerChangeRequest[uint(keccak256(abi.encodePacked(userLands[_landId].ReraRegisteredNo)))] = address(0);\t\n\t}\n\n\t//approves the land ownership change and stores the ownership history in the mapping\n\tfunction govSignOwnership (string memory _reraRegisteredNo, address _owner, address _newOwner) private {\n\t\temit changeOwnership (_reraRegisteredNo, _owner, _newOwner);\n\t\tlandOwnerHistory[uint(keccak256(abi.encodePacked(_reraRegisteredNo)))] = _newOwner;\n\t}\n\n\tfunction refund (uint256 _landId) private {\n\t\t//refunds the money to all the other buyers who requested to buy the land\n\t\tfor (uint i = 0; i <= userAcc.length; i++) {\n\t\t\t//checks for the user address requested for buying that particular land\n\t\t\tif (userAcc[i] == landOwnerChangeRequest[uint(keccak256(abi.encodePacked(userLands[_landId].ReraRegisteredNo)))] && userAcc[i] != userLands[_landId].Owner) {\n\t\t\t\taddress(uint160(userAcc[i])).transfer(userLands[_landId].Price);\n\t\t\t} \n\t\t}\n\t}\n\n\t//returns the Ownership history of a land\n\t//returns the number of previous owners and their addresses\n\tfunction landOwnershipHistory (string memory _reraRegisteredNo, uint256 _landId) public returns (uint256, address[] memory) {\n\t\taddress[] memory history;\n\t\tuint256 count = 0;\n\t\tfor (uint256 i = 0; i <= lands.length; i++) {\n\t\t\tif (uint(keccak256(abi.encodePacked(_reraRegisteredNo))) == uint(keccak256(abi.encodePacked(userLands[_landId].ReraRegisteredNo)))) {\n\t\t\t\tcount++;\n\t\t\t\thistory[i] = userLands[_landId].Owner;\n\t\t\t}\t\t\n\t\t}\n\t\treturn (count, history);\n\t}\n\n\t//only the land owner can call this function if he wants to change the price of the land\n\tfunction changeLandPrice (uint256 _landId, uint256 _newPrice) onlyOwner(_landId) public returns(bool) {\n\t \t//no ownership change request must exist\n\t \trequire (landOwnerChangeRequest[uint(keccak256(abi.encodePacked(userLands[_landId].ReraRegisteredNo)))] == address(0));\n\t \tuserLands[_landId].Price = _newPrice;\n\t \treturn true;\n\t }\n\n\tfunction getLandByPriceRange (uint256 _priceA, uint256 _priceB) public view returns(uint256, uint[] memory) {\n\t\tuint256 count = 0;\n\t\tuint[] memory landIds;\n\t\tfor (uint256 i = 0; i <= lands.length; i++) { \n\t\t\tif (userLands[i].Price >= _priceA && userLands[i].Price <= _priceB) {\n\t\t\t\tcount++;\n\t\t\t\tlandIds[i] = uint(keccak256(abi.encodePacked(userLands[i+1].ReraRegisteredNo)));\n\t\t\t}\n\t\t}\n\t\treturn (count, landIds);\n\t}\t\n\n\t/*function getLandByLandArea (string memory _landArea) public view returns(uint256) {\n\t\tuint256 count = 0;\n\t\tfor (uint256 i = 1; i <= lands.length; i++) { \n\t\t\tif (uint(keccak256(abi.encodePacked(userLands[i].LandArea))) == uint(keccak256(abi.encodePacked(_landArea)))) {\n\t\t\t\tcount++;\n\t\t\t\t//return (userLands[i].Owner, userLands[i].ReraRegisteredNo, userLands[i].LandOnRoad, userLands[i].LandArea, userLands[i].District, userLands[i].State, userLands[i].Price);\n\t\t\t}\n\t\t}\n\t\treturn count;\n\t}*/\n\n\t/*function getLandByDistrict (string memory _district) public view returns(uint256) {\n\t\tuint256 count;\n\t\tfor (uint256 i = 1; i <= lands.length; i++) { \n\t\t\tif (uint(keccak256(abi.encodePacked(userLands[i].District))) == uint(keccak256(abi.encodePacked(_district)))) {\n\t\t\t\tcount++;\n\t\t\t\t//return (userLands[i].Owner, userLands[i].ReraRegisteredNo, userLands[i].LandOnRoad, userLands[i].LandArea, userLands[i].District, userLands[i].State, userLands[i].Price);\n\t\t\t}\n\t\t}\n\t\treturn count;\n\t}*/\n\n\t/*function getLandByLandOnRoad (uint256[] lands) public view returns(uint256/*, uint256[]) {\n\t\tuint256 count;\n\t\tfor (uint256 i = 1; i <= lands.length; i++) { \n\t\t\tif (userLands[i].LandOnRoad == true) {\n\t\t\t\tcount++;\n\t\t\t\t//return (userLands[i].Owner, userLands[i].ReraRegisteredNo, userLands[i].LandOnRoad, userLands[i].LandArea, userLands[i].District, userLands[i].State, userLands[i].Price);\n\t\t\t}\n\t\t}\n\t\treturn count;\n\t}*/\n\t\n}\n//uint(keccak256(abi.encodePacked(land.LandOnRoad)))\n\n",
  "sourcePath": "F:/Blockchain/Projects/FinalYearProject/LandRegistry/contracts/Property.sol",
  "compiler": {
    "name": "solc",
    "version": "0.5.0+commit.1d4f565a.Emscripten.clang"
  },
  "schemaVersion": "3.0.6",
  "updatedAt": "2019-05-13T04:08:27.284Z",
  "devdoc": {
    "methods": {}
  },
  "userdoc": {
    "methods": {}
  }
}