{
  "contractName": "Property",
  "abi": [
    {
      "constant": true,
      "inputs": [
        {
          "name": "",
          "type": "uint256"
        }
      ],
      "name": "banks",
      "outputs": [
        {
          "name": "",
          "type": "address"
        }
      ],
      "payable": false,
      "stateMutability": "view",
      "type": "function",
      "signature": "0x0085ae2b"
    },
    {
      "constant": true,
      "inputs": [
        {
          "name": "",
          "type": "uint256"
        }
      ],
      "name": "landOwnerChange",
      "outputs": [
        {
          "name": "",
          "type": "address"
        }
      ],
      "payable": false,
      "stateMutability": "view",
      "type": "function",
      "signature": "0x193362b6"
    },
    {
      "constant": true,
      "inputs": [
        {
          "name": "",
          "type": "uint256"
        }
      ],
      "name": "userAcc",
      "outputs": [
        {
          "name": "",
          "type": "address"
        }
      ],
      "payable": false,
      "stateMutability": "view",
      "type": "function",
      "signature": "0x66b82655"
    },
    {
      "constant": true,
      "inputs": [
        {
          "name": "",
          "type": "uint256"
        }
      ],
      "name": "landOwnerHistory",
      "outputs": [
        {
          "name": "",
          "type": "address"
        }
      ],
      "payable": false,
      "stateMutability": "view",
      "type": "function",
      "signature": "0x67ea02d1"
    },
    {
      "constant": true,
      "inputs": [
        {
          "name": "",
          "type": "uint256"
        }
      ],
      "name": "bank",
      "outputs": [
        {
          "name": "bankName",
          "type": "string"
        },
        {
          "name": "addr",
          "type": "address"
        }
      ],
      "payable": false,
      "stateMutability": "view",
      "type": "function",
      "signature": "0x771f2476"
    },
    {
      "constant": true,
      "inputs": [
        {
          "name": "",
          "type": "uint256"
        }
      ],
      "name": "userLands",
      "outputs": [
        {
          "name": "Owner",
          "type": "address"
        },
        {
          "name": "landId",
          "type": "uint256"
        },
        {
          "name": "ReraRegisteredNo",
          "type": "string"
        },
        {
          "name": "LandOnRoad",
          "type": "bool"
        },
        {
          "name": "LandArea",
          "type": "string"
        },
        {
          "name": "District",
          "type": "string"
        },
        {
          "name": "State",
          "type": "string"
        },
        {
          "name": "Price",
          "type": "uint256"
        }
      ],
      "payable": false,
      "stateMutability": "view",
      "type": "function",
      "signature": "0x9ac4c30a"
    },
    {
      "constant": true,
      "inputs": [
        {
          "name": "",
          "type": "address"
        }
      ],
      "name": "users",
      "outputs": [
        {
          "name": "Name",
          "type": "string"
        },
        {
          "name": "AdharNo",
          "type": "string"
        },
        {
          "name": "PanNo",
          "type": "string"
        },
        {
          "name": "email",
          "type": "string"
        },
        {
          "name": "PhoneNo",
          "type": "string"
        }
      ],
      "payable": false,
      "stateMutability": "view",
      "type": "function",
      "signature": "0xa87430ba"
    },
    {
      "constant": true,
      "inputs": [],
      "name": "landCount",
      "outputs": [
        {
          "name": "",
          "type": "uint256"
        }
      ],
      "payable": false,
      "stateMutability": "view",
      "type": "function",
      "signature": "0xd7bce658"
    },
    {
      "constant": true,
      "inputs": [],
      "name": "Rera",
      "outputs": [
        {
          "name": "",
          "type": "address"
        }
      ],
      "payable": false,
      "stateMutability": "view",
      "type": "function",
      "signature": "0xdcbfb397"
    },
    {
      "constant": true,
      "inputs": [
        {
          "name": "",
          "type": "uint256"
        }
      ],
      "name": "lands",
      "outputs": [
        {
          "name": "",
          "type": "uint256"
        }
      ],
      "payable": false,
      "stateMutability": "view",
      "type": "function",
      "signature": "0xe261f1e5"
    },
    {
      "constant": true,
      "inputs": [],
      "name": "admin",
      "outputs": [
        {
          "name": "",
          "type": "address"
        }
      ],
      "payable": false,
      "stateMutability": "view",
      "type": "function",
      "signature": "0xf851a440"
    },
    {
      "constant": true,
      "inputs": [
        {
          "name": "",
          "type": "uint256"
        }
      ],
      "name": "verifiedLands",
      "outputs": [
        {
          "name": "",
          "type": "bool"
        }
      ],
      "payable": false,
      "stateMutability": "view",
      "type": "function",
      "signature": "0xfd5749af"
    },
    {
      "inputs": [],
      "payable": false,
      "stateMutability": "nonpayable",
      "type": "constructor",
      "signature": "constructor"
    },
    {
      "anonymous": false,
      "inputs": [
        {
          "indexed": false,
          "name": "newUser",
          "type": "address"
        }
      ],
      "name": "addUsers",
      "type": "event",
      "signature": "0x0434372237c7c6e1607b43e83694a9d949c4f83a878fe2091bac214e317b9abd"
    },
    {
      "anonymous": false,
      "inputs": [
        {
          "indexed": true,
          "name": "_landId",
          "type": "uint256"
        }
      ],
      "name": "addLands",
      "type": "event",
      "signature": "0xea10151a11e055d42149936dd8e94d3e25915236a4d88c263f4e518329f1cfe8"
    },
    {
      "anonymous": false,
      "inputs": [
        {
          "indexed": true,
          "name": "_landId",
          "type": "uint256"
        },
        {
          "indexed": false,
          "name": "_owner",
          "type": "address"
        }
      ],
      "name": "changeOwnership",
      "type": "event",
      "signature": "0x89b3887e350d982bade9287059c60049ffe2af04651779f4c8f42dde45fd4122"
    },
    {
      "constant": false,
      "inputs": [
        {
          "name": "_name",
          "type": "string"
        },
        {
          "name": "_adharNo",
          "type": "string"
        },
        {
          "name": "_panNo",
          "type": "string"
        },
        {
          "name": "_email",
          "type": "string"
        },
        {
          "name": "_phoneNo",
          "type": "string"
        }
      ],
      "name": "addUser",
      "outputs": [
        {
          "name": "",
          "type": "bool"
        }
      ],
      "payable": false,
      "stateMutability": "nonpayable",
      "type": "function",
      "signature": "0xb37a3d82"
    },
    {
      "constant": true,
      "inputs": [],
      "name": "getUserCount",
      "outputs": [
        {
          "name": "",
          "type": "uint256"
        }
      ],
      "payable": false,
      "stateMutability": "view",
      "type": "function",
      "signature": "0xb5cb15f7"
    },
    {
      "constant": true,
      "inputs": [
        {
          "name": "_address",
          "type": "address"
        }
      ],
      "name": "getUserDetails",
      "outputs": [
        {
          "name": "",
          "type": "string"
        },
        {
          "name": "",
          "type": "string"
        },
        {
          "name": "",
          "type": "string"
        }
      ],
      "payable": false,
      "stateMutability": "view",
      "type": "function",
      "signature": "0xcc3d967b"
    },
    {
      "constant": true,
      "inputs": [],
      "name": "getAllUsers",
      "outputs": [
        {
          "name": "",
          "type": "address[]"
        },
        {
          "name": "",
          "type": "uint256"
        }
      ],
      "payable": false,
      "stateMutability": "view",
      "type": "function",
      "signature": "0xe2842d79"
    },
    {
      "constant": false,
      "inputs": [
        {
          "name": "_addr",
          "type": "address"
        },
        {
          "name": "_name",
          "type": "string"
        }
      ],
      "name": "addBank",
      "outputs": [
        {
          "name": "",
          "type": "bool"
        }
      ],
      "payable": false,
      "stateMutability": "nonpayable",
      "type": "function",
      "signature": "0x8c438908"
    },
    {
      "constant": false,
      "inputs": [
        {
          "name": "_reraRegisteredNo",
          "type": "string"
        },
        {
          "name": "_landOnRoad",
          "type": "bool"
        },
        {
          "name": "_landArea",
          "type": "string"
        },
        {
          "name": "_district",
          "type": "string"
        },
        {
          "name": "_state",
          "type": "string"
        },
        {
          "name": "_price",
          "type": "uint256"
        }
      ],
      "name": "addLand",
      "outputs": [
        {
          "name": "",
          "type": "bool"
        }
      ],
      "payable": false,
      "stateMutability": "nonpayable",
      "type": "function",
      "signature": "0x12a45723"
    },
    {
      "constant": false,
      "inputs": [
        {
          "name": "_landId",
          "type": "uint256"
        }
      ],
      "name": "approveLand",
      "outputs": [
        {
          "name": "",
          "type": "bool"
        }
      ],
      "payable": false,
      "stateMutability": "nonpayable",
      "type": "function",
      "signature": "0x38c887b2"
    },
    {
      "constant": true,
      "inputs": [],
      "name": "getLandCount",
      "outputs": [
        {
          "name": "",
          "type": "uint256"
        }
      ],
      "payable": false,
      "stateMutability": "view",
      "type": "function",
      "signature": "0x5ceaa769"
    },
    {
      "constant": false,
      "inputs": [
        {
          "name": "_landId",
          "type": "uint256"
        },
        {
          "name": "_bankLoan",
          "type": "bool"
        },
        {
          "name": "_bankAddr",
          "type": "address"
        }
      ],
      "name": "buyLand",
      "outputs": [],
      "payable": true,
      "stateMutability": "payable",
      "type": "function",
      "signature": "0x659594a1"
    },
    {
      "constant": false,
      "inputs": [
        {
          "name": "_landId",
          "type": "uint256"
        },
        {
          "name": "_newOwner",
          "type": "address"
        }
      ],
      "name": "ChangeLandOwner",
      "outputs": [],
      "payable": false,
      "stateMutability": "nonpayable",
      "type": "function",
      "signature": "0x39be8fc4"
    },
    {
      "constant": false,
      "inputs": [
        {
          "name": "_bankAddr",
          "type": "address"
        },
        {
          "name": "_value",
          "type": "uint256"
        },
        {
          "name": "_user",
          "type": "address"
        }
      ],
      "name": "transferFromBank",
      "outputs": [],
      "payable": true,
      "stateMutability": "payable",
      "type": "function",
      "signature": "0xf8c6feac"
    },
    {
      "constant": false,
      "inputs": [
        {
          "name": "_landId",
          "type": "uint256"
        },
        {
          "name": "_owner",
          "type": "address"
        }
      ],
      "name": "approveOwnership",
      "outputs": [
        {
          "name": "",
          "type": "bool"
        }
      ],
      "payable": false,
      "stateMutability": "nonpayable",
      "type": "function",
      "signature": "0xab4b1d79"
    },
    {
      "constant": false,
      "inputs": [
        {
          "name": "_landId",
          "type": "uint256"
        }
      ],
      "name": "landOwnershipHistory",
      "outputs": [
        {
          "name": "",
          "type": "uint256"
        },
        {
          "name": "",
          "type": "address[]"
        }
      ],
      "payable": false,
      "stateMutability": "nonpayable",
      "type": "function",
      "signature": "0xc89c3215"
    },
    {
      "constant": false,
      "inputs": [
        {
          "name": "_landId",
          "type": "uint256"
        },
        {
          "name": "_newPrice",
          "type": "uint256"
        }
      ],
      "name": "changeLandPrice",
      "outputs": [
        {
          "name": "",
          "type": "bool"
        }
      ],
      "payable": false,
      "stateMutability": "nonpayable",
      "type": "function",
      "signature": "0xd9bc25e0"
    },
    {
      "constant": true,
      "inputs": [
        {
          "name": "_landId",
          "type": "uint256"
        }
      ],
      "name": "getLandDetailsById",
      "outputs": [
        {
          "name": "",
          "type": "address"
        },
        {
          "name": "",
          "type": "string"
        },
        {
          "name": "",
          "type": "bool"
        },
        {
          "name": "",
          "type": "string"
        },
        {
          "name": "",
          "type": "string"
        },
        {
          "name": "",
          "type": "string"
        },
        {
          "name": "",
          "type": "uint256"
        }
      ],
      "payable": false,
      "stateMutability": "view",
      "type": "function",
      "signature": "0xef55fcdd"
    },
    {
      "constant": true,
      "inputs": [],
      "name": "getAllLands",
      "outputs": [
        {
          "name": "",
          "type": "uint256[]"
        },
        {
          "name": "",
          "type": "uint256"
        }
      ],
      "payable": false,
      "stateMutability": "view",
      "type": "function",
      "signature": "0xb7b6e543"
    },
    {
      "constant": true,
      "inputs": [],
      "name": "getLandDetails",
      "outputs": [
        {
          "name": "",
          "type": "uint256"
        },
        {
          "name": "",
          "type": "uint256[]"
        }
      ],
      "payable": false,
      "stateMutability": "view",
      "type": "function",
      "signature": "0xce8422b4"
    },
    {
      "constant": true,
      "inputs": [
        {
          "name": "_price",
          "type": "uint256"
        }
      ],
      "name": "getLandByPrice",
      "outputs": [
        {
          "name": "",
          "type": "uint256"
        },
        {
          "name": "",
          "type": "uint256[]"
        }
      ],
      "payable": false,
      "stateMutability": "view",
      "type": "function",
      "signature": "0x10e1b7af"
    }
  ],
  "bytecode": "0x608060405260006002556000600355600060045534801561001f57600080fd5b50336000806101000a81548173ffffffffffffffffffffffffffffffffffffffff021916908373ffffffffffffffffffffffffffffffffffffffff1602179055506002600160006101000a81548173ffffffffffffffffffffffffffffffffffffffff021916908373ffffffffffffffffffffffffffffffffffffffff160217905550613eff806100b16000396000f3fe60806040526004361061017f576000357c0100000000000000000000000000000000000000000000000000000000900463ffffffff16806285ae2b1461018457806310e1b7af146101ff57806312a4572314610296578063193362b61461055157806338c887b2146105cc57806339be8fc41461061f5780635ceaa7691461067a578063659594a1146106a557806366b82655146106ff57806367ea02d11461077a578063771f2476146107f55780638c438908146108dc5780639ac4c30a146109dc578063a87430ba14610c20578063ab4b1d7914610e9a578063b37a3d8214610f0d578063b5cb15f714611249578063b7b6e54314611274578063c89c3215146112e7578063cc3d967b1461137e578063ce8422b414611520578063d7bce65814611593578063d9bc25e0146115be578063dcbfb3971461161b578063e261f1e514611672578063e2842d79146116c1578063ef55fcdd14611734578063f851a44014611971578063f8c6feac146119c8578063fd5749af14611a36575b600080fd5b34801561019057600080fd5b506101bd600480360360208110156101a757600080fd5b8101908080359060200190929190505050611a89565b604051808273ffffffffffffffffffffffffffffffffffffffff1673ffffffffffffffffffffffffffffffffffffffff16815260200191505060405180910390f35b34801561020b57600080fd5b506102386004803603602081101561022257600080fd5b8101908080359060200190929190505050611ac7565b6040518083815260200180602001828103825283818151815260200191508051906020019060200280838360005b83811015610281578082015181840152602081019050610266565b50505050905001935050505060405180910390f35b3480156102a257600080fd5b50610537600480360360c08110156102b957600080fd5b81019080803590602001906401000000008111156102d657600080fd5b8201836020820111156102e857600080fd5b8035906020019184600183028401116401000000008311171561030a57600080fd5b91908080601f016020809104026020016040519081016040528093929190818152602001838380828437600081840152601f19601f8201169050808301925050505050505091929192908035151590602001909291908035906020019064010000000081111561037957600080fd5b82018360208201111561038b57600080fd5b803590602001918460018302840111640100000000831117156103ad57600080fd5b91908080601f016020809104026020016040519081016040528093929190818152602001838380828437600081840152601f19601f8201169050808301925050505050505091929192908035906020019064010000000081111561041057600080fd5b82018360208201111561042257600080fd5b8035906020019184600183028401116401000000008311171561044457600080fd5b91908080601f016020809104026020016040519081016040528093929190818152602001838380828437600081840152601f19601f820116905080830192505050505050509192919290803590602001906401000000008111156104a757600080fd5b8201836020820111156104b957600080fd5b803590602001918460018302840111640100000000831117156104db57600080fd5b91908080601f016020809104026020016040519081016040528093929190818152602001838380828437600081840152601f19601f82011690508083019250505050505050919291929080359060200190929190505050611b5c565b604051808215151515815260200191505060405180910390f35b34801561055d57600080fd5b5061058a6004803603602081101561057457600080fd5b8101908080359060200190929190505050611d87565b604051808273ffffffffffffffffffffffffffffffffffffffff1673ffffffffffffffffffffffffffffffffffffffff16815260200191505060405180910390f35b3480156105d857600080fd5b50610605600480360360208110156105ef57600080fd5b8101908080359060200190929190505050611dba565b604051808215151515815260200191505060405180910390f35b34801561062b57600080fd5b506106786004803603604081101561064257600080fd5b8101908080359060200190929190803573ffffffffffffffffffffffffffffffffffffffff169060200190929190505050611e4d565b005b34801561068657600080fd5b5061068f612142565b6040518082815260200191505060405180910390f35b6106fd600480360360608110156106bb57600080fd5b8101908080359060200190929190803515159060200190929190803573ffffffffffffffffffffffffffffffffffffffff16906020019092919050505061214f565b005b34801561070b57600080fd5b506107386004803603602081101561072257600080fd5b810190808035906020019092919050505061240b565b604051808273ffffffffffffffffffffffffffffffffffffffff1673ffffffffffffffffffffffffffffffffffffffff16815260200191505060405180910390f35b34801561078657600080fd5b506107b36004803603602081101561079d57600080fd5b8101908080359060200190929190505050612449565b604051808273ffffffffffffffffffffffffffffffffffffffff1673ffffffffffffffffffffffffffffffffffffffff16815260200191505060405180910390f35b34801561080157600080fd5b5061082e6004803603602081101561081857600080fd5b810190808035906020019092919050505061247c565b60405180806020018373ffffffffffffffffffffffffffffffffffffffff1673ffffffffffffffffffffffffffffffffffffffff168152602001828103825284818151815260200191508051906020019080838360005b838110156108a0578082015181840152602081019050610885565b50505050905090810190601f1680156108cd5780820380516001836020036101000a031916815260200191505b50935050505060405180910390f35b3480156108e857600080fd5b506109c2600480360360408110156108ff57600080fd5b81019080803573ffffffffffffffffffffffffffffffffffffffff1690602001909291908035906020019064010000000081111561093c57600080fd5b82018360208201111561094e57600080fd5b8035906020019184600183028401116401000000008311171561097057600080fd5b91908080601f016020809104026020016040519081016040528093929190818152602001838380828437600081840152601f19601f820116905080830192505050505050509192919290505050612558565b604051808215151515815260200191505060405180910390f35b3480156109e857600080fd5b50610a15600480360360208110156109ff57600080fd5b81019080803590602001909291905050506126de565b604051808973ffffffffffffffffffffffffffffffffffffffff1673ffffffffffffffffffffffffffffffffffffffff168152602001888152602001806020018715151515815260200180602001806020018060200186815260200185810385528b818151815260200191508051906020019080838360005b83811015610aa9578082015181840152602081019050610a8e565b50505050905090810190601f168015610ad65780820380516001836020036101000a031916815260200191505b50858103845289818151815260200191508051906020019080838360005b83811015610b0f578082015181840152602081019050610af4565b50505050905090810190601f168015610b3c5780820380516001836020036101000a031916815260200191505b50858103835288818151815260200191508051906020019080838360005b83811015610b75578082015181840152602081019050610b5a565b50505050905090810190601f168015610ba25780820380516001836020036101000a031916815260200191505b50858103825287818151815260200191508051906020019080838360005b83811015610bdb578082015181840152602081019050610bc0565b50505050905090810190601f168015610c085780820380516001836020036101000a031916815260200191505b509c5050505050505050505050505060405180910390f35b348015610c2c57600080fd5b50610c6f60048036036020811015610c4357600080fd5b81019080803573ffffffffffffffffffffffffffffffffffffffff1690602001909291905050506129b3565b60405180806020018060200180602001806020018060200186810386528b818151815260200191508051906020019080838360005b83811015610cbf578082015181840152602081019050610ca4565b50505050905090810190601f168015610cec5780820380516001836020036101000a031916815260200191505b5086810385528a818151815260200191508051906020019080838360005b83811015610d25578082015181840152602081019050610d0a565b50505050905090810190601f168015610d525780820380516001836020036101000a031916815260200191505b50868103845289818151815260200191508051906020019080838360005b83811015610d8b578082015181840152602081019050610d70565b50505050905090810190601f168015610db85780820380516001836020036101000a031916815260200191505b50868103835288818151815260200191508051906020019080838360005b83811015610df1578082015181840152602081019050610dd6565b50505050905090810190601f168015610e1e5780820380516001836020036101000a031916815260200191505b50868103825287818151815260200191508051906020019080838360005b83811015610e57578082015181840152602081019050610e3c565b50505050905090810190601f168015610e845780820380516001836020036101000a031916815260200191505b509a505050505050505050505060405180910390f35b348015610ea657600080fd5b50610ef360048036036040811015610ebd57600080fd5b8101908080359060200190929190803573ffffffffffffffffffffffffffffffffffffffff169060200190929190505050612ce1565b604051808215151515815260200191505060405180910390f35b348015610f1957600080fd5b5061122f600480360360a0811015610f3057600080fd5b8101908080359060200190640100000000811115610f4d57600080fd5b820183602082011115610f5f57600080fd5b80359060200191846001830284011164010000000083111715610f8157600080fd5b91908080601f016020809104026020016040519081016040528093929190818152602001838380828437600081840152601f19601f82011690508083019250505050505050919291929080359060200190640100000000811115610fe457600080fd5b820183602082011115610ff657600080fd5b8035906020019184600183028401116401000000008311171561101857600080fd5b91908080601f016020809104026020016040519081016040528093929190818152602001838380828437600081840152601f19601f8201169050808301925050505050505091929192908035906020019064010000000081111561107b57600080fd5b82018360208201111561108d57600080fd5b803590602001918460018302840111640100000000831117156110af57600080fd5b91908080601f016020809104026020016040519081016040528093929190818152602001838380828437600081840152601f19601f8201169050808301925050505050505091929192908035906020019064010000000081111561111257600080fd5b82018360208201111561112457600080fd5b8035906020019184600183028401116401000000008311171561114657600080fd5b91908080601f016020809104026020016040519081016040528093929190818152602001838380828437600081840152601f19601f820116905080830192505050505050509192919290803590602001906401000000008111156111a957600080fd5b8201836020820111156111bb57600080fd5b803590602001918460018302840111640100000000831117156111dd57600080fd5b91908080601f016020809104026020016040519081016040528093929190818152602001838380828437600081840152601f19601f820116905080830192505050505050509192919290505050612dfe565b604051808215151515815260200191505060405180910390f35b34801561125557600080fd5b5061125e61317e565b6040518082815260200191505060405180910390f35b34801561128057600080fd5b5061128961318b565b6040518080602001838152602001828103825284818151815260200191508051906020019060200280838360005b838110156112d25780820151818401526020810190506112b7565b50505050905001935050505060405180910390f35b3480156112f357600080fd5b506113206004803603602081101561130a57600080fd5b810190808035906020019092919050505061321d565b6040518083815260200180602001828103825283818151815260200191508051906020019060200280838360005b8381101561136957808201518184015260208101905061134e565b50505050905001935050505060405180910390f35b34801561138a57600080fd5b506113cd600480360360208110156113a157600080fd5b81019080803573ffffffffffffffffffffffffffffffffffffffff1690602001909291905050506132fe565b60405180806020018060200180602001848103845287818151815260200191508051906020019080838360005b838110156114155780820151818401526020810190506113fa565b50505050905090810190601f1680156114425780820380516001836020036101000a031916815260200191505b50848103835286818151815260200191508051906020019080838360005b8381101561147b578082015181840152602081019050611460565b50505050905090810190601f1680156114a85780820380516001836020036101000a031916815260200191505b50848103825285818151815260200191508051906020019080838360005b838110156114e15780820151818401526020810190506114c6565b50505050905090810190601f16801561150e5780820380516001836020036101000a031916815260200191505b50965050505050505060405180910390f35b34801561152c57600080fd5b506115356135aa565b6040518083815260200180602001828103825283818151815260200191508051906020019060200280838360005b8381101561157e578082015181840152602081019050611563565b50505050905001935050505060405180910390f35b34801561159f57600080fd5b506115a861368a565b6040518082815260200191505060405180910390f35b3480156115ca57600080fd5b50611601600480360360408110156115e157600080fd5b810190808035906020019092919080359060200190929190505050613690565b604051808215151515815260200191505060405180910390f35b34801561162757600080fd5b50611630613797565b604051808273ffffffffffffffffffffffffffffffffffffffff1673ffffffffffffffffffffffffffffffffffffffff16815260200191505060405180910390f35b34801561167e57600080fd5b506116ab6004803603602081101561169557600080fd5b81019080803590602001909291905050506137bd565b6040518082815260200191505060405180910390f35b3480156116cd57600080fd5b506116d66137e0565b6040518080602001838152602001828103825284818151815260200191508051906020019060200280838360005b8381101561171f578082015181840152602081019050611704565b50505050905001935050505060405180910390f35b34801561174057600080fd5b5061176d6004803603602081101561175757600080fd5b81019080803590602001909291905050506138a8565b604051808873ffffffffffffffffffffffffffffffffffffffff1673ffffffffffffffffffffffffffffffffffffffff168152602001806020018715151515815260200180602001806020018060200186815260200185810385528b818151815260200191508051906020019080838360005b838110156117fb5780820151818401526020810190506117e0565b50505050905090810190601f1680156118285780820380516001836020036101000a031916815260200191505b50858103845289818151815260200191508051906020019080838360005b83811015611861578082015181840152602081019050611846565b50505050905090810190601f16801561188e5780820380516001836020036101000a031916815260200191505b50858103835288818151815260200191508051906020019080838360005b838110156118c75780820151818401526020810190506118ac565b50505050905090810190601f1680156118f45780820380516001836020036101000a031916815260200191505b50858103825287818151815260200191508051906020019080838360005b8381101561192d578082015181840152602081019050611912565b50505050905090810190601f16801561195a5780820380516001836020036101000a031916815260200191505b509b50505050505050505050505060405180910390f35b34801561197d57600080fd5b50611986613c08565b604051808273ffffffffffffffffffffffffffffffffffffffff1673ffffffffffffffffffffffffffffffffffffffff16815260200191505060405180910390f35b611a34600480360360608110156119de57600080fd5b81019080803573ffffffffffffffffffffffffffffffffffffffff16906020019092919080359060200190929190803573ffffffffffffffffffffffffffffffffffffffff169060200190929190505050613c2d565b005b348015611a4257600080fd5b50611a6f60048036036020811015611a5957600080fd5b8101908080359060200190929190505050613e0e565b604051808215151515815260200191505060405180910390f35b600d81815481101515611a9857fe5b906000526020600020016000915054906101000a900473ffffffffffffffffffffffffffffffffffffffff1681565b60006060600080905060606000600190505b60088054905081111515611b4e578560076000838152602001908152602001600020600701541415611b4157828060010193505060076000828152602001908152602001600020600101548282815181101515611b3257fe5b90602001906020020181815250505b8080600101915050611ad9565b508181935093505050915091565b60008060036000815480929190600101919050559050610100604051908101604052803373ffffffffffffffffffffffffffffffffffffffff1681526020018281526020018981526020018815158152602001878152602001868152602001858152602001848152506007600083815260200190815260200160002060008201518160000160006101000a81548173ffffffffffffffffffffffffffffffffffffffff021916908373ffffffffffffffffffffffffffffffffffffffff160217905550602082015181600101556040820151816002019080519060200190611c45929190613e2e565b5060608201518160030160006101000a81548160ff0219169083151502179055506080820151816004019080519060200190611c82929190613e2e565b5060a0820151816005019080519060200190611c9f929190613e2e565b5060c0820151816006019080519060200190611cbc929190613e2e565b5060e082015181600701559050506001600882908060018154018082558091505090600182039060005260206000200160009091929091909150555050807fea10151a11e055d42149936dd8e94d3e25915236a4d88c263f4e518329f1cfe860405160405180910390a2336009600083815260200190815260200160002060006101000a81548173ffffffffffffffffffffffffffffffffffffffff021916908373ffffffffffffffffffffffffffffffffffffffff16021790555060019150509695505050505050565b600a6020528060005260406000206000915054906101000a900473ffffffffffffffffffffffffffffffffffffffff1681565b6000600160009054906101000a900473ffffffffffffffffffffffffffffffffffffffff1673ffffffffffffffffffffffffffffffffffffffff163373ffffffffffffffffffffffffffffffffffffffff16141515611e1857600080fd5b6001600b600084815260200190815260200160002060006101000a81548160ff02191690831515021790555060019050919050565b813373ffffffffffffffffffffffffffffffffffffffff166007600083815260200190815260200160002060000160009054906101000a900473ffffffffffffffffffffffffffffffffffffffff1673ffffffffffffffffffffffffffffffffffffffff16141515611ebe57600080fd5b600073ffffffffffffffffffffffffffffffffffffffff16600a600085815260200190815260200160002060009054906101000a900473ffffffffffffffffffffffffffffffffffffffff1673ffffffffffffffffffffffffffffffffffffffff1614151515611f2d57600080fd5b3373ffffffffffffffffffffffffffffffffffffffff166108fc60076000868152602001908152602001600020600701549081150290604051600060405180830381858888f19350505050158015611f89573d6000803e3d6000fd5b506007600084815260200190815260200160002060070154600e60003073ffffffffffffffffffffffffffffffffffffffff1673ffffffffffffffffffffffffffffffffffffffff16815260200190815260200160002060003373ffffffffffffffffffffffffffffffffffffffff1673ffffffffffffffffffffffffffffffffffffffff16815260200190815260200160002081905550600a600084815260200190815260200160002060009054906101000a900473ffffffffffffffffffffffffffffffffffffffff166007600085815260200190815260200160002060000160006101000a81548173ffffffffffffffffffffffffffffffffffffffff021916908373ffffffffffffffffffffffffffffffffffffffff1602179055506000600a600085815260200190815260200160002060006101000a81548173ffffffffffffffffffffffffffffffffffffffff021916908373ffffffffffffffffffffffffffffffffffffffff16021790555061213c836007600086815260200190815260200160002060000160009054906101000a900473ffffffffffffffffffffffffffffffffffffffff16612ce1565b50505050565b6000600880549050905090565b3373ffffffffffffffffffffffffffffffffffffffff166007600085815260200190815260200160002060000160009054906101000a900473ffffffffffffffffffffffffffffffffffffffff1673ffffffffffffffffffffffffffffffffffffffff16141515156121c057600080fd5b600073ffffffffffffffffffffffffffffffffffffffff16600a600085815260200190815260200160002060009054906101000a900473ffffffffffffffffffffffffffffffffffffffff1673ffffffffffffffffffffffffffffffffffffffff1614151561222e57600080fd5b6001151582151514156122e0576002600081548092919060010191905055506007600084815260200190815260200160002060070154600f6000600254815260200190815260200160002060003373ffffffffffffffffffffffffffffffffffffffff1673ffffffffffffffffffffffffffffffffffffffff168152602001908152602001600020819055506122db81600760008681526020019081526020016000206007015433613c2d565b6123b4565b3373ffffffffffffffffffffffffffffffffffffffff163160076000858152602001908152602001600020600701541115151561231c57600080fd5b6007600084815260200190815260200160002060070154600e60003373ffffffffffffffffffffffffffffffffffffffff1673ffffffffffffffffffffffffffffffffffffffff16815260200190815260200160002060003073ffffffffffffffffffffffffffffffffffffffff1673ffffffffffffffffffffffffffffffffffffffff168152602001908152602001600020819055505b33600a600085815260200190815260200160002060006101000a81548173ffffffffffffffffffffffffffffffffffffffff021916908373ffffffffffffffffffffffffffffffffffffffff160217905550505050565b60068181548110151561241a57fe5b906000526020600020016000915054906101000a900473ffffffffffffffffffffffffffffffffffffffff1681565b60096020528060005260406000206000915054906101000a900473ffffffffffffffffffffffffffffffffffffffff1681565b600c602052806000526040600020600091509050806000018054600181600116156101000203166002900480601f0160208091040260200160405190810160405280929190818152602001828054600181600116156101000203166002900480156125285780601f106124fd57610100808354040283529160200191612528565b820191906000526020600020905b81548152906001019060200180831161250b57829003601f168201915b5050505050908060010160009054906101000a900473ffffffffffffffffffffffffffffffffffffffff16905082565b60008060009054906101000a900473ffffffffffffffffffffffffffffffffffffffff1673ffffffffffffffffffffffffffffffffffffffff163373ffffffffffffffffffffffffffffffffffffffff161415156125b557600080fd5b60046000815480929190600101919050555060408051908101604052808381526020018473ffffffffffffffffffffffffffffffffffffffff16815250600c600060045481526020019081526020016000206000820151816000019080519060200190612623929190613e2e565b5060208201518160010160006101000a81548173ffffffffffffffffffffffffffffffffffffffff021916908373ffffffffffffffffffffffffffffffffffffffff160217905550905050600d8390806001815401808255809150509060018203906000526020600020016000909192909190916101000a81548173ffffffffffffffffffffffffffffffffffffffff021916908373ffffffffffffffffffffffffffffffffffffffff160217905550506001905092915050565b60076020528060005260406000206000915090508060000160009054906101000a900473ffffffffffffffffffffffffffffffffffffffff1690806001015490806002018054600181600116156101000203166002900480601f0160208091040260200160405190810160405280929190818152602001828054600181600116156101000203166002900480156127b65780601f1061278b576101008083540402835291602001916127b6565b820191906000526020600020905b81548152906001019060200180831161279957829003601f168201915b5050505050908060030160009054906101000a900460ff1690806004018054600181600116156101000203166002900480601f0160208091040260200160405190810160405280929190818152602001828054600181600116156101000203166002900480156128675780601f1061283c57610100808354040283529160200191612867565b820191906000526020600020905b81548152906001019060200180831161284a57829003601f168201915b505050505090806005018054600181600116156101000203166002900480601f0160208091040260200160405190810160405280929190818152602001828054600181600116156101000203166002900480156129055780601f106128da57610100808354040283529160200191612905565b820191906000526020600020905b8154815290600101906020018083116128e857829003601f168201915b505050505090806006018054600181600116156101000203166002900480601f0160208091040260200160405190810160405280929190818152602001828054600181600116156101000203166002900480156129a35780601f10612978576101008083540402835291602001916129a3565b820191906000526020600020905b81548152906001019060200180831161298657829003601f168201915b5050505050908060070154905088565b6005602052806000526040600020600091509050806000018054600181600116156101000203166002900480601f016020809104026020016040519081016040528092919081815260200182805460018160011615610100020316600290048015612a5f5780601f10612a3457610100808354040283529160200191612a5f565b820191906000526020600020905b815481529060010190602001808311612a4257829003601f168201915b505050505090806001018054600181600116156101000203166002900480601f016020809104026020016040519081016040528092919081815260200182805460018160011615610100020316600290048015612afd5780601f10612ad257610100808354040283529160200191612afd565b820191906000526020600020905b815481529060010190602001808311612ae057829003601f168201915b505050505090806002018054600181600116156101000203166002900480601f016020809104026020016040519081016040528092919081815260200182805460018160011615610100020316600290048015612b9b5780601f10612b7057610100808354040283529160200191612b9b565b820191906000526020600020905b815481529060010190602001808311612b7e57829003601f168201915b505050505090806003018054600181600116156101000203166002900480601f016020809104026020016040519081016040528092919081815260200182805460018160011615610100020316600290048015612c395780601f10612c0e57610100808354040283529160200191612c39565b820191906000526020600020905b815481529060010190602001808311612c1c57829003601f168201915b505050505090806004018054600181600116156101000203166002900480601f016020809104026020016040519081016040528092919081815260200182805460018160011615610100020316600290048015612cd75780601f10612cac57610100808354040283529160200191612cd7565b820191906000526020600020905b815481529060010190602001808311612cba57829003601f168201915b5050505050905085565b60008060009054906101000a900473ffffffffffffffffffffffffffffffffffffffff1673ffffffffffffffffffffffffffffffffffffffff163373ffffffffffffffffffffffffffffffffffffffff16141515612d3e57600080fd5b827f89b3887e350d982bade9287059c60049ffe2af04651779f4c8f42dde45fd412283604051808273ffffffffffffffffffffffffffffffffffffffff1673ffffffffffffffffffffffffffffffffffffffff16815260200191505060405180910390a2816009600085815260200190815260200160002060006101000a81548173ffffffffffffffffffffffffffffffffffffffff021916908373ffffffffffffffffffffffffffffffffffffffff1602179055506001905092915050565b6000803390506000600190505b60068054905081111515612fa757866040516020018082805190602001908083835b602083101515612e525780518252602082019150602081019050602083039250612e2d565b6001836020036101000a038019825116818451168082178552505050505050905001915050604051602081830303815290604052805190602001206001900460056000600684815481101515612ea457fe5b9060005260206000200160009054906101000a900473ffffffffffffffffffffffffffffffffffffffff1673ffffffffffffffffffffffffffffffffffffffff1673ffffffffffffffffffffffffffffffffffffffff1681526020019081526020016000206001016040516020018082805460018160011615610100020316600290048015612f6a5780601f10612f48576101008083540402835291820191612f6a565b820191906000526020600020905b815481529060010190602001808311612f56575b505091505060405160208183030381529060405280519060200120600190041415612f9a57600092505050613175565b8080600101915050612e0b565b5060a06040519081016040528088815260200187815260200186815260200185815260200184815250600560008373ffffffffffffffffffffffffffffffffffffffff1673ffffffffffffffffffffffffffffffffffffffff168152602001908152602001600020600082015181600001908051906020019061302b929190613e2e565b506020820151816001019080519060200190613048929190613e2e565b506040820151816002019080519060200190613065929190613e2e565b506060820151816003019080519060200190613082929190613e2e565b50608082015181600401908051906020019061309f929190613e2e565b50905050600160063390806001815401808255809150509060018203906000526020600020016000909192909190916101000a81548173ffffffffffffffffffffffffffffffffffffffff021916908373ffffffffffffffffffffffffffffffffffffffff16021790555050507f0434372237c7c6e1607b43e83694a9d949c4f83a878fe2091bac214e317b9abd33604051808273ffffffffffffffffffffffffffffffffffffffff1673ffffffffffffffffffffffffffffffffffffffff16815260200191505060405180910390a160019150505b95945050505050565b6000600680549050905090565b6060600080600090506000600190505b600880549050811115156131be578180600101925050808060010191505061319b565b506008818180548060200260200160405190810160405280929190818152602001828054801561320d57602002820191906000526020600020905b8154815260200190600101908083116131f9575b5050505050915092509250509091565b6000606080600080905060008090505b600880549050811115156132f05760076000828152602001908152602001600020600101548614156132e35781806001019250506007600087815260200190815260200160002060000160009054906101000a900473ffffffffffffffffffffffffffffffffffffffff1683828151811015156132a657fe5b9060200190602002019073ffffffffffffffffffffffffffffffffffffffff16908173ffffffffffffffffffffffffffffffffffffffff16815250505b808060010191505061322d565b508082935093505050915091565b6060806060600560008573ffffffffffffffffffffffffffffffffffffffff1673ffffffffffffffffffffffffffffffffffffffff168152602001908152602001600020600001600560008673ffffffffffffffffffffffffffffffffffffffff1673ffffffffffffffffffffffffffffffffffffffff168152602001908152602001600020600301600560008773ffffffffffffffffffffffffffffffffffffffff1673ffffffffffffffffffffffffffffffffffffffff168152602001908152602001600020600401828054600181600116156101000203166002900480601f01602080910402602001604051908101604052809291908181526020018280546001816001161561010002031660029004801561345e5780601f106134335761010080835404028352916020019161345e565b820191906000526020600020905b81548152906001019060200180831161344157829003601f168201915b50505050509250818054600181600116156101000203166002900480601f0160208091040260200160405190810160405280929190818152602001828054600181600116156101000203166002900480156134fa5780601f106134cf576101008083540402835291602001916134fa565b820191906000526020600020905b8154815290600101906020018083116134dd57829003601f168201915b50505050509150808054600181600116156101000203166002900480601f0160208091040260200160405190810160405280929190818152602001828054600181600116156101000203166002900480156135965780601f1061356b57610100808354040283529160200191613596565b820191906000526020600020905b81548152906001019060200180831161357957829003601f168201915b505050505090509250925092509193909250565b60006060600080905060606000600190505b6008805490508111151561367d573373ffffffffffffffffffffffffffffffffffffffff166007600083815260200190815260200160002060000160009054906101000a900473ffffffffffffffffffffffffffffffffffffffff1673ffffffffffffffffffffffffffffffffffffffff1614156136705782806001019350506007600082815260200190815260200160002060010154828281518110151561366157fe5b90602001906020020181815250505b80806001019150506135bc565b5081819350935050509091565b60035481565b6000823373ffffffffffffffffffffffffffffffffffffffff166007600083815260200190815260200160002060000160009054906101000a900473ffffffffffffffffffffffffffffffffffffffff1673ffffffffffffffffffffffffffffffffffffffff1614151561370357600080fd5b600073ffffffffffffffffffffffffffffffffffffffff16600a600086815260200190815260200160002060009054906101000a900473ffffffffffffffffffffffffffffffffffffffff1673ffffffffffffffffffffffffffffffffffffffff1614151561377157600080fd5b826007600086815260200190815260200160002060070181905550600191505092915050565b600160009054906101000a900473ffffffffffffffffffffffffffffffffffffffff1681565b6008818154811015156137cc57fe5b906000526020600020016000915090505481565b6060600080600090506000600190505b6006805490508111151561381357818060010192505080806001019150506137f0565b506006818180548060200260200160405190810160405280929190818152602001828054801561389857602002820191906000526020600020905b8160009054906101000a900473ffffffffffffffffffffffffffffffffffffffff1673ffffffffffffffffffffffffffffffffffffffff168152602001906001019080831161384e575b5050505050915092509250509091565b600060606000606080606060006007600089815260200190815260200160002060000160009054906101000a900473ffffffffffffffffffffffffffffffffffffffff16600760008a8152602001908152602001600020600201600760008b815260200190815260200160002060030160009054906101000a900460ff16600760008c8152602001908152602001600020600401600760008d8152602001908152602001600020600501600760008e8152602001908152602001600020600601600760008f815260200190815260200160002060070154858054600181600116156101000203166002900480601f016020809104026020016040519081016040528092919081815260200182805460018160011615610100020316600290048015613a145780601f106139e957610100808354040283529160200191613a14565b820191906000526020600020905b8154815290600101906020018083116139f757829003601f168201915b50505050509550838054600181600116156101000203166002900480601f016020809104026020016040519081016040528092919081815260200182805460018160011615610100020316600290048015613ab05780601f10613a8557610100808354040283529160200191613ab0565b820191906000526020600020905b815481529060010190602001808311613a9357829003601f168201915b50505050509350828054600181600116156101000203166002900480601f016020809104026020016040519081016040528092919081815260200182805460018160011615610100020316600290048015613b4c5780601f10613b2157610100808354040283529160200191613b4c565b820191906000526020600020905b815481529060010190602001808311613b2f57829003601f168201915b50505050509250818054600181600116156101000203166002900480601f016020809104026020016040519081016040528092919081815260200182805460018160011615610100020316600290048015613be85780601f10613bbd57610100808354040283529160200191613be8565b820191906000526020600020905b815481529060010190602001808311613bcb57829003601f168201915b505050505091509650965096509650965096509650919395979092949650565b6000809054906101000a900473ffffffffffffffffffffffffffffffffffffffff1681565b8260008090505b600d8054905081111515613e07578173ffffffffffffffffffffffffffffffffffffffff16600d82815481101515613c6857fe5b9060005260206000200160009054906101000a900473ffffffffffffffffffffffffffffffffffffffff1673ffffffffffffffffffffffffffffffffffffffff161415613dfa578473ffffffffffffffffffffffffffffffffffffffff16318411151515613cd557600080fd5b3484141515613ce357600080fd5b83600e60008773ffffffffffffffffffffffffffffffffffffffff1673ffffffffffffffffffffffffffffffffffffffff16815260200190815260200160002060003073ffffffffffffffffffffffffffffffffffffffff1673ffffffffffffffffffffffffffffffffffffffff168152602001908152602001600020819055506001601060008773ffffffffffffffffffffffffffffffffffffffff1673ffffffffffffffffffffffffffffffffffffffff16815260200190815260200160002060008573ffffffffffffffffffffffffffffffffffffffff1673ffffffffffffffffffffffffffffffffffffffff16815260200190815260200160002060006101000a81548160ff0219169083151502179055505b8080600101915050613c34565b5050505050565b600b6020528060005260406000206000915054906101000a900460ff1681565b828054600181600116156101000203166002900490600052602060002090601f016020900481019282601f10613e6f57805160ff1916838001178555613e9d565b82800160010185558215613e9d579182015b82811115613e9c578251825591602001919060010190613e81565b5b509050613eaa9190613eae565b5090565b613ed091905b80821115613ecc576000816000905550600101613eb4565b5090565b9056fea165627a7a723058206265d25f354324e42493aa9c5b7ae9c2efec886993fe42b6ffec038c4f8abf0d0029",
  "source": "pragma solidity >=0.4.21 <0.6.0;\n\ncontract Property {\n\taddress public admin;\n\taddress public Rera;\n\t\n\tstruct User {\n\t\tstring Name;\n\t\tstring AdharNo;\n\t\tstring PanNo;\n\t\tstring email;\n\t\tstring PhoneNo;\n\t}\n\n\tstruct Land {\n\t\taddress Owner;\n\t\tuint256 landId;\n\t\tstring ReraRegisteredNo;\n\t\tbool LandOnRoad;\n\t\tstring LandArea;\n\t\tstring District;\n\t\tstring State;\n\t\tuint256 Price;\n\t}\n\n\tstruct Bank {\n\t\tstring bankName;\n\t\taddress addr;\n\t}\n\n\tuint256 loanId = 0;\n\tuint256 public landCount = 0;\n\tuint256 bankId = 0;\n\n\tmapping (address => User) public users;\n\taddress[] public userAcc;\n\n\tmapping (uint256 => Land) public userLands;\n\tuint256[] public lands;\n\n\tmapping (uint256 => address) public landOwnerHistory;\n\n\tmapping (uint256 => address) public landOwnerChange;\n\n\tmapping (uint256 => bool) public verifiedLands;\n\n\tmapping (uint256 => Bank) public bank;\n\taddress[] public banks;\n\n\t//sender to receiver to price\n\tmapping (address => mapping (address => uint256)) transaction;\n\n\t//mapping of loan id to user address to amount\n\tmapping (uint256 => mapping(address => uint256)) loan;\n\t\n\t//bank address to user address to loan amount approved success\n\tmapping (address => mapping(address => bool)) bankPayment;\n\t\n\tevent addUsers (address newUser);\n\n\tevent addLands (uint256 indexed _landId);\n\n\tevent changeOwnership (uint256 indexed _landId, address _owner);\n\n\tmodifier onlyOwner(uint256 _landId) { \n\t \trequire (userLands[_landId].Owner == msg.sender); \n\t\t_; \n\t}\n\n\tmodifier verifiedByAdmin() { \n\t\trequire (msg.sender == admin); \n\t\t_; \n\t}\n\t\n\tmodifier byRera() { \n\t\trequire (msg.sender == Rera); \n\t\t_; \n\t}\n\t\n\tconstructor () public {\n\t\tadmin = msg.sender;\n\t\tRera = address(2);\n\t}\n\n\tfunction addUser (string memory _name, string memory _adharNo, string memory _panNo, string memory _email, string memory _phoneNo) public returns(bool) {\n\t\taddress _address = msg.sender;\n\t\tfor(uint256 i=1; i<=userAcc.length; i++) {\n\t\t\tif(uint(keccak256(abi.encodePacked(users[userAcc[i]].AdharNo))) == uint(keccak256(abi.encodePacked(_adharNo)))) {\n\t\t\t\t\"User ID Already Exists!\";\n\t\t\t\treturn false;\n\t\t\t}\n\t\t}\n\t\tusers[_address] = User(_name, _adharNo, _panNo, _email, _phoneNo);\n\t\tuserAcc.push(msg.sender) -1;\n\t\temit addUsers(msg.sender);\n\t\treturn true;\n\t}\n\n\tfunction getUserCount () public view returns(uint256) {\n\t\treturn userAcc.length;\n\t}\n\t\n\tfunction getUserDetails (address _address) public view returns(string memory, string memory, string memory) {\n\t\treturn (users[_address].Name, users[_address].email, users[_address].PhoneNo);\n\t}\n\n\tfunction getAllUsers () public view returns (address[] memory, uint256) {\n\t\tuint256 count = 0;\n\t\tfor(uint256 i = 1; i <= userAcc.length; i++){\n\t\t\tcount++;\n\t\t}\n\t\treturn (userAcc, count);\n\t}\n\n\tfunction addBank (address _addr, string memory _name) verifiedByAdmin public returns (bool) {\n\t\tbankId++;\n\t\tbank[bankId] = Bank(_name, _addr);\n\t\tbanks.push(_addr);\n\t\treturn true;\n\t}\n\n\tfunction addLand (string memory _reraRegisteredNo, bool _landOnRoad, string memory _landArea, string memory _district, string memory _state, uint256 _price) public returns (bool) {\n\t\tuint256 _landId = landCount++;\n\t\tuserLands[_landId] = Land(msg.sender, _landId, _reraRegisteredNo, _landOnRoad, _landArea, _district, _state, _price);\n\t\tlands.push(_landId) -1;\n\t\temit addLands(_landId);\n\t\tlandOwnerHistory[_landId] = msg.sender;\n\t\treturn true;\n\t}\n\n\tfunction approveLand (uint256 _landId) byRera public returns(bool) {\n\t\t//require (userLands[_landId].currOwner != msg.sender);\n\t\t//userLands[_landId].verifiedByRera = true;\n\t\tverifiedLands[_landId] = true;\n\t\treturn true;\n\t}\n\n\tfunction getLandCount () public view returns(uint256) {\n\t\treturn lands.length;\n\t}\n\n\t//address(0) = 0x0 => is used to check if the address is empty \n\tfunction buyLand (uint256 _landId, bool _bankLoan, address _bankAddr) public payable {\n\t\t//new owner should not be the same old owner\n\t\trequire (userLands[_landId].Owner != msg.sender);\n\t\t//no ownership change request must exist\n\t\trequire (landOwnerChange[_landId] == address(0));\n\t\tif (_bankLoan == true) {\n\t\t\t\"Tell the bank to pay\";\n\t\t\tloanId++;\n\t\t\tloan[loanId][msg.sender] = userLands[_landId].Price;\n\t\t\ttransferFromBank(_bankAddr, userLands[_landId].Price, msg.sender);\n\t\t}\n\t\telse {\n\t\t\t//buyer must have enuf balance to pay to the seller\n\t\t\t//msg.value will be send to the contract address\n\t\t\trequire (userLands[_landId].Price  <= msg.sender.balance);\n\t\t\ttransaction[msg.sender][address(this)] = userLands[_landId].Price;\n\t\t}\n\t\t//ownership change is requested\n\t\tlandOwnerChange[_landId] = msg.sender;\n\t}\n\n\tfunction ChangeLandOwner (uint256 _landId, address _newOwner) onlyOwner(_landId) public {\n\t\t//ownership change request must exist\n\t\trequire (landOwnerChange[_landId] != address(0));\n\t\t//transfer coins from contract to seller\n\t\t//uint160 is used to explicitly convert the address as payable\n\t\taddress(uint160(msg.sender)).transfer(userLands[_landId].Price);\n\t\ttransaction[address(this)][msg.sender] = userLands[_landId].Price;\n\t\t//transfers the ownership to the buyer\n\t\tuserLands[_landId].Owner = landOwnerChange[_landId];\n\t\t//empty the owner change request\n\t\tlandOwnerChange[_landId] = address(0);\n\t\t//admin, i.e., the government approves the change of ownership;\n\t\tapproveOwnership(_landId, userLands[_landId].Owner);\n\t}\n\n\tmodifier onlyBank(address _addr) { \n\t\tfor (uint i = 0; i <= banks.length; i++) {\n\t\t\tif (banks[i] == _addr) {\n\t\t\t\t_;\n\t\t\t}\n\t\t}\n\t}\n\n\tfunction transferFromBank (address _bankAddr, uint256 _value, address _user) onlyBank(_bankAddr) public payable {\n\t\t//wallet balance of the address is enuf\n\t\trequire (_value <= _bankAddr.balance);\n\t\t//set ether payable to the contract is equal to the price of the land\n\t\trequire (_value == msg.value);\n\t\ttransaction[_bankAddr][address(this)] = _value;\n\t\tbankPayment[_bankAddr][_user] = true;\n\t}\n\n\tfunction approveOwnership (uint256 _landId, address _owner) verifiedByAdmin public returns (bool) {\n\t\temit changeOwnership (_landId, _owner);\n\t\tlandOwnerHistory[_landId] = _owner;\n\t\treturn true;\n\t}\n\n\tfunction landOwnershipHistory (uint256 _landId) public returns (uint256, address[] memory) {\n\t\taddress[] memory history;\n\t\tuint256 count = 0;\n\t\tfor (uint256 i = 0; i <= lands.length; i++) {\n\t\t\tif (_landId == userLands[i].landId) {\n\t\t\t\tcount++;\n\t\t\t\thistory[i] = userLands[_landId].Owner;\n\t\t\t}\t\t\n\t\t}\n\t\treturn (count, history);\n\t}\n\n\tfunction changeLandPrice (uint256 _landId, uint256 _newPrice) onlyOwner(_landId) public returns(bool) {\n\t \t//no ownership change request must exist\n\t \trequire (landOwnerChange[_landId] == address(0));\n\t \tuserLands[_landId].Price = _newPrice;\n\t \treturn true;\n\t }\n\n\tfunction getLandDetailsById (uint256 _landId) public view returns(address, string memory, bool, string memory, string memory, string memory, uint256) {\n\t\treturn (userLands[_landId].Owner, userLands[_landId].ReraRegisteredNo, userLands[_landId].LandOnRoad, userLands[_landId].LandArea, userLands[_landId].District, userLands[_landId].State, userLands[_landId].Price);\n\t}\n\n\tfunction getAllLands () public view returns (uint256[] memory, uint256) {\n\t\tuint256 count = 0;\n\t\tfor(uint256 i = 1; i <= lands.length; i++){\n\t\t\tcount++;\n\t\t}\n\t\treturn (lands, count);\n\t}\n\n\t//owner's lands' count\n\tfunction getLandDetails () public view returns(uint256, uint[] memory) {\n\t\tuint256 count = 0;\n\t\tuint[] memory landIds;\n\t\tfor(uint i=1;i<=lands.length;i++){\n\t\t\tif(userLands[i].Owner == msg.sender){\n\t\t\t\tcount++;\n\t\t\t\tlandIds[i] = userLands[i].landId;\n\t\t\t}\n\t\t}\n\t\treturn (count, landIds);\n\t}\n\n\tfunction getLandByPrice (uint256 _price) public view returns(uint256, uint[] memory /*address, string memory, bool, string memory, string memory, string memory, string memory*/) {\n\t\tuint256 count = 0;\n\t\tuint[] memory landIds;\n\t\tfor (uint256 i = 1; i <= lands.length; i++) { \n\t\t\tif (userLands[i].Price == _price) {\n\t\t\t\tcount++;\n\t\t\t\t//return (userLands[i].Owner, userLands[i].ReraRegisteredNo, userLands[i].LandOnRoad, userLands[i].LandArea, userLands[i].District, userLands[i].State, userLands[i].Price);\n\t\t\t\tlandIds[i] = userLands[i].landId;\n\t\t\t}\n\t\t}\n\t\treturn (count, landIds);\n\t}\t\n\n\t/*function getLandByLandArea (string memory _landArea) public view returns(uint256) {\n\t\tuint256 count = 0;\n\t\tfor (uint256 i = 1; i <= lands.length; i++) { \n\t\t\tif (uint(keccak256(abi.encodePacked(userLands[i].LandArea))) == uint(keccak256(abi.encodePacked(_landArea)))) {\n\t\t\t\tcount++;\n\t\t\t\t//return (userLands[i].Owner, userLands[i].ReraRegisteredNo, userLands[i].LandOnRoad, userLands[i].LandArea, userLands[i].District, userLands[i].State, userLands[i].Price);\n\t\t\t}\n\t\t}\n\t\treturn count;\n\t}*/\n\n\t/*function getLandByDistrict (string memory _district) public view returns(uint256) {\n\t\tuint256 count;\n\t\tfor (uint256 i = 1; i <= lands.length; i++) { \n\t\t\tif (uint(keccak256(abi.encodePacked(userLands[i].District))) == uint(keccak256(abi.encodePacked(_district)))) {\n\t\t\t\tcount++;\n\t\t\t\t//return (userLands[i].Owner, userLands[i].ReraRegisteredNo, userLands[i].LandOnRoad, userLands[i].LandArea, userLands[i].District, userLands[i].State, userLands[i].Price);\n\t\t\t}\n\t\t}\n\t\treturn count;\n\t}*/\n\n\t/*function getLandByLandOnRoad (uint256[] lands) public view returns(uint256/*, uint256[]) {\n\t\tuint256 count;\n\t\tfor (uint256 i = 1; i <= lands.length; i++) { \n\t\t\tif (userLands[i].LandOnRoad == true) {\n\t\t\t\tcount++;\n\t\t\t\t//return (userLands[i].Owner, userLands[i].ReraRegisteredNo, userLands[i].LandOnRoad, userLands[i].LandArea, userLands[i].District, userLands[i].State, userLands[i].Price);\n\t\t\t}\n\t\t}\n\t\treturn count;\n\t}*/\n\t\n}\n//uint(keccak256(abi.encodePacked(land.LandOnRoad)))\n\n",
  "sourcePath": "F:/Blockchain/Projects/FinalYearProject/LandRegistry/contracts/Property.sol",
  "compiler": {
    "name": "solc",
    "version": "0.5.0+commit.1d4f565a.Emscripten.clang"
  },
  "schemaVersion": "3.0.6",
  "updatedAt": "2019-05-09T11:56:37.929Z",
  "devdoc": {
    "methods": {}
  },
  "userdoc": {
    "methods": {}
  }
}