{
  "contractName": "Property",
  "abi": [
    {
      "constant": true,
      "inputs": [
        {
          "name": "",
          "type": "uint256"
        }
      ],
      "name": "userAcc",
      "outputs": [
        {
          "name": "",
          "type": "address"
        }
      ],
      "payable": false,
      "stateMutability": "view",
      "type": "function",
      "signature": "0x66b82655"
    },
    {
      "constant": true,
      "inputs": [],
      "name": "landCount",
      "outputs": [
        {
          "name": "",
          "type": "uint256"
        }
      ],
      "payable": false,
      "stateMutability": "view",
      "type": "function",
      "signature": "0xd7bce658"
    },
    {
      "constant": true,
      "inputs": [
        {
          "name": "",
          "type": "uint256"
        }
      ],
      "name": "lands",
      "outputs": [
        {
          "name": "",
          "type": "uint256"
        }
      ],
      "payable": false,
      "stateMutability": "view",
      "type": "function",
      "signature": "0xe261f1e5"
    },
    {
      "anonymous": false,
      "inputs": [
        {
          "indexed": false,
          "name": "newUser",
          "type": "address"
        }
      ],
      "name": "addUsers",
      "type": "event",
      "signature": "0x0434372237c7c6e1607b43e83694a9d949c4f83a878fe2091bac214e317b9abd"
    },
    {
      "anonymous": false,
      "inputs": [
        {
          "indexed": true,
          "name": "_landId",
          "type": "uint256"
        }
      ],
      "name": "addLands",
      "type": "event",
      "signature": "0xea10151a11e055d42149936dd8e94d3e25915236a4d88c263f4e518329f1cfe8"
    },
    {
      "constant": false,
      "inputs": [
        {
          "name": "_address",
          "type": "address"
        },
        {
          "name": "_name",
          "type": "bytes32"
        },
        {
          "name": "_adharNo",
          "type": "bytes32"
        },
        {
          "name": "_panNo",
          "type": "bytes32"
        },
        {
          "name": "_email",
          "type": "bytes32"
        },
        {
          "name": "_phoneNo",
          "type": "bytes32"
        }
      ],
      "name": "addUser",
      "outputs": [
        {
          "name": "",
          "type": "bool"
        }
      ],
      "payable": false,
      "stateMutability": "nonpayable",
      "type": "function",
      "signature": "0xb144cc06"
    },
    {
      "constant": true,
      "inputs": [],
      "name": "getUserCount",
      "outputs": [
        {
          "name": "",
          "type": "uint256"
        }
      ],
      "payable": false,
      "stateMutability": "view",
      "type": "function",
      "signature": "0xb5cb15f7"
    },
    {
      "constant": true,
      "inputs": [
        {
          "name": "_address",
          "type": "address"
        }
      ],
      "name": "getUserDetails",
      "outputs": [
        {
          "name": "",
          "type": "bytes32"
        },
        {
          "name": "",
          "type": "bytes32"
        },
        {
          "name": "",
          "type": "bytes32"
        }
      ],
      "payable": false,
      "stateMutability": "view",
      "type": "function",
      "signature": "0xcc3d967b"
    },
    {
      "constant": true,
      "inputs": [],
      "name": "getAllUsers",
      "outputs": [
        {
          "name": "",
          "type": "address[]"
        }
      ],
      "payable": false,
      "stateMutability": "view",
      "type": "function",
      "signature": "0xe2842d79"
    },
    {
      "constant": false,
      "inputs": [
        {
          "name": "_landOnRoad",
          "type": "bool"
        },
        {
          "name": "_proposedLandUse",
          "type": "bytes32"
        },
        {
          "name": "_landArea",
          "type": "bytes32"
        },
        {
          "name": "_jurisdiction",
          "type": "bytes32"
        },
        {
          "name": "_localBodyName",
          "type": "bytes32"
        },
        {
          "name": "_plot",
          "type": "bytes32"
        },
        {
          "name": "_khatian",
          "type": "bytes32"
        },
        {
          "name": "_district",
          "type": "bytes32"
        },
        {
          "name": "_thana",
          "type": "bytes32"
        },
        {
          "name": "_localBody",
          "type": "bytes32"
        },
        {
          "name": "_price",
          "type": "bytes32"
        }
      ],
      "name": "addLand",
      "outputs": [
        {
          "name": "",
          "type": "bool"
        }
      ],
      "payable": false,
      "stateMutability": "nonpayable",
      "type": "function",
      "signature": "0xffa29511"
    },
    {
      "constant": true,
      "inputs": [],
      "name": "getLandCount",
      "outputs": [
        {
          "name": "",
          "type": "uint256"
        }
      ],
      "payable": false,
      "stateMutability": "view",
      "type": "function",
      "signature": "0x5ceaa769"
    },
    {
      "constant": true,
      "inputs": [
        {
          "name": "_price",
          "type": "bytes32"
        }
      ],
      "name": "getLandByPrice",
      "outputs": [
        {
          "name": "",
          "type": "uint256[]"
        }
      ],
      "payable": false,
      "stateMutability": "view",
      "type": "function",
      "signature": "0xc4987aa0"
    }
  ],
  "bytecode": "0x60806040526000805534801561001457600080fd5b50610c15806100246000396000f3fe6080604052600436106100a4576000357c0100000000000000000000000000000000000000000000000000000000900463ffffffff1680635ceaa769146100a957806366b82655146100d4578063b144cc061461014f578063b5cb15f7146101ea578063c4987aa014610215578063cc3d967b146102a5578063d7bce65814610318578063e261f1e514610343578063e2842d7914610392578063ffa29511146103fe575b600080fd5b3480156100b557600080fd5b506100be6104b8565b6040518082815260200191505060405180910390f35b3480156100e057600080fd5b5061010d600480360360208110156100f757600080fd5b81019080803590602001909291905050506104c5565b604051808273ffffffffffffffffffffffffffffffffffffffff1673ffffffffffffffffffffffffffffffffffffffff16815260200191505060405180910390f35b34801561015b57600080fd5b506101d0600480360360c081101561017257600080fd5b81019080803573ffffffffffffffffffffffffffffffffffffffff1690602001909291908035906020019092919080359060200190929190803590602001909291908035906020019092919080359060200190929190505050610503565b604051808215151515815260200191505060405180910390f35b3480156101f657600080fd5b506101ff6106d4565b6040518082815260200191505060405180910390f35b34801561022157600080fd5b5061024e6004803603602081101561023857600080fd5b81019080803590602001909291905050506106e1565b6040518080602001828103825283818151815260200191508051906020019060200280838360005b83811015610291578082015181840152602081019050610276565b505050509050019250505060405180910390f35b3480156102b157600080fd5b506102f4600480360360208110156102c857600080fd5b81019080803573ffffffffffffffffffffffffffffffffffffffff16906020019092919050505061077c565b60405180848152602001838152602001828152602001935050505060405180910390f35b34801561032457600080fd5b5061032d610857565b6040518082815260200191505060405180910390f35b34801561034f57600080fd5b5061037c6004803603602081101561036657600080fd5b810190808035906020019092919050505061085d565b6040518082815260200191505060405180910390f35b34801561039e57600080fd5b506103a7610880565b6040518080602001828103825283818151815260200191508051906020019060200280838360005b838110156103ea5780820151818401526020810190506103cf565b505050509050019250505060405180910390f35b34801561040a57600080fd5b5061049e600480360361016081101561042257600080fd5b810190808035151590602001909291908035906020019092919080359060200190929190803590602001909291908035906020019092919080359060200190929190803590602001909291908035906020019092919080359060200190929190803590602001909291908035906020019092919050505061090e565b604051808215151515815260200191505060405180910390f35b6000600480549050905090565b6002818154811015156104d457fe5b906000526020600020016000915054906101000a900473ffffffffffffffffffffffffffffffffffffffff1681565b600061050d610b2f565b600160008973ffffffffffffffffffffffffffffffffffffffff1673ffffffffffffffffffffffffffffffffffffffff16815260200190815260200160002060a060405190810160405290816000820154815260200160018201548152602001600282015481526020016003820154815260200160048201548152505090506000600190505b600280549050811115156105c55781602001518714156105b8576000925050506106ca565b8080600101915050610593565b508681600001818152505085816020018181525050848160400181815250508381606001818152505082816080018181525050600160028990806001815401808255809150509060018203906000526020600020016000909192909190916101000a81548173ffffffffffffffffffffffffffffffffffffffff021916908373ffffffffffffffffffffffffffffffffffffffff16021790555050507f0434372237c7c6e1607b43e83694a9d949c4f83a878fe2091bac214e317b9abd88604051808273ffffffffffffffffffffffffffffffffffffffff1673ffffffffffffffffffffffffffffffffffffffff16815260200191505060405180910390a160019150505b9695505050505050565b6000600280549050905090565b60606106eb610b6e565b6000600190505b600480549050811115156107745783826101400151141561076757600480548060200260200160405190810160405280929190818152602001828054801561075957602002820191906000526020600020905b815481526020019060010190808311610745575b505050505092505050610777565b80806001019150506106f2565b50505b919050565b6000806000600160008573ffffffffffffffffffffffffffffffffffffffff1673ffffffffffffffffffffffffffffffffffffffff16815260200190815260200160002060000154600160008673ffffffffffffffffffffffffffffffffffffffff1673ffffffffffffffffffffffffffffffffffffffff16815260200190815260200160002060030154600160008773ffffffffffffffffffffffffffffffffffffffff1673ffffffffffffffffffffffffffffffffffffffff168152602001908152602001600020600401549250925092509193909250565b60005481565b60048181548110151561086c57fe5b906000526020600020016000915090505481565b6060600280548060200260200160405190810160405280929190818152602001828054801561090457602002820191906000526020600020905b8160009054906101000a900473ffffffffffffffffffffffffffffffffffffffff1673ffffffffffffffffffffffffffffffffffffffff16815260200190600101908083116108ba575b5050505050905090565b6000333373ffffffffffffffffffffffffffffffffffffffff168173ffffffffffffffffffffffffffffffffffffffff1614151561094b57600080fd5b6000808154809291906001019190505550610964610b6e565b600360003373ffffffffffffffffffffffffffffffffffffffff1673ffffffffffffffffffffffffffffffffffffffff16815260200190815260200160002060008054815260200190815260200160002061016060405190810160405290816000820160009054906101000a900460ff16151515158152602001600182015481526020016002820154815260200160038201548152602001600482015481526020016005820154815260200160068201548152602001600782015481526020016008820154815260200160098201548152602001600a8201548152505090508d8160000190151590811515815250508c8160200181815250508b8160400181815250508a81606001818152505089816080018181525050888160a0018181525050878160c0018181525050868160e0018181525050858161010001818152505084816101200181815250508381610140018181525050600160046000549080600181540180825580915050906001820390600052602060002001600090919290919091505550506000547fea10151a11e055d42149936dd8e94d3e25915236a4d88c263f4e518329f1cfe860405160405180910390a26001925050509b9a5050505050505050505050565b60a06040519081016040528060008019168152602001600080191681526020016000801916815260200160008019168152602001600080191681525090565b6101606040519081016040528060001515815260200160008019168152602001600080191681526020016000801916815260200160008019168152602001600080191681526020016000801916815260200160008019168152602001600080191681526020016000801916815260200160008019168152509056fea165627a7a72305820f8e48a2bb7da0eedf07bafee8334111d98ac0dc8f1abb2458e06ba801671f1900029",
  "source": "pragma solidity >=0.4.21 <0.6.0;\n\ncontract Property {\n\t\n\tstruct User {\n\t\tbytes32 Name;\n\t\tbytes32 AdharNo;\n\t\tbytes32 PanNo;\n\t\tbytes32 email;\n\t\tbytes32 PhoneNo;\n\t}\n\n\tstruct Land {\n\t\tbool LandOnRoad;\n\t\tbytes32 ProposedLandUse;\n\t\tbytes32 LandArea;\n\t\tbytes32 Jurisdiction;\n\t\tbytes32 LocalBodyName;\n\t\tbytes32 Plot;\n\t\tbytes32 Khatian;\n\t\tbytes32 District;\n\t\tbytes32 Thana;\n\t\tbytes32 LocalBody;\n\t\tbytes32 Price;\n\t}\n\n\tmodifier onlyOwner(address _user) { \n\t\trequire (_user == msg.sender); \n\t\t_; \n\t}\n\n\tuint public landCount = 0;\n\n\tmapping (address => User) users;\n\taddress[] public userAcc;\n\n\tmapping (address => mapping(uint => Land)) userLands;\n\tuint[] public lands;\n\n\tevent addUsers (address newUser);\n\n\tevent addLands (uint indexed _landId);\n\n\tfunction addUser (address _address, bytes32 _name, bytes32 _adharNo, bytes32 _panNo, bytes32 _email, bytes32 _phoneNo) public returns(bool) {\n\t\tUser memory user = users[_address];\n\t\tfor(uint i=1; i<=userAcc.length; i++) {\n\t\t\tif(_adharNo == user.AdharNo) {\n\t\t\t\t\"User ID Already Exists!\";\n\t\t\t\treturn false;\n\t\t\t}\n\t\t}\n\t\tuser.Name = _name;\n\t\tuser.AdharNo = _adharNo;\n\t\tuser.PanNo = _panNo;\n\t\tuser.email = _email;\n\t\tuser.PhoneNo = _phoneNo;\n\t\tuserAcc.push(_address) -1;\n\t\temit addUsers(_address);\n\t\treturn true;\n\t}\n\n\tfunction getUserCount () public view returns(uint) {\n\t\treturn userAcc.length;\n\t}\n\t\n\tfunction getUserDetails (address _address) public view returns(bytes32, bytes32, bytes32) {\n\t\treturn (users[_address].Name, users[_address].email, users[_address].PhoneNo);\n\t}\n\n\tfunction getAllUsers () public view returns (address[] memory) {\n\t\treturn userAcc;\n\t}\n\n\tfunction addLand (bool _landOnRoad, bytes32 _proposedLandUse, bytes32 _landArea, bytes32 _jurisdiction, bytes32 _localBodyName, bytes32 _plot, bytes32 _khatian, bytes32 _district, bytes32 _thana, bytes32 _localBody, bytes32 _price) public onlyOwner(msg.sender) returns (bool) {\n\t\tlandCount++;\n\t\tLand memory land = userLands[msg.sender][landCount];\n\t\tland.LandOnRoad = _landOnRoad;\n\t\tland.ProposedLandUse = _proposedLandUse;\n\t\tland.LandArea = _landArea;\n\t\tland.Jurisdiction = _jurisdiction;\n\t\tland.LocalBodyName = _localBodyName;\n\t\tland.Plot = _plot;\n\t\tland.Khatian = _khatian;\n\t\tland.District = _district;\n\t\tland.Thana = _thana;\n\t\tland.LocalBody = _localBody;\n\t\tland.Price = _price;\n\t\tlands.push(landCount) -1;\n\t\temit addLands(landCount);\n\t\treturn true;\n\t}\n\n\tfunction getLandCount () public view returns(uint) {\n\t\treturn lands.length;\n\t}\n\n\tfunction getLandByPrice (bytes32 _price) public view returns(uint[] memory) {\n\t\tLand memory land;\n\t\tfor (uint i = 1; i <= lands.length; i++) { \n\t\t\tif (land.Price == _price) {\n\t\t\t\treturn lands;\n\t\t\t}\n\t\t}\n\t}\t\n}",
  "sourcePath": "F:/blockchain/projects/finalyearproject/landregistry/contracts/Property.sol",
  "compiler": {
    "name": "solc",
    "version": "0.5.0+commit.1d4f565a.Emscripten.clang"
  },
  "schemaVersion": "3.0.6",
  "updatedAt": "2019-04-14T06:04:11.135Z",
  "devdoc": {
    "methods": {}
  },
  "userdoc": {
    "methods": {}
  }
}