{
  "contractName": "Property",
  "abi": [
    {
      "constant": true,
      "inputs": [
        {
          "name": "",
          "type": "uint256"
        }
      ],
      "name": "userAcc",
      "outputs": [
        {
          "name": "",
          "type": "address"
        }
      ],
      "payable": false,
      "stateMutability": "view",
      "type": "function",
      "signature": "0x66b82655"
    },
    {
      "constant": true,
      "inputs": [],
      "name": "landCount",
      "outputs": [
        {
          "name": "",
          "type": "uint256"
        }
      ],
      "payable": false,
      "stateMutability": "view",
      "type": "function",
      "signature": "0xd7bce658"
    },
    {
      "constant": true,
      "inputs": [],
      "name": "Rera",
      "outputs": [
        {
          "name": "",
          "type": "address"
        }
      ],
      "payable": false,
      "stateMutability": "view",
      "type": "function",
      "signature": "0xdcbfb397"
    },
    {
      "constant": true,
      "inputs": [
        {
          "name": "",
          "type": "uint256"
        }
      ],
      "name": "lands",
      "outputs": [
        {
          "name": "",
          "type": "uint256"
        }
      ],
      "payable": false,
      "stateMutability": "view",
      "type": "function",
      "signature": "0xe261f1e5"
    },
    {
      "constant": true,
      "inputs": [],
      "name": "admin",
      "outputs": [
        {
          "name": "",
          "type": "address"
        }
      ],
      "payable": false,
      "stateMutability": "view",
      "type": "function",
      "signature": "0xf851a440"
    },
    {
      "inputs": [],
      "payable": false,
      "stateMutability": "nonpayable",
      "type": "constructor",
      "signature": "constructor"
    },
    {
      "anonymous": false,
      "inputs": [
        {
          "indexed": false,
          "name": "newUser",
          "type": "address"
        }
      ],
      "name": "addUsers",
      "type": "event",
      "signature": "0x0434372237c7c6e1607b43e83694a9d949c4f83a878fe2091bac214e317b9abd"
    },
    {
      "anonymous": false,
      "inputs": [
        {
          "indexed": true,
          "name": "_landId",
          "type": "uint256"
        }
      ],
      "name": "addLands",
      "type": "event",
      "signature": "0xea10151a11e055d42149936dd8e94d3e25915236a4d88c263f4e518329f1cfe8"
    },
    {
      "anonymous": false,
      "inputs": [
        {
          "indexed": true,
          "name": "_from",
          "type": "address"
        },
        {
          "indexed": true,
          "name": "_to",
          "type": "address"
        },
        {
          "indexed": false,
          "name": "_value",
          "type": "uint256"
        }
      ],
      "name": "Transfer",
      "type": "event",
      "signature": "0xddf252ad1be2c89b69c2b068fc378daa952ba7f163c4a11628f55a4df523b3ef"
    },
    {
      "constant": false,
      "inputs": [
        {
          "name": "_address",
          "type": "address"
        },
        {
          "name": "_name",
          "type": "string"
        },
        {
          "name": "_adharNo",
          "type": "string"
        },
        {
          "name": "_panNo",
          "type": "string"
        },
        {
          "name": "_email",
          "type": "string"
        },
        {
          "name": "_phoneNo",
          "type": "uint256"
        }
      ],
      "name": "addUser",
      "outputs": [
        {
          "name": "",
          "type": "bool"
        }
      ],
      "payable": false,
      "stateMutability": "nonpayable",
      "type": "function",
      "signature": "0xa9a2f4eb"
    },
    {
      "constant": true,
      "inputs": [],
      "name": "getUserCount",
      "outputs": [
        {
          "name": "",
          "type": "uint256"
        }
      ],
      "payable": false,
      "stateMutability": "view",
      "type": "function",
      "signature": "0xb5cb15f7"
    },
    {
      "constant": true,
      "inputs": [
        {
          "name": "_address",
          "type": "address"
        }
      ],
      "name": "getUserDetails",
      "outputs": [
        {
          "name": "",
          "type": "string"
        },
        {
          "name": "",
          "type": "string"
        },
        {
          "name": "",
          "type": "uint256"
        }
      ],
      "payable": false,
      "stateMutability": "view",
      "type": "function",
      "signature": "0xcc3d967b"
    },
    {
      "constant": true,
      "inputs": [],
      "name": "getAllUsers",
      "outputs": [
        {
          "name": "",
          "type": "address[]"
        }
      ],
      "payable": false,
      "stateMutability": "view",
      "type": "function",
      "signature": "0xe2842d79"
    },
    {
      "constant": false,
      "inputs": [
        {
          "name": "_landOnRoad",
          "type": "bool"
        },
        {
          "name": "_proposedLandUse",
          "type": "string"
        },
        {
          "name": "_landArea",
          "type": "string"
        },
        {
          "name": "_jurisdiction",
          "type": "string"
        },
        {
          "name": "_localBodyName",
          "type": "string"
        },
        {
          "name": "_plot",
          "type": "string"
        },
        {
          "name": "_khatian",
          "type": "string"
        },
        {
          "name": "_district",
          "type": "string"
        },
        {
          "name": "_thana",
          "type": "string"
        },
        {
          "name": "_localBody",
          "type": "string"
        },
        {
          "name": "_price",
          "type": "uint256"
        }
      ],
      "name": "addLand",
      "outputs": [
        {
          "name": "",
          "type": "bool"
        }
      ],
      "payable": false,
      "stateMutability": "nonpayable",
      "type": "function",
      "signature": "0x51151dc0"
    },
    {
      "constant": false,
      "inputs": [
        {
          "name": "_landId",
          "type": "uint256"
        }
      ],
      "name": "approveLand",
      "outputs": [
        {
          "name": "",
          "type": "bool"
        }
      ],
      "payable": false,
      "stateMutability": "nonpayable",
      "type": "function",
      "signature": "0x38c887b2"
    },
    {
      "constant": true,
      "inputs": [],
      "name": "getLandCount",
      "outputs": [
        {
          "name": "",
          "type": "uint256"
        }
      ],
      "payable": false,
      "stateMutability": "view",
      "type": "function",
      "signature": "0x5ceaa769"
    },
    {
      "constant": false,
      "inputs": [
        {
          "name": "_landId",
          "type": "uint256"
        },
        {
          "name": "_newOwner",
          "type": "address"
        }
      ],
      "name": "changeLandOwner",
      "outputs": [
        {
          "name": "",
          "type": "bool"
        }
      ],
      "payable": false,
      "stateMutability": "nonpayable",
      "type": "function",
      "signature": "0x6f31f6ad"
    },
    {
      "constant": false,
      "inputs": [
        {
          "name": "_landId",
          "type": "uint256"
        }
      ],
      "name": "approveChangeOwner",
      "outputs": [
        {
          "name": "",
          "type": "bool"
        }
      ],
      "payable": false,
      "stateMutability": "nonpayable",
      "type": "function",
      "signature": "0x69cdba9a"
    },
    {
      "constant": false,
      "inputs": [
        {
          "name": "_to",
          "type": "address"
        },
        {
          "name": "_value",
          "type": "uint256"
        }
      ],
      "name": "transfer",
      "outputs": [
        {
          "name": "",
          "type": "bool"
        }
      ],
      "payable": false,
      "stateMutability": "nonpayable",
      "type": "function",
      "signature": "0xa9059cbb"
    },
    {
      "constant": false,
      "inputs": [
        {
          "name": "_landId",
          "type": "uint256"
        },
        {
          "name": "_newPrice",
          "type": "uint256"
        }
      ],
      "name": "changeLandPrice",
      "outputs": [
        {
          "name": "",
          "type": "bool"
        }
      ],
      "payable": false,
      "stateMutability": "nonpayable",
      "type": "function",
      "signature": "0xd9bc25e0"
    },
    {
      "constant": true,
      "inputs": [
        {
          "name": "_price",
          "type": "uint256"
        }
      ],
      "name": "getLandByPrice",
      "outputs": [
        {
          "name": "",
          "type": "uint256[]"
        }
      ],
      "payable": false,
      "stateMutability": "view",
      "type": "function",
      "signature": "0x10e1b7af"
    },
    {
      "constant": true,
      "inputs": [
        {
          "name": "_landArea",
          "type": "string"
        }
      ],
      "name": "getLandByLandArea",
      "outputs": [
        {
          "name": "",
          "type": "uint256[]"
        }
      ],
      "payable": false,
      "stateMutability": "view",
      "type": "function",
      "signature": "0xed1b6c68"
    },
    {
      "constant": true,
      "inputs": [
        {
          "name": "_district",
          "type": "string"
        }
      ],
      "name": "getLandByDistrict",
      "outputs": [
        {
          "name": "",
          "type": "uint256[]"
        }
      ],
      "payable": false,
      "stateMutability": "view",
      "type": "function",
      "signature": "0x3cb297ec"
    },
    {
      "constant": true,
      "inputs": [
        {
          "name": "_landOnRoad",
          "type": "string"
        }
      ],
      "name": "getLandByLandOnRoad",
      "outputs": [
        {
          "name": "",
          "type": "uint256[]"
        }
      ],
      "payable": false,
      "stateMutability": "view",
      "type": "function",
      "signature": "0xf347ef5f"
    }
  ],
  "bytecode": "0x6080604052600060025534801561001557600080fd5b50336000806101000a81548173ffffffffffffffffffffffffffffffffffffffff021916908373ffffffffffffffffffffffffffffffffffffffff1602179055506002600160006101000a81548173ffffffffffffffffffffffffffffffffffffffff021916908373ffffffffffffffffffffffffffffffffffffffff160217905550612faf806100a76000396000f3fe608060405260043610610112576000357c0100000000000000000000000000000000000000000000000000000000900463ffffffff16806310e1b7af1461011757806338c887b2146101a75780633cb297ec146101fa57806351151dc0146103175780635ceaa769146108c657806366b82655146108f157806369cdba9a1461096c5780636f31f6ad146109bf578063a9059cbb14610a32578063a9a2f4eb14610aa5578063b5cb15f714610d74578063cc3d967b14610d9f578063d7bce65814610edc578063d9bc25e014610f07578063dcbfb39714610f64578063e261f1e514610fbb578063e2842d791461100a578063ed1b6c6814611076578063f347ef5f14611193578063f851a440146112b0575b600080fd5b34801561012357600080fd5b506101506004803603602081101561013a57600080fd5b8101908080359060200190929190505050611307565b6040518080602001828103825283818151815260200191508051906020019060200280838360005b83811015610193578082015181840152602081019050610178565b505050509050019250505060405180910390f35b3480156101b357600080fd5b506101e0600480360360208110156101ca57600080fd5b81019080803590602001909291905050506113a2565b604051808215151515815260200191505060405180910390f35b34801561020657600080fd5b506102c06004803603602081101561021d57600080fd5b810190808035906020019064010000000081111561023a57600080fd5b82018360208201111561024c57600080fd5b8035906020019184600183028401116401000000008311171561026e57600080fd5b91908080601f016020809104026020016040519081016040528093929190818152602001838380828437600081840152601f19601f820116905080830192505050505050509192919290505050611464565b6040518080602001828103825283818151815260200191508051906020019060200280838360005b838110156103035780820151818401526020810190506102e8565b505050509050019250505060405180910390f35b34801561032357600080fd5b506108ac600480360361016081101561033b57600080fd5b810190808035151590602001909291908035906020019064010000000081111561036457600080fd5b82018360208201111561037657600080fd5b8035906020019184600183028401116401000000008311171561039857600080fd5b91908080601f016020809104026020016040519081016040528093929190818152602001838380828437600081840152601f19601f820116905080830192505050505050509192919290803590602001906401000000008111156103fb57600080fd5b82018360208201111561040d57600080fd5b8035906020019184600183028401116401000000008311171561042f57600080fd5b91908080601f016020809104026020016040519081016040528093929190818152602001838380828437600081840152601f19601f8201169050808301925050505050505091929192908035906020019064010000000081111561049257600080fd5b8201836020820111156104a457600080fd5b803590602001918460018302840111640100000000831117156104c657600080fd5b91908080601f016020809104026020016040519081016040528093929190818152602001838380828437600081840152601f19601f8201169050808301925050505050505091929192908035906020019064010000000081111561052957600080fd5b82018360208201111561053b57600080fd5b8035906020019184600183028401116401000000008311171561055d57600080fd5b91908080601f016020809104026020016040519081016040528093929190818152602001838380828437600081840152601f19601f820116905080830192505050505050509192919290803590602001906401000000008111156105c057600080fd5b8201836020820111156105d257600080fd5b803590602001918460018302840111640100000000831117156105f457600080fd5b91908080601f016020809104026020016040519081016040528093929190818152602001838380828437600081840152601f19601f8201169050808301925050505050505091929192908035906020019064010000000081111561065757600080fd5b82018360208201111561066957600080fd5b8035906020019184600183028401116401000000008311171561068b57600080fd5b91908080601f016020809104026020016040519081016040528093929190818152602001838380828437600081840152601f19601f820116905080830192505050505050509192919290803590602001906401000000008111156106ee57600080fd5b82018360208201111561070057600080fd5b8035906020019184600183028401116401000000008311171561072257600080fd5b91908080601f016020809104026020016040519081016040528093929190818152602001838380828437600081840152601f19601f8201169050808301925050505050505091929192908035906020019064010000000081111561078557600080fd5b82018360208201111561079757600080fd5b803590602001918460018302840111640100000000831117156107b957600080fd5b91908080601f016020809104026020016040519081016040528093929190818152602001838380828437600081840152601f19601f8201169050808301925050505050505091929192908035906020019064010000000081111561081c57600080fd5b82018360208201111561082e57600080fd5b8035906020019184600183028401116401000000008311171561085057600080fd5b91908080601f016020809104026020016040519081016040528093929190818152602001838380828437600081840152601f19601f820116905080830192505050505050509192919290803590602001909291905050506115ed565b604051808215151515815260200191505060405180910390f35b3480156108d257600080fd5b506108db611da2565b6040518082815260200191505060405180910390f35b3480156108fd57600080fd5b5061092a6004803603602081101561091457600080fd5b8101908080359060200190929190505050611daf565b604051808273ffffffffffffffffffffffffffffffffffffffff1673ffffffffffffffffffffffffffffffffffffffff16815260200191505060405180910390f35b34801561097857600080fd5b506109a56004803603602081101561098f57600080fd5b8101908080359060200190929190505050611ded565b604051808215151515815260200191505060405180910390f35b3480156109cb57600080fd5b50610a18600480360360408110156109e257600080fd5b8101908080359060200190929190803573ffffffffffffffffffffffffffffffffffffffff169060200190929190505050611f9d565b604051808215151515815260200191505060405180910390f35b348015610a3e57600080fd5b50610a8b60048036036040811015610a5557600080fd5b81019080803573ffffffffffffffffffffffffffffffffffffffff1690602001909291908035906020019092919050505061214c565b604051808215151515815260200191505060405180910390f35b348015610ab157600080fd5b50610d5a600480360360c0811015610ac857600080fd5b81019080803573ffffffffffffffffffffffffffffffffffffffff16906020019092919080359060200190640100000000811115610b0557600080fd5b820183602082011115610b1757600080fd5b80359060200191846001830284011164010000000083111715610b3957600080fd5b91908080601f016020809104026020016040519081016040528093929190818152602001838380828437600081840152601f19601f82011690508083019250505050505050919291929080359060200190640100000000811115610b9c57600080fd5b820183602082011115610bae57600080fd5b80359060200191846001830284011164010000000083111715610bd057600080fd5b91908080601f016020809104026020016040519081016040528093929190818152602001838380828437600081840152601f19601f82011690508083019250505050505050919291929080359060200190640100000000811115610c3357600080fd5b820183602082011115610c4557600080fd5b80359060200191846001830284011164010000000083111715610c6757600080fd5b91908080601f016020809104026020016040519081016040528093929190818152602001838380828437600081840152601f19601f82011690508083019250505050505050919291929080359060200190640100000000811115610cca57600080fd5b820183602082011115610cdc57600080fd5b80359060200191846001830284011164010000000083111715610cfe57600080fd5b91908080601f016020809104026020016040519081016040528093929190818152602001838380828437600081840152601f19601f820116905080830192505050505050509192919290803590602001909291905050506122a5565b604051808215151515815260200191505060405180910390f35b348015610d8057600080fd5b50610d896127c0565b6040518082815260200191505060405180910390f35b348015610dab57600080fd5b50610dee60048036036020811015610dc257600080fd5b81019080803573ffffffffffffffffffffffffffffffffffffffff1690602001909291905050506127cd565b604051808060200180602001848152602001838103835286818151815260200191508051906020019080838360005b83811015610e38578082015181840152602081019050610e1d565b50505050905090810190601f168015610e655780820380516001836020036101000a031916815260200191505b50838103825285818151815260200191508051906020019080838360005b83811015610e9e578082015181840152602081019050610e83565b50505050905090810190601f168015610ecb5780820380516001836020036101000a031916815260200191505b509550505050505060405180910390f35b348015610ee857600080fd5b50610ef16129de565b6040518082815260200191505060405180910390f35b348015610f1357600080fd5b50610f4a60048036036040811015610f2a57600080fd5b8101908080359060200190929190803590602001909291905050506129e4565b604051808215151515815260200191505060405180910390f35b348015610f7057600080fd5b50610f79612aeb565b604051808273ffffffffffffffffffffffffffffffffffffffff1673ffffffffffffffffffffffffffffffffffffffff16815260200191505060405180910390f35b348015610fc757600080fd5b50610ff460048036036020811015610fde57600080fd5b8101908080359060200190929190505050612b11565b6040518082815260200191505060405180910390f35b34801561101657600080fd5b5061101f612b34565b6040518080602001828103825283818151815260200191508051906020019060200280838360005b83811015611062578082015181840152602081019050611047565b505050509050019250505060405180910390f35b34801561108257600080fd5b5061113c6004803603602081101561109957600080fd5b81019080803590602001906401000000008111156110b657600080fd5b8201836020820111156110c857600080fd5b803590602001918460018302840111640100000000831117156110ea57600080fd5b91908080601f016020809104026020016040519081016040528093929190818152602001838380828437600081840152601f19601f820116905080830192505050505050509192919290505050612bc2565b6040518080602001828103825283818151815260200191508051906020019060200280838360005b8381101561117f578082015181840152602081019050611164565b505050509050019250505060405180910390f35b34801561119f57600080fd5b50611259600480360360208110156111b657600080fd5b81019080803590602001906401000000008111156111d357600080fd5b8201836020820111156111e557600080fd5b8035906020019184600183028401116401000000008311171561120757600080fd5b91908080601f016020809104026020016040519081016040528093929190818152602001838380828437600081840152601f19601f820116905080830192505050505050509192919290505050612d4a565b6040518080602001828103825283818151815260200191508051906020019060200280838360005b8381101561129c578082015181840152602081019050611281565b505050509050019250505060405180910390f35b3480156112bc57600080fd5b506112c5612eab565b604051808273ffffffffffffffffffffffffffffffffffffffff1673ffffffffffffffffffffffffffffffffffffffff16815260200191505060405180910390f35b6060611311612ed0565b6000600190505b6006805490508111151561139a5783826101800151141561138d57600680548060200260200160405190810160405280929190818152602001828054801561137f57602002820191906000526020600020905b81548152602001906001019080831161136b575b50505050509250505061139d565b8080600101915050611318565b50505b919050565b6000600160009054906101000a900473ffffffffffffffffffffffffffffffffffffffff1673ffffffffffffffffffffffffffffffffffffffff163373ffffffffffffffffffffffffffffffffffffffff1614151561140057600080fd5b60016005600084815260200190815260200160002060000160146101000a81548160ff02191690831515021790555060016008600084815260200190815260200160002060006101000a81548160ff02191690831515021790555060019050919050565b606061146e612ed0565b6000600190505b600680549050811115156115e557836040516020018082805190602001908083835b6020831015156114bc5780518252602082019150602081019050602083039250611497565b6001836020036101000a03801982511681845116808217855250505050505090500191505060405160208183030381529060405280519060200120600190048261012001516040516020018082805190602001908083835b6020831015156115395780518252602082019150602081019050602083039250611514565b6001836020036101000a038019825116818451168082178552505050505050905001915050604051602081830303815290604052805190602001206001900414156115d85760068054806020026020016040519081016040528092919081815260200182805480156115ca57602002820191906000526020600020905b8154815260200190600101908083116115b6575b5050505050925050506115e8565b8080600101915050611475565b50505b919050565b6000600260008154809291906001019190505550611609612ed0565b6005600060025481526020019081526020016000206101a060405190810160405290816000820160009054906101000a900473ffffffffffffffffffffffffffffffffffffffff1673ffffffffffffffffffffffffffffffffffffffff1673ffffffffffffffffffffffffffffffffffffffff1681526020016000820160149054906101000a900460ff161515151581526020016000820160159054906101000a900460ff16151515158152602001600182018054600181600116156101000203166002900480601f0160208091040260200160405190810160405280929190818152602001828054600181600116156101000203166002900480156117505780601f1061172557610100808354040283529160200191611750565b820191906000526020600020905b81548152906001019060200180831161173357829003601f168201915b50505050508152602001600282018054600181600116156101000203166002900480601f0160208091040260200160405190810160405280929190818152602001828054600181600116156101000203166002900480156117f25780601f106117c7576101008083540402835291602001916117f2565b820191906000526020600020905b8154815290600101906020018083116117d557829003601f168201915b50505050508152602001600382018054600181600116156101000203166002900480601f0160208091040260200160405190810160405280929190818152602001828054600181600116156101000203166002900480156118945780601f1061186957610100808354040283529160200191611894565b820191906000526020600020905b81548152906001019060200180831161187757829003601f168201915b50505050508152602001600482018054600181600116156101000203166002900480601f0160208091040260200160405190810160405280929190818152602001828054600181600116156101000203166002900480156119365780601f1061190b57610100808354040283529160200191611936565b820191906000526020600020905b81548152906001019060200180831161191957829003601f168201915b50505050508152602001600582018054600181600116156101000203166002900480601f0160208091040260200160405190810160405280929190818152602001828054600181600116156101000203166002900480156119d85780601f106119ad576101008083540402835291602001916119d8565b820191906000526020600020905b8154815290600101906020018083116119bb57829003601f168201915b50505050508152602001600682018054600181600116156101000203166002900480601f016020809104026020016040519081016040528092919081815260200182805460018160011615610100020316600290048015611a7a5780601f10611a4f57610100808354040283529160200191611a7a565b820191906000526020600020905b815481529060010190602001808311611a5d57829003601f168201915b50505050508152602001600782018054600181600116156101000203166002900480601f016020809104026020016040519081016040528092919081815260200182805460018160011615610100020316600290048015611b1c5780601f10611af157610100808354040283529160200191611b1c565b820191906000526020600020905b815481529060010190602001808311611aff57829003601f168201915b50505050508152602001600882018054600181600116156101000203166002900480601f016020809104026020016040519081016040528092919081815260200182805460018160011615610100020316600290048015611bbe5780601f10611b9357610100808354040283529160200191611bbe565b820191906000526020600020905b815481529060010190602001808311611ba157829003601f168201915b50505050508152602001600982018054600181600116156101000203166002900480601f016020809104026020016040519081016040528092919081815260200182805460018160011615610100020316600290048015611c605780601f10611c3557610100808354040283529160200191611c60565b820191906000526020600020905b815481529060010190602001808311611c4357829003601f168201915b50505050508152602001600a82015481525050905033816000019073ffffffffffffffffffffffffffffffffffffffff16908173ffffffffffffffffffffffffffffffffffffffff168152505060008160200190151590811515815250508c8160400190151590811515815250508b81606001819052508a8160800181905250898160a00181905250888160c00181905250878160e00181905250868161010001819052508581610120018190525084816101400181905250838161016001819052508281610180018181525050600160066002549080600181540180825580915050906001820390600052602060002001600090919290919091505550506002547fea10151a11e055d42149936dd8e94d3e25915236a4d88c263f4e518329f1cfe860405160405180910390a260019150509b9a5050505050505050505050565b6000600680549050905090565b600481815481101515611dbe57fe5b906000526020600020016000915054906101000a900473ffffffffffffffffffffffffffffffffffffffff1681565b60008060009054906101000a900473ffffffffffffffffffffffffffffffffffffffff1673ffffffffffffffffffffffffffffffffffffffff163373ffffffffffffffffffffffffffffffffffffffff16141515611e4a57600080fd5b600073ffffffffffffffffffffffffffffffffffffffff166007600084815260200190815260200160002060009054906101000a900473ffffffffffffffffffffffffffffffffffffffff1673ffffffffffffffffffffffffffffffffffffffff1614151515611eb957600080fd5b6007600083815260200190815260200160002060009054906101000a900473ffffffffffffffffffffffffffffffffffffffff166005600084815260200190815260200160002060000160006101000a81548173ffffffffffffffffffffffffffffffffffffffff021916908373ffffffffffffffffffffffffffffffffffffffff16021790555060006007600084815260200190815260200160002060006101000a81548173ffffffffffffffffffffffffffffffffffffffff021916908373ffffffffffffffffffffffffffffffffffffffff16021790555060019050919050565b6000823373ffffffffffffffffffffffffffffffffffffffff166005600083815260200190815260200160002060000160009054906101000a900473ffffffffffffffffffffffffffffffffffffffff1673ffffffffffffffffffffffffffffffffffffffff1614151561201057600080fd5b8273ffffffffffffffffffffffffffffffffffffffff166005600086815260200190815260200160002060000160009054906101000a900473ffffffffffffffffffffffffffffffffffffffff1673ffffffffffffffffffffffffffffffffffffffff161415151561208157600080fd5b600073ffffffffffffffffffffffffffffffffffffffff166007600086815260200190815260200160002060009054906101000a900473ffffffffffffffffffffffffffffffffffffffff1673ffffffffffffffffffffffffffffffffffffffff161415156120ef57600080fd5b826007600086815260200190815260200160002060006101000a81548173ffffffffffffffffffffffffffffffffffffffff021916908373ffffffffffffffffffffffffffffffffffffffff160217905550600191505092915050565b600081600960003373ffffffffffffffffffffffffffffffffffffffff1673ffffffffffffffffffffffffffffffffffffffff168152602001908152602001600020541015151561219c57600080fd5b81600960003373ffffffffffffffffffffffffffffffffffffffff1673ffffffffffffffffffffffffffffffffffffffff1681526020019081526020016000206000828254039250508190555081600960008573ffffffffffffffffffffffffffffffffffffffff1673ffffffffffffffffffffffffffffffffffffffff168152602001908152602001600020600082825401925050819055508273ffffffffffffffffffffffffffffffffffffffff163373ffffffffffffffffffffffffffffffffffffffff167fddf252ad1be2c89b69c2b068fc378daa952ba7f163c4a11628f55a4df523b3ef846040518082815260200191505060405180910390a36001905092915050565b60006122af612f53565b600360008973ffffffffffffffffffffffffffffffffffffffff1673ffffffffffffffffffffffffffffffffffffffff16815260200190815260200160002060a06040519081016040529081600082018054600181600116156101000203166002900480601f0160208091040260200160405190810160405280929190818152602001828054600181600116156101000203166002900480156123935780601f1061236857610100808354040283529160200191612393565b820191906000526020600020905b81548152906001019060200180831161237657829003601f168201915b50505050508152602001600182018054600181600116156101000203166002900480601f0160208091040260200160405190810160405280929190818152602001828054600181600116156101000203166002900480156124355780601f1061240a57610100808354040283529160200191612435565b820191906000526020600020905b81548152906001019060200180831161241857829003601f168201915b50505050508152602001600282018054600181600116156101000203166002900480601f0160208091040260200160405190810160405280929190818152602001828054600181600116156101000203166002900480156124d75780601f106124ac576101008083540402835291602001916124d7565b820191906000526020600020905b8154815290600101906020018083116124ba57829003601f168201915b50505050508152602001600382018054600181600116156101000203166002900480601f0160208091040260200160405190810160405280929190818152602001828054600181600116156101000203166002900480156125795780601f1061254e57610100808354040283529160200191612579565b820191906000526020600020905b81548152906001019060200180831161255c57829003601f168201915b5050505050815260200160048201548152505090506000600190505b600480549050811115156126b55781602001516040516020018082805190602001908083835b6020831015156125e057805182526020820191506020810190506020830392506125bb565b6001836020036101000a0380198251168184511680821785525050505050509050019150506040516020818303038152906040528051906020012060019004876040516020018082805190602001908083835b6020831015156126585780518252602082019150602081019050602083039250612633565b6001836020036101000a038019825116818451168082178552505050505050905001915050604051602081830303815290604052805190602001206001900414156126a8576000925050506127b6565b8080600101915050612595565b5086816000018190525085816020018190525084816040018190525083816060018190525082816080018181525050600160048990806001815401808255809150509060018203906000526020600020016000909192909190916101000a81548173ffffffffffffffffffffffffffffffffffffffff021916908373ffffffffffffffffffffffffffffffffffffffff16021790555050507f0434372237c7c6e1607b43e83694a9d949c4f83a878fe2091bac214e317b9abd88604051808273ffffffffffffffffffffffffffffffffffffffff1673ffffffffffffffffffffffffffffffffffffffff16815260200191505060405180910390a160019150505b9695505050505050565b6000600480549050905090565b6060806000600360008573ffffffffffffffffffffffffffffffffffffffff1673ffffffffffffffffffffffffffffffffffffffff168152602001908152602001600020600001600360008673ffffffffffffffffffffffffffffffffffffffff1673ffffffffffffffffffffffffffffffffffffffff168152602001908152602001600020600301600360008773ffffffffffffffffffffffffffffffffffffffff1673ffffffffffffffffffffffffffffffffffffffff16815260200190815260200160002060040154828054600181600116156101000203166002900480601f01602080910402602001604051908101604052809291908181526020018280546001816001161561010002031660029004801561292e5780601f106129035761010080835404028352916020019161292e565b820191906000526020600020905b81548152906001019060200180831161291157829003601f168201915b50505050509250818054600181600116156101000203166002900480601f0160208091040260200160405190810160405280929190818152602001828054600181600116156101000203166002900480156129ca5780601f1061299f576101008083540402835291602001916129ca565b820191906000526020600020905b8154815290600101906020018083116129ad57829003601f168201915b505050505091509250925092509193909250565b60025481565b6000823373ffffffffffffffffffffffffffffffffffffffff166005600083815260200190815260200160002060000160009054906101000a900473ffffffffffffffffffffffffffffffffffffffff1673ffffffffffffffffffffffffffffffffffffffff16141515612a5757600080fd5b600073ffffffffffffffffffffffffffffffffffffffff166007600086815260200190815260200160002060009054906101000a900473ffffffffffffffffffffffffffffffffffffffff1673ffffffffffffffffffffffffffffffffffffffff16141515612ac557600080fd5b8260056000868152602001908152602001600020600a0181905550600191505092915050565b600160009054906101000a900473ffffffffffffffffffffffffffffffffffffffff1681565b600681815481101515612b2057fe5b906000526020600020016000915090505481565b60606004805480602002602001604051908101604052809291908181526020018280548015612bb857602002820191906000526020600020905b8160009054906101000a900473ffffffffffffffffffffffffffffffffffffffff1673ffffffffffffffffffffffffffffffffffffffff1681526020019060010190808311612b6e575b5050505050905090565b6060612bcc612ed0565b6000600190505b60068054905081111515612d4257836040516020018082805190602001908083835b602083101515612c1a5780518252602082019150602081019050602083039250612bf5565b6001836020036101000a038019825116818451168082178552505050505050905001915050604051602081830303815290604052805190602001206001900482608001516040516020018082805190602001908083835b602083101515612c965780518252602082019150602081019050602083039250612c71565b6001836020036101000a03801982511681845116808217855250505050505090500191505060405160208183030381529060405280519060200120600190041415612d35576006805480602002602001604051908101604052809291908181526020018280548015612d2757602002820191906000526020600020905b815481526020019060010190808311612d13575b505050505092505050612d45565b8080600101915050612bd3565b50505b919050565b6060612d54612ed0565b6000600190505b60068054905081111515612ea357836040516020018082805190602001908083835b602083101515612da25780518252602082019150602081019050602083039250612d7d565b6001836020036101000a038019825116818451168082178552505050505050905001915050604051602081830303815290604052805190602001206001900482604001516040516020018082151515157f010000000000000000000000000000000000000000000000000000000000000002815260010191505060405160208183030381529060405280519060200120600190041415612e96576006805480602002602001604051908101604052809291908181526020018280548015612e8857602002820191906000526020600020905b815481526020019060010190808311612e74575b505050505092505050612ea6565b8080600101915050612d5b565b50505b919050565b6000809054906101000a900473ffffffffffffffffffffffffffffffffffffffff1681565b6101a060405190810160405280600073ffffffffffffffffffffffffffffffffffffffff168152602001600015158152602001600015158152602001606081526020016060815260200160608152602001606081526020016060815260200160608152602001606081526020016060815260200160608152602001600081525090565b60a0604051908101604052806060815260200160608152602001606081526020016060815260200160008152509056fea165627a7a7230582046d2c73e22c4a50e93377be5921faabda1104175c0553d30f2e80cf592abf9130029",
  "source": "pragma solidity >=0.4.21 <0.6.0;\n\ncontract Property {\n\t//UIDAI - Unique Identification Authority of India\n\taddress public admin;\n\t//address public Uidai;\n\taddress public Rera;\n\t\n\tstruct User {\n\t\tstring Name;\n\t\tstring AdharNo;\n\t\tstring PanNo;\n\t\tstring email;\n\t\tuint PhoneNo;\n\t}\n\n\tstruct Land {\n\t\taddress currOwner;\n\t\tbool verifiedByRera;\n\t\tbool LandOnRoad;\n\t\tstring ProposedLandUse;\n\t\tstring LandArea;\n\t\tstring Jurisdiction;\n\t\tstring LocalBodyName;\n\t\tstring Plot;\n\t\tstring Khatian;\n\t\tstring District;\n\t\tstring Thana;\n\t\tstring LocalBody;\n\t\tuint Price;\n\t}\n\n\tuint public landCount = 0;\n\n\tmapping (address => User) users;\n\taddress[] public userAcc;\n\n\tmapping (uint => Land) userLands;\n\tuint[] public lands;\n\n\tmapping (uint => address) landOwnerChange;\n\n\tmapping (uint => bool) verifiedLands;\n\n\tmapping (address => uint256) balanceOf;\n\n\tevent addUsers (address newUser);\n\n\tevent addLands (uint indexed _landId);\n\n\tevent Transfer(\n\t\taddress indexed _from, \n\t\taddress indexed _to,\n\t\tuint256 _value);\n\n\tmodifier onlyOwner(uint _landId) { \n\t \trequire (userLands[_landId].currOwner == msg.sender); \n\t\t_; \n\t}\n\n\tmodifier verifiedByAdmin() { \n\t\trequire (msg.sender == admin); \n\t\t_; \n\t}\n\t\n\n\tmodifier byRera() { \n\t\trequire (msg.sender == Rera); \n\t\t_; \n\t}\n\t\n\tconstructor () public {\n\t\tadmin = msg.sender;\n\t\tRera = address(2);\n\t}\n\n\tfunction addUser (address _address, string memory _name, string memory _adharNo, string memory _panNo, string memory _email, uint _phoneNo) public returns(bool) {\n\t\tUser memory user = users[_address];\n\t\tfor(uint i=1; i<=userAcc.length; i++) {\n\t\t\tif(uint(keccak256(abi.encodePacked(_adharNo))) == uint(keccak256(abi.encodePacked(user.AdharNo)))) {\n\t\t\t\t\"User ID Already Exists!\";\n\t\t\t\treturn false;\n\t\t\t}\n\t\t}\n\t\tuser.Name = _name;\n\t\tuser.AdharNo = _adharNo;\n\t\tuser.PanNo = _panNo;\n\t\tuser.email = _email;\n\t\tuser.PhoneNo = _phoneNo;\n\t\tuserAcc.push(_address) -1;\n\t\temit addUsers(_address);\n\t\treturn true;\n\t}\n\n\tfunction getUserCount () public view returns(uint) {\n\t\treturn userAcc.length;\n\t}\n\t\n\tfunction getUserDetails (address _address) public view returns(string memory, string memory, uint) {\n\t\treturn (users[_address].Name, users[_address].email, users[_address].PhoneNo);\n\t}\n\n\tfunction getAllUsers () public view returns (address[] memory) {\n\t\treturn userAcc;\n\t}\n\n\tfunction addLand (bool _landOnRoad, string memory _proposedLandUse, string memory _landArea, string memory _jurisdiction, string memory _localBodyName, string memory _plot, string memory _khatian, string memory _district, string memory _thana, string memory _localBody, uint _price) public returns (bool) {\n\t\tlandCount++;\n\t\tLand memory land = userLands[landCount];\n\t\tland.currOwner = msg.sender;\n\t\tland.verifiedByRera = false;\n\t\tland.LandOnRoad = _landOnRoad;\n\t\tland.ProposedLandUse = _proposedLandUse;\n\t\tland.LandArea = _landArea;\n\t\tland.Jurisdiction = _jurisdiction;\n\t\tland.LocalBodyName = _localBodyName;\n\t\tland.Plot = _plot;\n\t\tland.Khatian = _khatian;\n\t\tland.District = _district;\n\t\tland.Thana = _thana;\n\t\tland.LocalBody = _localBody;\n\t\tland.Price = _price;\n\t\tlands.push(landCount) -1;\n\t\temit addLands(landCount);\n\t\treturn true;\n\t}\n\n\tfunction approveLand (uint _landId) byRera public returns(bool) {\n\t\t//require (userLands[_landId].currOwner != msg.sender);\n\t\tuserLands[_landId].verifiedByRera = true;\n\t\tverifiedLands[_landId] = true;\n\t\treturn true;\n\t}\n\t\n\n\tfunction getLandCount () public view returns(uint) {\n\t\treturn lands.length;\n\t}\n\n\t//address(0) = 0x0 => is used to check if the address is empty \n\tfunction changeLandOwner (uint _landId, address _newOwner) onlyOwner(_landId) public returns(bool) {\n\t\t//new owner should not be the same old owner\n\t\trequire (userLands[_landId].currOwner != _newOwner);\n\t\t//no ownership change request must exist\n\t\trequire (landOwnerChange[_landId] == address(0));\n\t\t//ownership change is requested\n\t\tlandOwnerChange[_landId] = _newOwner;\n\t\treturn true;\n\t}\n\n\tfunction approveChangeOwner (uint _landId) verifiedByAdmin public returns(bool) {\n\t\t//ownership change request must exist\n\t\trequire (landOwnerChange[_landId] != address(0));\n\t\tuserLands[_landId].currOwner = landOwnerChange[_landId];\n\t\t//empty the owner change request\n\t\tlandOwnerChange[_landId] = address(0);\n\t\treturn true;\n\t}\n\n\tfunction transfer (address _to, uint256 _value) public returns(bool) {\n\t\t//exception of account doesn't have enuf\n\t\trequire(balanceOf[msg.sender] >= _value); \n\t\t//runs the code below only if require is true\n\t\t//transfer the balance\n\t\tbalanceOf[msg.sender] -= _value;\n\t\tbalanceOf[_to] += _value;\n\t\t//transfer event\n\t\temit Transfer(msg.sender, _to, _value);\n\t\t//return boolean\n\t\treturn true;\n\t}\n\t\n\n\tfunction changeLandPrice (uint _landId, uint _newPrice) onlyOwner(_landId) public returns(bool) {\n\t\t//no ownership change request must exist\n\t\trequire (landOwnerChange[_landId] == address(0));\n\t\tuserLands[_landId].Price = _newPrice;\n\t\treturn true;\n\t}\n\t\n\n\tfunction getLandByPrice (uint _price) public view returns(uint[] memory) {\n\t\tLand memory land;\n\t\tfor (uint i = 1; i <= lands.length; i++) { \n\t\t\tif (land.Price == _price) {\n\t\t\t\treturn lands;\n\t\t\t}\n\t\t}\n\t}\t\n\n\tfunction getLandByLandArea (string memory _landArea) public view returns(uint[] memory) {\n\t\tLand memory land;\n\t\tfor (uint i = 1; i <= lands.length; i++) { \n\t\t\tif (uint(keccak256(abi.encodePacked(land.LandArea))) == uint(keccak256(abi.encodePacked(_landArea)))) {\n\t\t\t\treturn lands;\n\t\t\t}\n\t\t}\n\t}\n\n\tfunction getLandByDistrict (string memory _district) public view returns(uint[] memory) {\n\t\tLand memory land;\n\t\tfor (uint i = 1; i <= lands.length; i++) { \n\t\t\tif (uint(keccak256(abi.encodePacked(land.District))) == uint(keccak256(abi.encodePacked(_district)))) {\n\t\t\t\treturn lands;\n\t\t\t}\n\t\t}\n\t}\n\n\tfunction getLandByLandOnRoad (string memory _landOnRoad) public view returns(uint[] memory) {\n\t\tLand memory land;\n\t\tfor (uint i = 1; i <= lands.length; i++) { \n\t\t\tif (uint(keccak256(abi.encodePacked(land.LandOnRoad))) == uint(keccak256(abi.encodePacked(_landOnRoad)))) {\n\t\t\t\treturn lands;\n\t\t\t}\n\t\t}\n\t}\n\t\n}\n\n\n",
  "sourcePath": "F:/Blockchain/Projects/FinalYearProject/LandRegistry/contracts/Property.sol",
  "compiler": {
    "name": "solc",
    "version": "0.5.0+commit.1d4f565a.Emscripten.clang"
  },
  "schemaVersion": "3.0.6",
  "updatedAt": "2019-04-22T14:52:08.867Z",
  "devdoc": {
    "methods": {}
  },
  "userdoc": {
    "methods": {}
  }
}