{
  "contractName": "Property",
  "abi": [
    {
      "constant": true,
      "inputs": [
        {
          "name": "",
          "type": "uint256"
        }
      ],
      "name": "userAcc",
      "outputs": [
        {
          "name": "",
          "type": "address"
        }
      ],
      "payable": false,
      "stateMutability": "view",
      "type": "function",
      "signature": "0x66b82655"
    },
    {
      "constant": true,
      "inputs": [],
      "name": "landCount",
      "outputs": [
        {
          "name": "",
          "type": "uint256"
        }
      ],
      "payable": false,
      "stateMutability": "view",
      "type": "function",
      "signature": "0xd7bce658"
    },
    {
      "constant": true,
      "inputs": [],
      "name": "Rera",
      "outputs": [
        {
          "name": "",
          "type": "address"
        }
      ],
      "payable": false,
      "stateMutability": "view",
      "type": "function",
      "signature": "0xdcbfb397"
    },
    {
      "constant": true,
      "inputs": [
        {
          "name": "",
          "type": "uint256"
        }
      ],
      "name": "lands",
      "outputs": [
        {
          "name": "",
          "type": "uint256"
        }
      ],
      "payable": false,
      "stateMutability": "view",
      "type": "function",
      "signature": "0xe261f1e5"
    },
    {
      "constant": true,
      "inputs": [],
      "name": "admin",
      "outputs": [
        {
          "name": "",
          "type": "address"
        }
      ],
      "payable": false,
      "stateMutability": "view",
      "type": "function",
      "signature": "0xf851a440"
    },
    {
      "inputs": [],
      "payable": false,
      "stateMutability": "nonpayable",
      "type": "constructor",
      "signature": "constructor"
    },
    {
      "anonymous": false,
      "inputs": [
        {
          "indexed": false,
          "name": "newUser",
          "type": "address"
        }
      ],
      "name": "addUsers",
      "type": "event",
      "signature": "0x0434372237c7c6e1607b43e83694a9d949c4f83a878fe2091bac214e317b9abd"
    },
    {
      "anonymous": false,
      "inputs": [
        {
          "indexed": true,
          "name": "_landId",
          "type": "uint256"
        }
      ],
      "name": "addLands",
      "type": "event",
      "signature": "0xea10151a11e055d42149936dd8e94d3e25915236a4d88c263f4e518329f1cfe8"
    },
    {
      "anonymous": false,
      "inputs": [
        {
          "indexed": true,
          "name": "_from",
          "type": "address"
        },
        {
          "indexed": true,
          "name": "_to",
          "type": "address"
        },
        {
          "indexed": false,
          "name": "_value",
          "type": "uint256"
        }
      ],
      "name": "Transfer",
      "type": "event",
      "signature": "0xddf252ad1be2c89b69c2b068fc378daa952ba7f163c4a11628f55a4df523b3ef"
    },
    {
      "constant": false,
      "inputs": [
        {
          "name": "_name",
          "type": "string"
        },
        {
          "name": "_adharNo",
          "type": "string"
        },
        {
          "name": "_panNo",
          "type": "string"
        },
        {
          "name": "_email",
          "type": "string"
        },
        {
          "name": "_phoneNo",
          "type": "string"
        }
      ],
      "name": "addUser",
      "outputs": [
        {
          "name": "",
          "type": "bool"
        }
      ],
      "payable": false,
      "stateMutability": "nonpayable",
      "type": "function",
      "signature": "0xb37a3d82"
    },
    {
      "constant": true,
      "inputs": [],
      "name": "getUserCount",
      "outputs": [
        {
          "name": "",
          "type": "uint256"
        }
      ],
      "payable": false,
      "stateMutability": "view",
      "type": "function",
      "signature": "0xb5cb15f7"
    },
    {
      "constant": true,
      "inputs": [
        {
          "name": "_address",
          "type": "address"
        }
      ],
      "name": "getUserDetails",
      "outputs": [
        {
          "name": "",
          "type": "string"
        },
        {
          "name": "",
          "type": "string"
        },
        {
          "name": "",
          "type": "string"
        }
      ],
      "payable": false,
      "stateMutability": "view",
      "type": "function",
      "signature": "0xcc3d967b"
    },
    {
      "constant": true,
      "inputs": [],
      "name": "getAllUsers",
      "outputs": [
        {
          "name": "",
          "type": "address[]"
        }
      ],
      "payable": false,
      "stateMutability": "view",
      "type": "function",
      "signature": "0xe2842d79"
    },
    {
      "constant": false,
      "inputs": [
        {
          "name": "_reraRegisteredNo",
          "type": "string"
        },
        {
          "name": "_landOnRoad",
          "type": "bool"
        },
        {
          "name": "_landArea",
          "type": "string"
        },
        {
          "name": "_district",
          "type": "string"
        },
        {
          "name": "_state",
          "type": "string"
        },
        {
          "name": "_price",
          "type": "string"
        }
      ],
      "name": "addLand",
      "outputs": [
        {
          "name": "",
          "type": "bool"
        }
      ],
      "payable": false,
      "stateMutability": "nonpayable",
      "type": "function",
      "signature": "0x977ff2b4"
    },
    {
      "constant": false,
      "inputs": [
        {
          "name": "_landId",
          "type": "uint256"
        }
      ],
      "name": "approveLand",
      "outputs": [
        {
          "name": "",
          "type": "bool"
        }
      ],
      "payable": false,
      "stateMutability": "nonpayable",
      "type": "function",
      "signature": "0x38c887b2"
    },
    {
      "constant": true,
      "inputs": [],
      "name": "getLandCount",
      "outputs": [
        {
          "name": "",
          "type": "uint256"
        }
      ],
      "payable": false,
      "stateMutability": "view",
      "type": "function",
      "signature": "0x5ceaa769"
    },
    {
      "constant": false,
      "inputs": [
        {
          "name": "_landId",
          "type": "uint256"
        },
        {
          "name": "_newOwner",
          "type": "address"
        }
      ],
      "name": "changeLandOwner",
      "outputs": [
        {
          "name": "",
          "type": "bool"
        }
      ],
      "payable": false,
      "stateMutability": "nonpayable",
      "type": "function",
      "signature": "0x6f31f6ad"
    },
    {
      "constant": false,
      "inputs": [
        {
          "name": "_landId",
          "type": "uint256"
        }
      ],
      "name": "approveChangeOwner",
      "outputs": [
        {
          "name": "",
          "type": "bool"
        }
      ],
      "payable": false,
      "stateMutability": "nonpayable",
      "type": "function",
      "signature": "0x69cdba9a"
    },
    {
      "constant": false,
      "inputs": [
        {
          "name": "_to",
          "type": "address"
        },
        {
          "name": "_value",
          "type": "uint256"
        }
      ],
      "name": "transfer",
      "outputs": [
        {
          "name": "",
          "type": "bool"
        }
      ],
      "payable": false,
      "stateMutability": "nonpayable",
      "type": "function",
      "signature": "0xa9059cbb"
    },
    {
      "constant": false,
      "inputs": [
        {
          "name": "_landId",
          "type": "uint256"
        },
        {
          "name": "_newPrice",
          "type": "string"
        }
      ],
      "name": "changeLandPrice",
      "outputs": [
        {
          "name": "",
          "type": "bool"
        }
      ],
      "payable": false,
      "stateMutability": "nonpayable",
      "type": "function",
      "signature": "0xec9e4485"
    },
    {
      "constant": true,
      "inputs": [],
      "name": "getLandDetails",
      "outputs": [
        {
          "name": "",
          "type": "address"
        },
        {
          "name": "",
          "type": "string"
        },
        {
          "name": "",
          "type": "bool"
        },
        {
          "name": "",
          "type": "string"
        },
        {
          "name": "",
          "type": "string"
        },
        {
          "name": "",
          "type": "string"
        },
        {
          "name": "",
          "type": "string"
        }
      ],
      "payable": false,
      "stateMutability": "view",
      "type": "function",
      "signature": "0xce8422b4"
    },
    {
      "constant": true,
      "inputs": [
        {
          "name": "_price",
          "type": "uint256"
        }
      ],
      "name": "getLandByPrice",
      "outputs": [
        {
          "name": "",
          "type": "address"
        },
        {
          "name": "",
          "type": "string"
        },
        {
          "name": "",
          "type": "bool"
        },
        {
          "name": "",
          "type": "string"
        },
        {
          "name": "",
          "type": "string"
        },
        {
          "name": "",
          "type": "string"
        },
        {
          "name": "",
          "type": "string"
        }
      ],
      "payable": false,
      "stateMutability": "view",
      "type": "function",
      "signature": "0x10e1b7af"
    },
    {
      "constant": true,
      "inputs": [
        {
          "name": "_landArea",
          "type": "string"
        }
      ],
      "name": "getLandByLandArea",
      "outputs": [
        {
          "name": "",
          "type": "address"
        },
        {
          "name": "",
          "type": "string"
        },
        {
          "name": "",
          "type": "bool"
        },
        {
          "name": "",
          "type": "string"
        },
        {
          "name": "",
          "type": "string"
        },
        {
          "name": "",
          "type": "string"
        },
        {
          "name": "",
          "type": "string"
        }
      ],
      "payable": false,
      "stateMutability": "view",
      "type": "function",
      "signature": "0xed1b6c68"
    },
    {
      "constant": true,
      "inputs": [
        {
          "name": "_district",
          "type": "string"
        }
      ],
      "name": "getLandByDistrict",
      "outputs": [
        {
          "name": "",
          "type": "address"
        },
        {
          "name": "",
          "type": "string"
        },
        {
          "name": "",
          "type": "bool"
        },
        {
          "name": "",
          "type": "string"
        },
        {
          "name": "",
          "type": "string"
        },
        {
          "name": "",
          "type": "string"
        },
        {
          "name": "",
          "type": "string"
        }
      ],
      "payable": false,
      "stateMutability": "view",
      "type": "function",
      "signature": "0x3cb297ec"
    },
    {
      "constant": true,
      "inputs": [],
      "name": "getLandByLandOnRoad",
      "outputs": [
        {
          "name": "",
          "type": "address"
        },
        {
          "name": "",
          "type": "string"
        },
        {
          "name": "",
          "type": "bool"
        },
        {
          "name": "",
          "type": "string"
        },
        {
          "name": "",
          "type": "string"
        },
        {
          "name": "",
          "type": "string"
        },
        {
          "name": "",
          "type": "string"
        }
      ],
      "payable": false,
      "stateMutability": "view",
      "type": "function",
      "signature": "0xcd56e4d8"
    }
  ],
  "bytecode": "0x6080604052600060025534801561001557600080fd5b50336000806101000a81548173ffffffffffffffffffffffffffffffffffffffff021916908373ffffffffffffffffffffffffffffffffffffffff1602179055506002600160006101000a81548173ffffffffffffffffffffffffffffffffffffffff021916908373ffffffffffffffffffffffffffffffffffffffff160217905550614566806100a76000396000f3fe60806040526004361061011d576000357c0100000000000000000000000000000000000000000000000000000000900463ffffffff16806310e1b7af1461012257806338c887b2146103c45780633cb297ec146104175780635ceaa7691461074657806366b826551461077157806369cdba9a146107ec5780636f31f6ad1461083f578063977ff2b4146108b2578063a9059cbb14610bfa578063b37a3d8214610c6d578063b5cb15f714610fa9578063cc3d967b14610fd4578063cd56e4d814611176578063ce8422b4146113f4578063d7bce65814611672578063dcbfb3971461169d578063e261f1e5146116f4578063e2842d7914611743578063ec9e4485146117af578063ed1b6c6814611899578063f851a44014611bc8575b600080fd5b34801561012e57600080fd5b5061015b6004803603602081101561014557600080fd5b8101908080359060200190929190505050611c1f565b604051808873ffffffffffffffffffffffffffffffffffffffff1673ffffffffffffffffffffffffffffffffffffffff16815260200180602001871515151581526020018060200180602001806020018060200186810386528c818151815260200191508051906020019080838360005b838110156101e75780820151818401526020810190506101cc565b50505050905090810190601f1680156102145780820380516001836020036101000a031916815260200191505b5086810385528a818151815260200191508051906020019080838360005b8381101561024d578082015181840152602081019050610232565b50505050905090810190601f16801561027a5780820380516001836020036101000a031916815260200191505b50868103845289818151815260200191508051906020019080838360005b838110156102b3578082015181840152602081019050610298565b50505050905090810190601f1680156102e05780820380516001836020036101000a031916815260200191505b50868103835288818151815260200191508051906020019080838360005b838110156103195780820151818401526020810190506102fe565b50505050905090810190601f1680156103465780820380516001836020036101000a031916815260200191505b50868103825287818151815260200191508051906020019080838360005b8381101561037f578082015181840152602081019050610364565b50505050905090810190601f1680156103ac5780820380516001836020036101000a031916815260200191505b509c5050505050505050505050505060405180910390f35b3480156103d057600080fd5b506103fd600480360360208110156103e757600080fd5b8101908080359060200190929190505050612107565b604051808215151515815260200191505060405180910390f35b34801561042357600080fd5b506104dd6004803603602081101561043a57600080fd5b810190808035906020019064010000000081111561045757600080fd5b82018360208201111561046957600080fd5b8035906020019184600183028401116401000000008311171561048b57600080fd5b91908080601f016020809104026020016040519081016040528093929190818152602001838380828437600081840152601f19601f82011690508083019250505050505050919291929050505061219a565b604051808873ffffffffffffffffffffffffffffffffffffffff1673ffffffffffffffffffffffffffffffffffffffff16815260200180602001871515151581526020018060200180602001806020018060200186810386528c818151815260200191508051906020019080838360005b8381101561056957808201518184015260208101905061054e565b50505050905090810190601f1680156105965780820380516001836020036101000a031916815260200191505b5086810385528a818151815260200191508051906020019080838360005b838110156105cf5780820151818401526020810190506105b4565b50505050905090810190601f1680156105fc5780820380516001836020036101000a031916815260200191505b50868103845289818151815260200191508051906020019080838360005b8381101561063557808201518184015260208101905061061a565b50505050905090810190601f1680156106625780820380516001836020036101000a031916815260200191505b50868103835288818151815260200191508051906020019080838360005b8381101561069b578082015181840152602081019050610680565b50505050905090810190601f1680156106c85780820380516001836020036101000a031916815260200191505b50868103825287818151815260200191508051906020019080838360005b838110156107015780820151818401526020810190506106e6565b50505050905090810190601f16801561072e5780820380516001836020036101000a031916815260200191505b509c5050505050505050505050505060405180910390f35b34801561075257600080fd5b5061075b6126cf565b6040518082815260200191505060405180910390f35b34801561077d57600080fd5b506107aa6004803603602081101561079457600080fd5b81019080803590602001909291905050506126dc565b604051808273ffffffffffffffffffffffffffffffffffffffff1673ffffffffffffffffffffffffffffffffffffffff16815260200191505060405180910390f35b3480156107f857600080fd5b506108256004803603602081101561080f57600080fd5b810190808035906020019092919050505061271a565b604051808215151515815260200191505060405180910390f35b34801561084b57600080fd5b506108986004803603604081101561086257600080fd5b8101908080359060200190929190803573ffffffffffffffffffffffffffffffffffffffff1690602001909291905050506128ca565b604051808215151515815260200191505060405180910390f35b3480156108be57600080fd5b50610be0600480360360c08110156108d557600080fd5b81019080803590602001906401000000008111156108f257600080fd5b82018360208201111561090457600080fd5b8035906020019184600183028401116401000000008311171561092657600080fd5b91908080601f016020809104026020016040519081016040528093929190818152602001838380828437600081840152601f19601f8201169050808301925050505050505091929192908035151590602001909291908035906020019064010000000081111561099557600080fd5b8201836020820111156109a757600080fd5b803590602001918460018302840111640100000000831117156109c957600080fd5b91908080601f016020809104026020016040519081016040528093929190818152602001838380828437600081840152601f19601f82011690508083019250505050505050919291929080359060200190640100000000811115610a2c57600080fd5b820183602082011115610a3e57600080fd5b80359060200191846001830284011164010000000083111715610a6057600080fd5b91908080601f016020809104026020016040519081016040528093929190818152602001838380828437600081840152601f19601f82011690508083019250505050505050919291929080359060200190640100000000811115610ac357600080fd5b820183602082011115610ad557600080fd5b80359060200191846001830284011164010000000083111715610af757600080fd5b91908080601f016020809104026020016040519081016040528093929190818152602001838380828437600081840152601f19601f82011690508083019250505050505050919291929080359060200190640100000000811115610b5a57600080fd5b820183602082011115610b6c57600080fd5b80359060200191846001830284011164010000000083111715610b8e57600080fd5b91908080601f016020809104026020016040519081016040528093929190818152602001838380828437600081840152601f19601f820116905080830192505050505050509192919290505050612a79565b604051808215151515815260200191505060405180910390f35b348015610c0657600080fd5b50610c5360048036036040811015610c1d57600080fd5b81019080803573ffffffffffffffffffffffffffffffffffffffff16906020019092919080359060200190929190505050612c57565b604051808215151515815260200191505060405180910390f35b348015610c7957600080fd5b50610f8f600480360360a0811015610c9057600080fd5b8101908080359060200190640100000000811115610cad57600080fd5b820183602082011115610cbf57600080fd5b80359060200191846001830284011164010000000083111715610ce157600080fd5b91908080601f016020809104026020016040519081016040528093929190818152602001838380828437600081840152601f19601f82011690508083019250505050505050919291929080359060200190640100000000811115610d4457600080fd5b820183602082011115610d5657600080fd5b80359060200191846001830284011164010000000083111715610d7857600080fd5b91908080601f016020809104026020016040519081016040528093929190818152602001838380828437600081840152601f19601f82011690508083019250505050505050919291929080359060200190640100000000811115610ddb57600080fd5b820183602082011115610ded57600080fd5b80359060200191846001830284011164010000000083111715610e0f57600080fd5b91908080601f016020809104026020016040519081016040528093929190818152602001838380828437600081840152601f19601f82011690508083019250505050505050919291929080359060200190640100000000811115610e7257600080fd5b820183602082011115610e8457600080fd5b80359060200191846001830284011164010000000083111715610ea657600080fd5b91908080601f016020809104026020016040519081016040528093929190818152602001838380828437600081840152601f19601f82011690508083019250505050505050919291929080359060200190640100000000811115610f0957600080fd5b820183602082011115610f1b57600080fd5b80359060200191846001830284011164010000000083111715610f3d57600080fd5b91908080601f016020809104026020016040519081016040528093929190818152602001838380828437600081840152601f19601f820116905080830192505050505050509192919290505050612db0565b604051808215151515815260200191505060405180910390f35b348015610fb557600080fd5b50610fbe613130565b6040518082815260200191505060405180910390f35b348015610fe057600080fd5b5061102360048036036020811015610ff757600080fd5b81019080803573ffffffffffffffffffffffffffffffffffffffff16906020019092919050505061313d565b60405180806020018060200180602001848103845287818151815260200191508051906020019080838360005b8381101561106b578082015181840152602081019050611050565b50505050905090810190601f1680156110985780820380516001836020036101000a031916815260200191505b50848103835286818151815260200191508051906020019080838360005b838110156110d15780820151818401526020810190506110b6565b50505050905090810190601f1680156110fe5780820380516001836020036101000a031916815260200191505b50848103825285818151815260200191508051906020019080838360005b8381101561113757808201518184015260208101905061111c565b50505050905090810190601f1680156111645780820380516001836020036101000a031916815260200191505b50965050505050505060405180910390f35b34801561118257600080fd5b5061118b6133e9565b604051808873ffffffffffffffffffffffffffffffffffffffff1673ffffffffffffffffffffffffffffffffffffffff16815260200180602001871515151581526020018060200180602001806020018060200186810386528c818151815260200191508051906020019080838360005b838110156112175780820151818401526020810190506111fc565b50505050905090810190601f1680156112445780820380516001836020036101000a031916815260200191505b5086810385528a818151815260200191508051906020019080838360005b8381101561127d578082015181840152602081019050611262565b50505050905090810190601f1680156112aa5780820380516001836020036101000a031916815260200191505b50868103845289818151815260200191508051906020019080838360005b838110156112e35780820151818401526020810190506112c8565b50505050905090810190601f1680156113105780820380516001836020036101000a031916815260200191505b50868103835288818151815260200191508051906020019080838360005b8381101561134957808201518184015260208101905061132e565b50505050905090810190601f1680156113765780820380516001836020036101000a031916815260200191505b50868103825287818151815260200191508051906020019080838360005b838110156113af578082015181840152602081019050611394565b50505050905090810190601f1680156113dc5780820380516001836020036101000a031916815260200191505b509c5050505050505050505050505060405180910390f35b34801561140057600080fd5b5061140961383b565b604051808873ffffffffffffffffffffffffffffffffffffffff1673ffffffffffffffffffffffffffffffffffffffff16815260200180602001871515151581526020018060200180602001806020018060200186810386528c818151815260200191508051906020019080838360005b8381101561149557808201518184015260208101905061147a565b50505050905090810190601f1680156114c25780820380516001836020036101000a031916815260200191505b5086810385528a818151815260200191508051906020019080838360005b838110156114fb5780820151818401526020810190506114e0565b50505050905090810190601f1680156115285780820380516001836020036101000a031916815260200191505b50868103845289818151815260200191508051906020019080838360005b83811015611561578082015181840152602081019050611546565b50505050905090810190601f16801561158e5780820380516001836020036101000a031916815260200191505b50868103835288818151815260200191508051906020019080838360005b838110156115c75780820151818401526020810190506115ac565b50505050905090810190601f1680156115f45780820380516001836020036101000a031916815260200191505b50868103825287818151815260200191508051906020019080838360005b8381101561162d578082015181840152602081019050611612565b50505050905090810190601f16801561165a5780820380516001836020036101000a031916815260200191505b509c5050505050505050505050505060405180910390f35b34801561167e57600080fd5b50611687613cc7565b6040518082815260200191505060405180910390f35b3480156116a957600080fd5b506116b2613ccd565b604051808273ffffffffffffffffffffffffffffffffffffffff1673ffffffffffffffffffffffffffffffffffffffff16815260200191505060405180910390f35b34801561170057600080fd5b5061172d6004803603602081101561171757600080fd5b8101908080359060200190929190505050613cf3565b6040518082815260200191505060405180910390f35b34801561174f57600080fd5b50611758613d16565b6040518080602001828103825283818151815260200191508051906020019060200280838360005b8381101561179b578082015181840152602081019050611780565b505050509050019250505060405180910390f35b3480156117bb57600080fd5b5061187f600480360360408110156117d257600080fd5b8101908080359060200190929190803590602001906401000000008111156117f957600080fd5b82018360208201111561180b57600080fd5b8035906020019184600183028401116401000000008311171561182d57600080fd5b91908080601f016020809104026020016040519081016040528093929190818152602001838380828437600081840152601f19601f820116905080830192505050505050509192919290505050613da4565b604051808215151515815260200191505060405180910390f35b3480156118a557600080fd5b5061195f600480360360208110156118bc57600080fd5b81019080803590602001906401000000008111156118d957600080fd5b8201836020820111156118eb57600080fd5b8035906020019184600183028401116401000000008311171561190d57600080fd5b91908080601f016020809104026020016040519081016040528093929190818152602001838380828437600081840152601f19601f820116905080830192505050505050509192919290505050613ebb565b604051808873ffffffffffffffffffffffffffffffffffffffff1673ffffffffffffffffffffffffffffffffffffffff16815260200180602001871515151581526020018060200180602001806020018060200186810386528c818151815260200191508051906020019080838360005b838110156119eb5780820151818401526020810190506119d0565b50505050905090810190601f168015611a185780820380516001836020036101000a031916815260200191505b5086810385528a818151815260200191508051906020019080838360005b83811015611a51578082015181840152602081019050611a36565b50505050905090810190601f168015611a7e5780820380516001836020036101000a031916815260200191505b50868103845289818151815260200191508051906020019080838360005b83811015611ab7578082015181840152602081019050611a9c565b50505050905090810190601f168015611ae45780820380516001836020036101000a031916815260200191505b50868103835288818151815260200191508051906020019080838360005b83811015611b1d578082015181840152602081019050611b02565b50505050905090810190601f168015611b4a5780820380516001836020036101000a031916815260200191505b50868103825287818151815260200191508051906020019080838360005b83811015611b83578082015181840152602081019050611b68565b50505050905090810190601f168015611bb05780820380516001836020036101000a031916815260200191505b509c5050505050505050505050505060405180910390f35b348015611bd457600080fd5b50611bdd6143f0565b604051808273ffffffffffffffffffffffffffffffffffffffff1673ffffffffffffffffffffffffffffffffffffffff16815260200191505060405180910390f35b6000606060006060806060806000600190505b600680549050811115156120fa5788604051602001808281526020019150506040516020818303038152906040528051906020012060019004600560008381526020019081526020016000206006016040516020018082805460018160011615610100020316600290048015611cdf5780601f10611cbd576101008083540402835291820191611cdf565b820191906000526020600020905b815481529060010190602001808311611ccb575b5050915050604051602081830303815290604052805190602001206001900414156120ed576005600082815260200190815260200160002060000160009054906101000a900473ffffffffffffffffffffffffffffffffffffffff16600560008381526020019081526020016000206001016005600084815260200190815260200160002060020160009054906101000a900460ff1660056000858152602001908152602001600020600301600560008681526020019081526020016000206004016005600087815260200190815260200160002060050160056000888152602001908152602001600020600601858054600181600116156101000203166002900480601f016020809104026020016040519081016040528092919081815260200182805460018160011615610100020316600290048015611e625780601f10611e3757610100808354040283529160200191611e62565b820191906000526020600020905b815481529060010190602001808311611e4557829003601f168201915b50505050509550838054600181600116156101000203166002900480601f016020809104026020016040519081016040528092919081815260200182805460018160011615610100020316600290048015611efe5780601f10611ed357610100808354040283529160200191611efe565b820191906000526020600020905b815481529060010190602001808311611ee157829003601f168201915b50505050509350828054600181600116156101000203166002900480601f016020809104026020016040519081016040528092919081815260200182805460018160011615610100020316600290048015611f9a5780601f10611f6f57610100808354040283529160200191611f9a565b820191906000526020600020905b815481529060010190602001808311611f7d57829003601f168201915b50505050509250818054600181600116156101000203166002900480601f0160208091040260200160405190810160405280929190818152602001828054600181600116156101000203166002900480156120365780601f1061200b57610100808354040283529160200191612036565b820191906000526020600020905b81548152906001019060200180831161201957829003601f168201915b50505050509150808054600181600116156101000203166002900480601f0160208091040260200160405190810160405280929190818152602001828054600181600116156101000203166002900480156120d25780601f106120a7576101008083540402835291602001916120d2565b820191906000526020600020905b8154815290600101906020018083116120b557829003601f168201915b505050505090509750975097509750975097509750506120fc565b8080600101915050611c32565b505b919395979092949650565b6000600160009054906101000a900473ffffffffffffffffffffffffffffffffffffffff1673ffffffffffffffffffffffffffffffffffffffff163373ffffffffffffffffffffffffffffffffffffffff1614151561216557600080fd5b60016008600084815260200190815260200160002060006101000a81548160ff02191690831515021790555060019050919050565b6000606060006060806060806000600190505b600680549050811115156126c257886040516020018082805190602001908083835b6020831015156121f457805182526020820191506020810190506020830392506121cf565b6001836020036101000a03801982511681845116808217855250505050505090500191505060405160208183030381529060405280519060200120600190046005600083815260200190815260200160002060040160405160200180828054600181600116156101000203166002900480156122a75780601f106122855761010080835404028352918201916122a7565b820191906000526020600020905b815481529060010190602001808311612293575b5050915050604051602081830303815290604052805190602001206001900414156126b5576005600082815260200190815260200160002060000160009054906101000a900473ffffffffffffffffffffffffffffffffffffffff16600560008381526020019081526020016000206001016005600084815260200190815260200160002060020160009054906101000a900460ff1660056000858152602001908152602001600020600301600560008681526020019081526020016000206004016005600087815260200190815260200160002060050160056000888152602001908152602001600020600601858054600181600116156101000203166002900480601f01602080910402602001604051908101604052809291908181526020018280546001816001161561010002031660029004801561242a5780601f106123ff5761010080835404028352916020019161242a565b820191906000526020600020905b81548152906001019060200180831161240d57829003601f168201915b50505050509550838054600181600116156101000203166002900480601f0160208091040260200160405190810160405280929190818152602001828054600181600116156101000203166002900480156124c65780601f1061249b576101008083540402835291602001916124c6565b820191906000526020600020905b8154815290600101906020018083116124a957829003601f168201915b50505050509350828054600181600116156101000203166002900480601f0160208091040260200160405190810160405280929190818152602001828054600181600116156101000203166002900480156125625780601f1061253757610100808354040283529160200191612562565b820191906000526020600020905b81548152906001019060200180831161254557829003601f168201915b50505050509250818054600181600116156101000203166002900480601f0160208091040260200160405190810160405280929190818152602001828054600181600116156101000203166002900480156125fe5780601f106125d3576101008083540402835291602001916125fe565b820191906000526020600020905b8154815290600101906020018083116125e157829003601f168201915b50505050509150808054600181600116156101000203166002900480601f01602080910402602001604051908101604052809291908181526020018280546001816001161561010002031660029004801561269a5780601f1061266f5761010080835404028352916020019161269a565b820191906000526020600020905b81548152906001019060200180831161267d57829003601f168201915b505050505090509750975097509750975097509750506126c4565b80806001019150506121ad565b505b919395979092949650565b6000600680549050905090565b6004818154811015156126eb57fe5b906000526020600020016000915054906101000a900473ffffffffffffffffffffffffffffffffffffffff1681565b60008060009054906101000a900473ffffffffffffffffffffffffffffffffffffffff1673ffffffffffffffffffffffffffffffffffffffff163373ffffffffffffffffffffffffffffffffffffffff1614151561277757600080fd5b600073ffffffffffffffffffffffffffffffffffffffff166007600084815260200190815260200160002060009054906101000a900473ffffffffffffffffffffffffffffffffffffffff1673ffffffffffffffffffffffffffffffffffffffff16141515156127e657600080fd5b6007600083815260200190815260200160002060009054906101000a900473ffffffffffffffffffffffffffffffffffffffff166005600084815260200190815260200160002060000160006101000a81548173ffffffffffffffffffffffffffffffffffffffff021916908373ffffffffffffffffffffffffffffffffffffffff16021790555060006007600084815260200190815260200160002060006101000a81548173ffffffffffffffffffffffffffffffffffffffff021916908373ffffffffffffffffffffffffffffffffffffffff16021790555060019050919050565b6000823373ffffffffffffffffffffffffffffffffffffffff166005600083815260200190815260200160002060000160009054906101000a900473ffffffffffffffffffffffffffffffffffffffff1673ffffffffffffffffffffffffffffffffffffffff1614151561293d57600080fd5b8273ffffffffffffffffffffffffffffffffffffffff166005600086815260200190815260200160002060000160009054906101000a900473ffffffffffffffffffffffffffffffffffffffff1673ffffffffffffffffffffffffffffffffffffffff16141515156129ae57600080fd5b600073ffffffffffffffffffffffffffffffffffffffff166007600086815260200190815260200160002060009054906101000a900473ffffffffffffffffffffffffffffffffffffffff1673ffffffffffffffffffffffffffffffffffffffff16141515612a1c57600080fd5b826007600086815260200190815260200160002060006101000a81548173ffffffffffffffffffffffffffffffffffffffff021916908373ffffffffffffffffffffffffffffffffffffffff160217905550600191505092915050565b600060026000815480929190600101919050555060e0604051908101604052803373ffffffffffffffffffffffffffffffffffffffff16815260200188815260200187151581526020018681526020018581526020018481526020018381525060056000600254815260200190815260200160002060008201518160000160006101000a81548173ffffffffffffffffffffffffffffffffffffffff021916908373ffffffffffffffffffffffffffffffffffffffff1602179055506020820151816001019080519060200190612b51929190614415565b5060408201518160020160006101000a81548160ff0219169083151502179055506060820151816003019080519060200190612b8e929190614415565b506080820151816004019080519060200190612bab929190614415565b5060a0820151816005019080519060200190612bc8929190614415565b5060c0820151816006019080519060200190612be5929190614415565b50905050600160066002549080600181540180825580915050906001820390600052602060002001600090919290919091505550506002547fea10151a11e055d42149936dd8e94d3e25915236a4d88c263f4e518329f1cfe860405160405180910390a2600190509695505050505050565b600081600960003373ffffffffffffffffffffffffffffffffffffffff1673ffffffffffffffffffffffffffffffffffffffff1681526020019081526020016000205410151515612ca757600080fd5b81600960003373ffffffffffffffffffffffffffffffffffffffff1673ffffffffffffffffffffffffffffffffffffffff1681526020019081526020016000206000828254039250508190555081600960008573ffffffffffffffffffffffffffffffffffffffff1673ffffffffffffffffffffffffffffffffffffffff168152602001908152602001600020600082825401925050819055508273ffffffffffffffffffffffffffffffffffffffff163373ffffffffffffffffffffffffffffffffffffffff167fddf252ad1be2c89b69c2b068fc378daa952ba7f163c4a11628f55a4df523b3ef846040518082815260200191505060405180910390a36001905092915050565b6000803390506000600190505b60048054905081111515612f5957866040516020018082805190602001908083835b602083101515612e045780518252602082019150602081019050602083039250612ddf565b6001836020036101000a038019825116818451168082178552505050505050905001915050604051602081830303815290604052805190602001206001900460036000600484815481101515612e5657fe5b9060005260206000200160009054906101000a900473ffffffffffffffffffffffffffffffffffffffff1673ffffffffffffffffffffffffffffffffffffffff1673ffffffffffffffffffffffffffffffffffffffff1681526020019081526020016000206001016040516020018082805460018160011615610100020316600290048015612f1c5780601f10612efa576101008083540402835291820191612f1c565b820191906000526020600020905b815481529060010190602001808311612f08575b505091505060405160208183030381529060405280519060200120600190041415612f4c57600092505050613127565b8080600101915050612dbd565b5060a06040519081016040528088815260200187815260200186815260200185815260200184815250600360008373ffffffffffffffffffffffffffffffffffffffff1673ffffffffffffffffffffffffffffffffffffffff1681526020019081526020016000206000820151816000019080519060200190612fdd929190614415565b506020820151816001019080519060200190612ffa929190614415565b506040820151816002019080519060200190613017929190614415565b506060820151816003019080519060200190613034929190614415565b506080820151816004019080519060200190613051929190614415565b50905050600160043390806001815401808255809150509060018203906000526020600020016000909192909190916101000a81548173ffffffffffffffffffffffffffffffffffffffff021916908373ffffffffffffffffffffffffffffffffffffffff16021790555050507f0434372237c7c6e1607b43e83694a9d949c4f83a878fe2091bac214e317b9abd33604051808273ffffffffffffffffffffffffffffffffffffffff1673ffffffffffffffffffffffffffffffffffffffff16815260200191505060405180910390a160019150505b95945050505050565b6000600480549050905090565b6060806060600360008573ffffffffffffffffffffffffffffffffffffffff1673ffffffffffffffffffffffffffffffffffffffff168152602001908152602001600020600001600360008673ffffffffffffffffffffffffffffffffffffffff1673ffffffffffffffffffffffffffffffffffffffff168152602001908152602001600020600301600360008773ffffffffffffffffffffffffffffffffffffffff1673ffffffffffffffffffffffffffffffffffffffff168152602001908152602001600020600401828054600181600116156101000203166002900480601f01602080910402602001604051908101604052809291908181526020018280546001816001161561010002031660029004801561329d5780601f106132725761010080835404028352916020019161329d565b820191906000526020600020905b81548152906001019060200180831161328057829003601f168201915b50505050509250818054600181600116156101000203166002900480601f0160208091040260200160405190810160405280929190818152602001828054600181600116156101000203166002900480156133395780601f1061330e57610100808354040283529160200191613339565b820191906000526020600020905b81548152906001019060200180831161331c57829003601f168201915b50505050509150808054600181600116156101000203166002900480601f0160208091040260200160405190810160405280929190818152602001828054600181600116156101000203166002900480156133d55780601f106133aa576101008083540402835291602001916133d5565b820191906000526020600020905b8154815290600101906020018083116133b857829003601f168201915b505050505090509250925092509193909250565b6000606060006060806060806000600190505b6006805490508111151561383057600115156005600083815260200190815260200160002060020160009054906101000a900460ff1615151415613823576005600082815260200190815260200160002060000160009054906101000a900473ffffffffffffffffffffffffffffffffffffffff16600560008381526020019081526020016000206001016005600084815260200190815260200160002060020160009054906101000a900460ff1660056000858152602001908152602001600020600301600560008681526020019081526020016000206004016005600087815260200190815260200160002060050160056000888152602001908152602001600020600601858054600181600116156101000203166002900480601f0160208091040260200160405190810160405280929190818152602001828054600181600116156101000203166002900480156135985780601f1061356d57610100808354040283529160200191613598565b820191906000526020600020905b81548152906001019060200180831161357b57829003601f168201915b50505050509550838054600181600116156101000203166002900480601f0160208091040260200160405190810160405280929190818152602001828054600181600116156101000203166002900480156136345780601f1061360957610100808354040283529160200191613634565b820191906000526020600020905b81548152906001019060200180831161361757829003601f168201915b50505050509350828054600181600116156101000203166002900480601f0160208091040260200160405190810160405280929190818152602001828054600181600116156101000203166002900480156136d05780601f106136a5576101008083540402835291602001916136d0565b820191906000526020600020905b8154815290600101906020018083116136b357829003601f168201915b50505050509250818054600181600116156101000203166002900480601f01602080910402602001604051908101604052809291908181526020018280546001816001161561010002031660029004801561376c5780601f106137415761010080835404028352916020019161376c565b820191906000526020600020905b81548152906001019060200180831161374f57829003601f168201915b50505050509150808054600181600116156101000203166002900480601f0160208091040260200160405190810160405280929190818152602001828054600181600116156101000203166002900480156138085780601f106137dd57610100808354040283529160200191613808565b820191906000526020600020905b8154815290600101906020018083116137eb57829003601f168201915b50505050509050975097509750975097509750975050613832565b80806001019150506133fc565b505b90919293949596565b6000606060006060806060806000600190505b60068054905081111515613cbc573373ffffffffffffffffffffffffffffffffffffffff166005600083815260200190815260200160002060000160009054906101000a900473ffffffffffffffffffffffffffffffffffffffff1673ffffffffffffffffffffffffffffffffffffffff161415613caf576005600082815260200190815260200160002060000160009054906101000a900473ffffffffffffffffffffffffffffffffffffffff16600560008381526020019081526020016000206001016005600084815260200190815260200160002060020160009054906101000a900460ff1660056000858152602001908152602001600020600301600560008681526020019081526020016000206004016005600087815260200190815260200160002060050160056000888152602001908152602001600020600601858054600181600116156101000203166002900480601f016020809104026020016040519081016040528092919081815260200182805460018160011615610100020316600290048015613a245780601f106139f957610100808354040283529160200191613a24565b820191906000526020600020905b815481529060010190602001808311613a0757829003601f168201915b50505050509550838054600181600116156101000203166002900480601f016020809104026020016040519081016040528092919081815260200182805460018160011615610100020316600290048015613ac05780601f10613a9557610100808354040283529160200191613ac0565b820191906000526020600020905b815481529060010190602001808311613aa357829003601f168201915b50505050509350828054600181600116156101000203166002900480601f016020809104026020016040519081016040528092919081815260200182805460018160011615610100020316600290048015613b5c5780601f10613b3157610100808354040283529160200191613b5c565b820191906000526020600020905b815481529060010190602001808311613b3f57829003601f168201915b50505050509250818054600181600116156101000203166002900480601f016020809104026020016040519081016040528092919081815260200182805460018160011615610100020316600290048015613bf85780601f10613bcd57610100808354040283529160200191613bf8565b820191906000526020600020905b815481529060010190602001808311613bdb57829003601f168201915b50505050509150808054600181600116156101000203166002900480601f016020809104026020016040519081016040528092919081815260200182805460018160011615610100020316600290048015613c945780601f10613c6957610100808354040283529160200191613c94565b820191906000526020600020905b815481529060010190602001808311613c7757829003601f168201915b50505050509050975097509750975097509750975050613cbe565b808060010191505061384e565b505b90919293949596565b60025481565b600160009054906101000a900473ffffffffffffffffffffffffffffffffffffffff1681565b600681815481101515613d0257fe5b906000526020600020016000915090505481565b60606004805480602002602001604051908101604052809291908181526020018280548015613d9a57602002820191906000526020600020905b8160009054906101000a900473ffffffffffffffffffffffffffffffffffffffff1673ffffffffffffffffffffffffffffffffffffffff1681526020019060010190808311613d50575b5050505050905090565b6000823373ffffffffffffffffffffffffffffffffffffffff166005600083815260200190815260200160002060000160009054906101000a900473ffffffffffffffffffffffffffffffffffffffff1673ffffffffffffffffffffffffffffffffffffffff16141515613e1757600080fd5b600073ffffffffffffffffffffffffffffffffffffffff166007600086815260200190815260200160002060009054906101000a900473ffffffffffffffffffffffffffffffffffffffff1673ffffffffffffffffffffffffffffffffffffffff16141515613e8557600080fd5b82600560008681526020019081526020016000206006019080519060200190613eaf929190614495565b50600191505092915050565b6000606060006060806060806000600190505b600680549050811115156143e357886040516020018082805190602001908083835b602083101515613f155780518252602082019150602081019050602083039250613ef0565b6001836020036101000a0380198251168184511680821785525050505050509050019150506040516020818303038152906040528051906020012060019004600560008381526020019081526020016000206003016040516020018082805460018160011615610100020316600290048015613fc85780601f10613fa6576101008083540402835291820191613fc8565b820191906000526020600020905b815481529060010190602001808311613fb4575b5050915050604051602081830303815290604052805190602001206001900414156143d6576005600082815260200190815260200160002060000160009054906101000a900473ffffffffffffffffffffffffffffffffffffffff16600560008381526020019081526020016000206001016005600084815260200190815260200160002060020160009054906101000a900460ff1660056000858152602001908152602001600020600301600560008681526020019081526020016000206004016005600087815260200190815260200160002060050160056000888152602001908152602001600020600601858054600181600116156101000203166002900480601f01602080910402602001604051908101604052809291908181526020018280546001816001161561010002031660029004801561414b5780601f106141205761010080835404028352916020019161414b565b820191906000526020600020905b81548152906001019060200180831161412e57829003601f168201915b50505050509550838054600181600116156101000203166002900480601f0160208091040260200160405190810160405280929190818152602001828054600181600116156101000203166002900480156141e75780601f106141bc576101008083540402835291602001916141e7565b820191906000526020600020905b8154815290600101906020018083116141ca57829003601f168201915b50505050509350828054600181600116156101000203166002900480601f0160208091040260200160405190810160405280929190818152602001828054600181600116156101000203166002900480156142835780601f1061425857610100808354040283529160200191614283565b820191906000526020600020905b81548152906001019060200180831161426657829003601f168201915b50505050509250818054600181600116156101000203166002900480601f01602080910402602001604051908101604052809291908181526020018280546001816001161561010002031660029004801561431f5780601f106142f45761010080835404028352916020019161431f565b820191906000526020600020905b81548152906001019060200180831161430257829003601f168201915b50505050509150808054600181600116156101000203166002900480601f0160208091040260200160405190810160405280929190818152602001828054600181600116156101000203166002900480156143bb5780601f10614390576101008083540402835291602001916143bb565b820191906000526020600020905b81548152906001019060200180831161439e57829003601f168201915b505050505090509750975097509750975097509750506143e5565b8080600101915050613ece565b505b919395979092949650565b6000809054906101000a900473ffffffffffffffffffffffffffffffffffffffff1681565b828054600181600116156101000203166002900490600052602060002090601f016020900481019282601f1061445657805160ff1916838001178555614484565b82800160010185558215614484579182015b82811115614483578251825591602001919060010190614468565b5b5090506144919190614515565b5090565b828054600181600116156101000203166002900490600052602060002090601f016020900481019282601f106144d657805160ff1916838001178555614504565b82800160010185558215614504579182015b828111156145035782518255916020019190600101906144e8565b5b5090506145119190614515565b5090565b61453791905b8082111561453357600081600090555060010161451b565b5090565b9056fea165627a7a72305820bac7aaa667950cb647bebed132abd32917552c5abb529c20af8df4626eadd2990029",
  "source": "pragma solidity >=0.4.21 <0.6.0;\n\ncontract Property {\n\t//UIDAI - Unique Identification Authority of India\n\taddress public admin;\n\t//address public Uidai;\n\taddress public Rera;\n\t\n\tstruct User {\n\t\tstring Name;\n\t\tstring AdharNo;\n\t\tstring PanNo;\n\t\tstring email;\n\t\tstring PhoneNo;\n\t}\n\n\tstruct Land {\n\t\taddress Owner;\n\t\tstring ReraRegisteredNo;\n\t\tbool LandOnRoad;\n\t\tstring LandArea;\n\t\tstring District;\n\t\tstring State;\n\t\tstring Price;\n\t}\n\n\tuint256 public landCount = 0;\n\n\tmapping (address => User) users;\n\taddress[] public userAcc;\n\n\tmapping (uint256 => Land) userLands;\n\tuint256[] public lands;\n\n\tmapping (uint256 => address) landOwnerChange;\n\n\tmapping (uint256 => bool) verifiedLands;\n\n\tmapping (address => uint256) balanceOf;\n\n\tevent addUsers (address newUser);\n\n\tevent addLands (uint256 indexed _landId);\n\n\tevent Transfer(\n\t\taddress indexed _from, \n\t\taddress indexed _to,\n\t\tuint256 _value);\n\n\tmodifier onlyOwner(uint256 _landId) { \n\t \trequire (userLands[_landId].Owner == msg.sender); \n\t\t_; \n\t}\n\n\tmodifier verifiedByAdmin() { \n\t\trequire (msg.sender == admin); \n\t\t_; \n\t}\n\t\n\n\tmodifier byRera() { \n\t\trequire (msg.sender == Rera); \n\t\t_; \n\t}\n\t\n\tconstructor () public {\n\t\tadmin = msg.sender;\n\t\tRera = address(2);\n\t}\n\n\tfunction addUser (string memory _name, string memory _adharNo, string memory _panNo, string memory _email, string memory _phoneNo) public returns(bool) {\n\t\taddress _address = msg.sender;\n\t\tfor(uint256 i=1; i<=userAcc.length; i++) {\n\t\t\tif(uint(keccak256(abi.encodePacked(users[userAcc[i]].AdharNo))) == uint(keccak256(abi.encodePacked(_adharNo)))) {\n\t\t\t\t\"User ID Already Exists!\";\n\t\t\t\treturn false;\n\t\t\t}\n\t\t}\n\t\tusers[_address] = User(_name, _adharNo, _panNo, _email, _phoneNo);\n\t\t/*user.Name = _name;\n\t\tuser.AdharNo = _adharNo;\n\t\tuser.PanNo = _panNo;\n\t\tuser.email = _email;\n\t\tuser.PhoneNo = _phoneNo;*/\n\t\tuserAcc.push(msg.sender) -1;\n\t\temit addUsers(msg.sender);\n\t\treturn true;\n\t}\n\n\tfunction getUserCount () public view returns(uint256) {\n\t\treturn userAcc.length;\n\t}\n\t\n\tfunction getUserDetails (address _address) public view returns(string memory, string memory, string memory) {\n\t\treturn (users[_address].Name, users[_address].email, users[_address].PhoneNo);\n\t}\n\n\tfunction getAllUsers () public view returns (address[] memory) {\n\t\treturn userAcc;\n\t}\n\n\tfunction addLand (string memory _reraRegisteredNo, bool _landOnRoad, string memory _landArea, string memory _district, string memory _state, string memory _price) public returns (bool) {\n\t\tlandCount++;\n\t\t/*Land memory land = userLands[landCount];\n\t\tland.currOwner = msg.sender;\n\t\tland.verifiedByRera = false;\n\t\tland.LandOnRoad = _landOnRoad;\n\t\tland.ProposedLandUse = _proposedLandUse;\n\t\tland.LandArea = _landArea;\n\t\tland.Jurisdiction = _jurisdiction;\n\t\tland.LocalBodyName = _localBodyName;\n\t\tland.Plot = _plot;\n\t\tland.Khatian = _khatian;\n\t\tland.District = _district;\n\t\tland.Thana = _thana;\n\t\tland.LocalBody = _localBody;\n\t\tland.Price = _price;*/\n\t\tuserLands[landCount] = Land(msg.sender, _reraRegisteredNo, _landOnRoad, _landArea, _district, _state, _price);\n\t\tlands.push(landCount) -1;\n\t\temit addLands(landCount);\n\t\treturn true;\n\t}\n\n\tfunction approveLand (uint256 _landId) byRera public returns(bool) {\n\t\t//require (userLands[_landId].currOwner != msg.sender);\n\t\t//userLands[_landId].verifiedByRera = true;\n\t\tverifiedLands[_landId] = true;\n\t\treturn true;\n\t}\n\t\n\n\tfunction getLandCount () public view returns(uint256) {\n\t\treturn lands.length;\n\t}\n\n\t//address(0) = 0x0 => is used to check if the address is empty \n\tfunction changeLandOwner (uint256 _landId, address _newOwner) onlyOwner(_landId) public returns(bool) {\n\t\t//new owner should not be the same old owner\n\t\trequire (userLands[_landId].Owner != _newOwner);\n\t\t//no ownership change request must exist\n\t\trequire (landOwnerChange[_landId] == address(0));\n\t\t//ownership change is requested\n\t\tlandOwnerChange[_landId] = _newOwner;\n\t\treturn true;\n\t}\n\n\tfunction approveChangeOwner (uint256 _landId) verifiedByAdmin public returns(bool) {\n\t\t//ownership change request must exist\n\t\trequire (landOwnerChange[_landId] != address(0));\n\t\tuserLands[_landId].Owner = landOwnerChange[_landId];\n\t\t//empty the owner change request\n\t\tlandOwnerChange[_landId] = address(0);\n\t\treturn true;\n\t}\n\n\tfunction transfer (address _to, uint256 _value) public returns(bool) {\n\t\t//exception of account doesn't have enuf\n\t\trequire(balanceOf[msg.sender] >= _value); \n\t\t//runs the code below only if require is true\n\t\t//transfer the balance\n\t\tbalanceOf[msg.sender] -= _value;\n\t\tbalanceOf[_to] += _value;\n\t\t//transfer event\n\t\temit Transfer(msg.sender, _to, _value);\n\t\t//return boolean\n\t\treturn true;\n\t}\n\t\n\n\tfunction changeLandPrice (uint256 _landId, string memory _newPrice) onlyOwner(_landId) public returns(bool) {\n\t\t//no ownership change request must exist\n\t\trequire (landOwnerChange[_landId] == address(0));\n\t\tuserLands[_landId].Price = _newPrice;\n\t\treturn true;\n\t}\n\t\n\tfunction getLandDetails () public view returns(address, string memory, bool, string memory, string memory, string memory, string memory) {\n\t\tfor(uint i=1;i<=lands.length;i++){\n\t\t\tif(userLands[i].Owner == msg.sender){\n\t\t\t\treturn (userLands[i].Owner, userLands[i].ReraRegisteredNo, userLands[i].LandOnRoad, userLands[i].LandArea, userLands[i].District, userLands[i].State, userLands[i].Price);\n\t\t\t}\n\t\t}\n\t}\n\n\tfunction getLandByPrice (uint256 _price) public view returns(address, string memory, bool, string memory, string memory, string memory, string memory) {\n\t\tfor (uint256 i = 1; i <= lands.length; i++) { \n\t\t\tif (uint(keccak256(abi.encodePacked(userLands[i].Price))) == uint(keccak256(abi.encodePacked( _price)))) {\n\t\t\t\treturn (userLands[i].Owner, userLands[i].ReraRegisteredNo, userLands[i].LandOnRoad, userLands[i].LandArea, userLands[i].District, userLands[i].State, userLands[i].Price);\n\n\t\t\t}\n\t\t}\n\t}\t\n\n\tfunction getLandByLandArea (string memory _landArea) public view returns(address, string memory, bool, string memory, string memory, string memory, string memory) {\n\t\tfor (uint256 i = 1; i <= lands.length; i++) { \n\t\t\tif (uint(keccak256(abi.encodePacked(userLands[i].LandArea))) == uint(keccak256(abi.encodePacked(_landArea)))) {\n\t\t\t\treturn (userLands[i].Owner, userLands[i].ReraRegisteredNo, userLands[i].LandOnRoad, userLands[i].LandArea, userLands[i].District, userLands[i].State, userLands[i].Price);\n\t\t\t}\n\t\t}\n\t}\n\n\tfunction getLandByDistrict (string memory _district) public view returns(address, string memory, bool, string memory, string memory, string memory, string memory) {\n\t\tfor (uint256 i = 1; i <= lands.length; i++) { \n\t\t\tif (uint(keccak256(abi.encodePacked(userLands[i].District))) == uint(keccak256(abi.encodePacked(_district)))) {\n\t\t\t\treturn (userLands[i].Owner, userLands[i].ReraRegisteredNo, userLands[i].LandOnRoad, userLands[i].LandArea, userLands[i].District, userLands[i].State, userLands[i].Price);\n\t\t\t}\n\t\t}\n\t}\n\n\tfunction getLandByLandOnRoad () public view returns(address, string memory, bool, string memory, string memory, string memory, string memory) {\n\t\tfor (uint256 i = 1; i <= lands.length; i++) { \n\t\t\tif (userLands[i].LandOnRoad == true) {\n\t\t\t\treturn (userLands[i].Owner, userLands[i].ReraRegisteredNo, userLands[i].LandOnRoad, userLands[i].LandArea, userLands[i].District, userLands[i].State, userLands[i].Price);\n\t\t\t}\n\t\t}\n\t}\n\t\n}\n//uint(keccak256(abi.encodePacked(land.LandOnRoad)))\n\n",
  "sourcePath": "F:/Blockchain/Projects/FinalYearProject/LandRegistry/contracts/Property.sol",
  "compiler": {
    "name": "solc",
    "version": "0.5.0+commit.1d4f565a.Emscripten.clang"
  },
  "schemaVersion": "3.0.6",
  "updatedAt": "2019-04-27T10:16:01.109Z",
  "devdoc": {
    "methods": {}
  },
  "userdoc": {
    "methods": {}
  }
}